{
  "contractName": "CommunityTokenFactory",
  "abi": [
    {
      "constant": true,
      "inputs": [],
      "name": "gluon",
      "outputs": [
        {
          "name": "",
          "type": "address"
        }
      ],
      "payable": false,
      "stateMutability": "view",
      "type": "function"
    },
    {
      "constant": true,
      "inputs": [
        {
          "name": "",
          "type": "address"
        }
      ],
      "name": "isCommunityToken",
      "outputs": [
        {
          "name": "",
          "type": "bool"
        }
      ],
      "payable": false,
      "stateMutability": "view",
      "type": "function"
    },
    {
      "constant": true,
      "inputs": [
        {
          "name": "",
          "type": "uint256"
        }
      ],
      "name": "createdTokens",
      "outputs": [
        {
          "name": "",
          "type": "address"
        }
      ],
      "payable": false,
      "stateMutability": "view",
      "type": "function"
    },
    {
      "inputs": [
        {
          "name": "gluonAddress",
          "type": "address"
        }
      ],
      "payable": false,
      "stateMutability": "nonpayable",
      "type": "constructor"
    },
    {
      "anonymous": false,
      "inputs": [
        {
          "indexed": false,
          "name": "name",
          "type": "string"
        },
        {
          "indexed": false,
          "name": "addr",
          "type": "address"
        }
      ],
      "name": "TokenCreated",
      "type": "event"
    },
    {
      "constant": false,
      "inputs": [
        {
          "name": "_from",
          "type": "address"
        },
        {
          "name": "_value",
          "type": "uint256"
        },
        {
          "name": "_data",
          "type": "bytes"
        }
      ],
      "name": "tokenFallback",
      "outputs": [],
      "payable": false,
      "stateMutability": "nonpayable",
      "type": "function"
    },
    {
      "constant": false,
      "inputs": [
        {
          "name": "_name",
          "type": "string"
        },
        {
          "name": "_decimals",
          "type": "uint8"
        },
        {
          "name": "_symbol",
          "type": "string"
        },
        {
          "name": "exponent",
          "type": "uint8"
        }
      ],
      "name": "createCommunityToken",
      "outputs": [
        {
          "name": "",
          "type": "address"
        }
      ],
      "payable": false,
      "stateMutability": "nonpayable",
      "type": "function"
    },
    {
      "constant": false,
      "inputs": [
        {
          "name": "_name",
          "type": "string"
        },
        {
          "name": "_decimals",
          "type": "uint8"
        },
        {
          "name": "_symbol",
          "type": "string"
        },
        {
          "name": "exponent",
          "type": "uint8"
        }
      ],
      "name": "createEthCommunityToken",
      "outputs": [
        {
          "name": "",
          "type": "address"
        }
      ],
      "payable": false,
      "stateMutability": "nonpayable",
      "type": "function"
    },
    {
      "constant": false,
      "inputs": [
        {
          "name": "_name",
          "type": "string"
        },
        {
          "name": "_decimals",
          "type": "uint8"
        },
        {
          "name": "_symbol",
          "type": "string"
        },
        {
          "name": "exponent",
          "type": "uint8"
        },
        {
          "name": "numTokens",
          "type": "uint256"
        }
      ],
      "name": "createEthCommunityTokenAndMint",
      "outputs": [
        {
          "name": "",
          "type": "address"
        }
      ],
      "payable": true,
      "stateMutability": "payable",
      "type": "function"
    },
    {
      "constant": false,
      "inputs": [
        {
          "name": "_name",
          "type": "string"
        },
        {
          "name": "_decimals",
          "type": "uint8"
        },
        {
          "name": "_symbol",
          "type": "string"
        },
        {
          "name": "_totalSupply",
          "type": "uint256"
        }
      ],
      "name": "createERC20Token",
      "outputs": [
        {
          "name": "",
          "type": "address"
        }
      ],
      "payable": false,
      "stateMutability": "nonpayable",
      "type": "function"
    },
    {
      "constant": true,
      "inputs": [],
      "name": "getNumberOfCreatedTokens",
      "outputs": [
        {
          "name": "",
          "type": "uint256"
        }
      ],
      "payable": false,
      "stateMutability": "view",
      "type": "function"
    }
  ],
  "bytecode": "0x608060405234801561001057600080fd5b506040516020806159dd8339810180604052810190808051906020019092919050505080600260006101000a81548173ffffffffffffffffffffffffffffffffffffffff021916908373ffffffffffffffffffffffffffffffffffffffff16021790555050615959806100846000396000f300608060405260043610620000a3576000357c0100000000000000000000000000000000000000000000000000000000900463ffffffff16806327869c5714620000a857806365ababe914620001025780637b707e9c146200020b578063937688201462000239578063c0ee0b8a1462000297578063d782d647146200032d578063ea8b73df146200039d578063eb28615e14620004a5578063f2b9541f14620005b1575b600080fd5b348015620000b557600080fd5b50620000c0620006bd565b604051808273ffffffffffffffffffffffffffffffffffffffff1673ffffffffffffffffffffffffffffffffffffffff16815260200191505060405180910390f35b3480156200010f57600080fd5b50620001c9600480360381019080803590602001908201803590602001908080601f0160208091040260200160405190810160405280939291908181526020018383808284378201915050505050509192919290803560ff169060200190929190803590602001908201803590602001908080601f016020809104026020016040519081016040528093929190818152602001838380828437820191505050505050919291929080359060200190929190505050620006e3565b604051808273ffffffffffffffffffffffffffffffffffffffff1673ffffffffffffffffffffffffffffffffffffffff16815260200191505060405180910390f35b3480156200021857600080fd5b506200022362000a30565b6040518082815260200191505060405180910390f35b3480156200024657600080fd5b506200027d600480360381019080803573ffffffffffffffffffffffffffffffffffffffff16906020019092919050505062000a3c565b604051808215151515815260200191505060405180910390f35b348015620002a457600080fd5b506200032b600480360381019080803573ffffffffffffffffffffffffffffffffffffffff16906020019092919080359060200190929190803590602001908201803590602001908080601f016020809104026020016040519081016040528093929190818152602001838380828437820191505050505050919291929050505062000a5c565b005b3480156200033a57600080fd5b506200035b6004803603810190808035906020019092919050505062000f5f565b604051808273ffffffffffffffffffffffffffffffffffffffff1673ffffffffffffffffffffffffffffffffffffffff16815260200191505060405180910390f35b62000463600480360381019080803590602001908201803590602001908080601f0160208091040260200160405190810160405280939291908181526020018383808284378201915050505050509192919290803560ff169060200190929190803590602001908201803590602001908080601f0160208091040260200160405190810160405280939291908181526020018383808284378201915050505050509192919290803560ff1690602001909291908035906020019092919050505062000f9e565b604051808273ffffffffffffffffffffffffffffffffffffffff1673ffffffffffffffffffffffffffffffffffffffff16815260200191505060405180910390f35b348015620004b257600080fd5b506200056f600480360381019080803590602001908201803590602001908080601f0160208091040260200160405190810160405280939291908181526020018383808284378201915050505050509192919290803560ff169060200190929190803590602001908201803590602001908080601f0160208091040260200160405190810160405280939291908181526020018383808284378201915050505050509192919290803560ff1690602001909291905050506200119d565b604051808273ffffffffffffffffffffffffffffffffffffffff1673ffffffffffffffffffffffffffffffffffffffff16815260200191505060405180910390f35b348015620005be57600080fd5b506200067b600480360381019080803590602001908201803590602001908080601f0160208091040260200160405190810160405280939291908181526020018383808284378201915050505050509192919290803560ff169060200190929190803590602001908201803590602001908080601f0160208091040260200160405190810160405280939291908181526020018383808284378201915050505050509192919290803560ff169060200190929190505050620014bb565b604051808273ffffffffffffffffffffffffffffffffffffffff1673ffffffffffffffffffffffffffffffffffffffff16815260200191505060405180910390f35b600260009054906101000a900473ffffffffffffffffffffffffffffffffffffffff1681565b60008085858585620006f46200183f565b80806020018560ff1660ff16815260200180602001848152602001838103835287818151815260200191508051906020019080838360005b83811015620007495780820151818401526020810190506200072c565b50505050905090810190601f168015620007775780820380516001836020036101000a031916815260200191505b50838103825285818151815260200191508051906020019080838360005b83811015620007b257808201518184015260208101905062000795565b50505050905090810190601f168015620007e05780820380516001836020036101000a031916815260200191505b509650505050505050604051809103906000f08015801562000806573d6000803e3d6000fd5b5090508073ffffffffffffffffffffffffffffffffffffffff1663a9059cbb33856040518363ffffffff167c0100000000000000000000000000000000000000000000000000000000028152600401808373ffffffffffffffffffffffffffffffffffffffff1673ffffffffffffffffffffffffffffffffffffffff16815260200182815260200192505050602060405180830381600087803b158015620008ad57600080fd5b505af1158015620008c2573d6000803e3d6000fd5b505050506040513d6020811015620008d957600080fd5b81019080805190602001909291905050505060008190806001815401808255809150509060018203906000526020600020016000909192909190916101000a81548173ffffffffffffffffffffffffffffffffffffffff021916908373ffffffffffffffffffffffffffffffffffffffff160217905550507ffdc90d498a1602314464a0907c52c51090745809fb1655b49df42e9333129f70868260405180806020018373ffffffffffffffffffffffffffffffffffffffff1673ffffffffffffffffffffffffffffffffffffffff168152602001828103825284818151815260200191508051906020019080838360005b83811015620009e8578082015181840152602081019050620009cb565b50505050905090810190601f16801562000a165780820380516001836020036101000a031916815260200191505b50935050505060405180910390a180915050949350505050565b60008080549050905090565b60016020528060005260406000206000915054906101000a900460ff1681565b60608060006060600260009054906101000a900473ffffffffffffffffffffffffffffffffffffffff1673ffffffffffffffffffffffffffffffffffffffff163373ffffffffffffffffffffffffffffffffffffffff1614151562000ac057600080fd5b62000ad96000602087620017839092919063ffffffff16565b935062000af660208087510387620017839092919063ffffffff16565b92503073ffffffffffffffffffffffffffffffffffffffff1660405180807f637265617465436f6d6d756e697479546f6b656e28737472696e672c75696e7481526020017f382c737472696e672c75696e7438290000000000000000000000000000000000815250602f01905060405180910390207c01000000000000000000000000000000000000000000000000000000009004846040518263ffffffff167c010000000000000000000000000000000000000000000000000000000002815260040180828051906020019080838360005b8381101562000be657808201518184015260208101905062000bc9565b50505050905090810190601f16801562000c145780820380516001836020036101000a031916815260200191505b509150506000604051808303816000875af192505050151562000c3657600080fd5b600060016000805490500381548110151562000c4e57fe5b9060005260206000200160009054906101000a900473ffffffffffffffffffffffffffffffffffffffff169150600260009054906101000a900473ffffffffffffffffffffffffffffffffffffffff1673ffffffffffffffffffffffffffffffffffffffff1663be45fd628388876040518463ffffffff167c0100000000000000000000000000000000000000000000000000000000028152600401808473ffffffffffffffffffffffffffffffffffffffff1673ffffffffffffffffffffffffffffffffffffffff16815260200183815260200180602001828103825283818151815260200191508051906020019080838360005b8381101562000d6157808201518184015260208101905062000d44565b50505050905090810190601f16801562000d8f5780820380516001836020036101000a031916815260200191505b50945050505050602060405180830381600087803b15801562000db157600080fd5b505af115801562000dc6573d6000803e3d6000fd5b505050506040513d602081101562000ddd57600080fd5b8101908080519060200190929190505050508173ffffffffffffffffffffffffffffffffffffffff1663be45fd628862000e226000886200181590919063ffffffff16565b846040518463ffffffff167c0100000000000000000000000000000000000000000000000000000000028152600401808473ffffffffffffffffffffffffffffffffffffffff1673ffffffffffffffffffffffffffffffffffffffff16815260200183815260200180602001828103825283818151815260200191508051906020019080838360005b8381101562000ec857808201518184015260208101905062000eab565b50505050905090810190601f16801562000ef65780820380516001836020036101000a031916815260200191505b50945050505050602060405180830381600087803b15801562000f1857600080fd5b505af115801562000f2d573d6000803e3d6000fd5b505050506040513d602081101562000f4457600080fd5b81019080805190602001909291905050505050505050505050565b60008181548110151562000f6f57fe5b906000526020600020016000915054906101000a900473ffffffffffffffffffffffffffffffffffffffff1681565b600080606062000fb188888888620014bb565b91508173ffffffffffffffffffffffffffffffffffffffff1663a0712d6834866040518363ffffffff167c0100000000000000000000000000000000000000000000000000000000028152600401808281526020019150506000604051808303818588803b1580156200102357600080fd5b505af115801562001038573d6000803e3d6000fd5b50505050508173ffffffffffffffffffffffffffffffffffffffff1663be45fd623386846040518463ffffffff167c0100000000000000000000000000000000000000000000000000000000028152600401808473ffffffffffffffffffffffffffffffffffffffff1673ffffffffffffffffffffffffffffffffffffffff16815260200183815260200180602001828103825283818151815260200191508051906020019080838360005b8381101562001101578082015181840152602081019050620010e4565b50505050905090810190601f1680156200112f5780820380516001836020036101000a031916815260200191505b50945050505050602060405180830381600087803b1580156200115157600080fd5b505af115801562001166573d6000803e3d6000fd5b505050506040513d60208110156200117d57600080fd5b810190808051906020019092919050505050819250505095945050505050565b60008085858585600260009054906101000a900473ffffffffffffffffffffffffffffffffffffffff16620011d162001850565b80806020018660ff1660ff168152602001806020018560ff1660ff1681526020018473ffffffffffffffffffffffffffffffffffffffff1673ffffffffffffffffffffffffffffffffffffffff168152602001838103835288818151815260200191508051906020019080838360005b838110156200125e57808201518184015260208101905062001241565b50505050905090810190601f1680156200128c5780820380516001836020036101000a031916815260200191505b50838103825286818151815260200191508051906020019080838360005b83811015620012c7578082015181840152602081019050620012aa565b50505050905090810190601f168015620012f55780820380516001836020036101000a031916815260200191505b50975050505050505050604051809103906000f0801580156200131c573d6000803e3d6000fd5b50905060008190806001815401808255809150509060018203906000526020600020016000909192909190916101000a81548173ffffffffffffffffffffffffffffffffffffffff021916908373ffffffffffffffffffffffffffffffffffffffff1602179055505060018060008373ffffffffffffffffffffffffffffffffffffffff1673ffffffffffffffffffffffffffffffffffffffff16815260200190815260200160002060006101000a81548160ff0219169083151502179055507ffdc90d498a1602314464a0907c52c51090745809fb1655b49df42e9333129f70868260405180806020018373ffffffffffffffffffffffffffffffffffffffff1673ffffffffffffffffffffffffffffffffffffffff168152602001828103825284818151815260200191508051906020019080838360005b838110156200147357808201518184015260208101905062001456565b50505050905090810190601f168015620014a15780820380516001836020036101000a031916815260200191505b50935050505060405180910390a180915050949350505050565b60008085858585620014cc62001861565b80806020018560ff1660ff168152602001806020018460ff1660ff168152602001838103835287818151815260200191508051906020019080838360005b83811015620015275780820151818401526020810190506200150a565b50505050905090810190601f168015620015555780820380516001836020036101000a031916815260200191505b50838103825285818151815260200191508051906020019080838360005b838110156200159057808201518184015260208101905062001573565b50505050905090810190601f168015620015be5780820380516001836020036101000a031916815260200191505b509650505050505050604051809103906000f080158015620015e4573d6000803e3d6000fd5b50905060008190806001815401808255809150509060018203906000526020600020016000909192909190916101000a81548173ffffffffffffffffffffffffffffffffffffffff021916908373ffffffffffffffffffffffffffffffffffffffff1602179055505060018060008373ffffffffffffffffffffffffffffffffffffffff1673ffffffffffffffffffffffffffffffffffffffff16815260200190815260200160002060006101000a81548160ff0219169083151502179055507ffdc90d498a1602314464a0907c52c51090745809fb1655b49df42e9333129f70868260405180806020018373ffffffffffffffffffffffffffffffffffffffff1673ffffffffffffffffffffffffffffffffffffffff168152602001828103825284818151815260200191508051906020019080838360005b838110156200173b5780820151818401526020810190506200171e565b50505050905090810190601f168015620017695780820380516001836020036101000a031916815260200191505b50935050505060405180910390a180915050949350505050565b6060808284018551101515156200179957600080fd5b821560008114620017b65760405191506020820160405262001809565b6040519150601f8416801560200281840101858101878315602002848b0101015b81831015620017f65780518352602083019250602081019050620017d7565b50868552601f19601f8301166040525050505b50809150509392505050565b600080602083018451101515156200182c57600080fd5b8260208501015190508091505092915050565b6040516114b2806200187383390190565b6040516117be8062002d2583390190565b60405161144b80620044e383390190560060806040523480156200001157600080fd5b50604051620014b2380380620014b28339810180604052810190808051820192919060200180519060200190929190805182019291906020018051906020019092919050505083600390805190602001906200006f929190620000f8565b5082600460006101000a81548160ff021916908360ff1602179055508160059080519060200190620000a3929190620000f8565b5080600181905550806000803373ffffffffffffffffffffffffffffffffffffffff1673ffffffffffffffffffffffffffffffffffffffff1681526020019081526020016000208190555050505050620001a7565b828054600181600116156101000203166002900490600052602060002090601f016020900481019282601f106200013b57805160ff19168380011785556200016c565b828001600101855582156200016c579182015b828111156200016b5782518255916020019190600101906200014e565b5b5090506200017b91906200017f565b5090565b620001a491905b80821115620001a057600081600090555060010162000186565b5090565b90565b6112fb80620001b76000396000f3006080604052600436106100af576000357c0100000000000000000000000000000000000000000000000000000000900463ffffffff16806306fdde03146100b4578063095ea7b31461014457806318160ddd146101a957806323b872dd146101d4578063313ce56714610259578063661884631461028a57806370a08231146102ef57806395d89b4114610346578063a9059cbb146103d6578063d73dd6231461043b578063dd62ed3e146104a0575b600080fd5b3480156100c057600080fd5b506100c9610517565b6040518080602001828103825283818151815260200191508051906020019080838360005b838110156101095780820151818401526020810190506100ee565b50505050905090810190601f1680156101365780820380516001836020036101000a031916815260200191505b509250505060405180910390f35b34801561015057600080fd5b5061018f600480360381019080803573ffffffffffffffffffffffffffffffffffffffff169060200190929190803590602001909291905050506105b5565b604051808215151515815260200191505060405180910390f35b3480156101b557600080fd5b506101be6106a7565b6040518082815260200191505060405180910390f35b3480156101e057600080fd5b5061023f600480360381019080803573ffffffffffffffffffffffffffffffffffffffff169060200190929190803573ffffffffffffffffffffffffffffffffffffffff169060200190929190803590602001909291905050506106b1565b604051808215151515815260200191505060405180910390f35b34801561026557600080fd5b5061026e610a6c565b604051808260ff1660ff16815260200191505060405180910390f35b34801561029657600080fd5b506102d5600480360381019080803573ffffffffffffffffffffffffffffffffffffffff16906020019092919080359060200190929190505050610a7f565b604051808215151515815260200191505060405180910390f35b3480156102fb57600080fd5b50610330600480360381019080803573ffffffffffffffffffffffffffffffffffffffff169060200190929190505050610d11565b6040518082815260200191505060405180910390f35b34801561035257600080fd5b5061035b610d59565b6040518080602001828103825283818151815260200191508051906020019080838360005b8381101561039b578082015181840152602081019050610380565b50505050905090810190601f1680156103c85780820380516001836020036101000a031916815260200191505b509250505060405180910390f35b3480156103e257600080fd5b50610421600480360381019080803573ffffffffffffffffffffffffffffffffffffffff16906020019092919080359060200190929190505050610df7565b604051808215151515815260200191505060405180910390f35b34801561044757600080fd5b50610486600480360381019080803573ffffffffffffffffffffffffffffffffffffffff16906020019092919080359060200190929190505050611017565b604051808215151515815260200191505060405180910390f35b3480156104ac57600080fd5b50610501600480360381019080803573ffffffffffffffffffffffffffffffffffffffff169060200190929190803573ffffffffffffffffffffffffffffffffffffffff169060200190929190505050611213565b6040518082815260200191505060405180910390f35b60038054600181600116156101000203166002900480601f0160208091040260200160405190810160405280929190818152602001828054600181600116156101000203166002900480156105ad5780601f10610582576101008083540402835291602001916105ad565b820191906000526020600020905b81548152906001019060200180831161059057829003601f168201915b505050505081565b600081600260003373ffffffffffffffffffffffffffffffffffffffff1673ffffffffffffffffffffffffffffffffffffffff16815260200190815260200160002060008573ffffffffffffffffffffffffffffffffffffffff1673ffffffffffffffffffffffffffffffffffffffff168152602001908152602001600020819055508273ffffffffffffffffffffffffffffffffffffffff163373ffffffffffffffffffffffffffffffffffffffff167f8c5be1e5ebec7d5bd14f71427d1e84f3dd0314c0f7b2291e5b200ac8c7c3b925846040518082815260200191505060405180910390a36001905092915050565b6000600154905090565b60008060008573ffffffffffffffffffffffffffffffffffffffff1673ffffffffffffffffffffffffffffffffffffffff16815260200190815260200160002054821115151561070057600080fd5b600260008573ffffffffffffffffffffffffffffffffffffffff1673ffffffffffffffffffffffffffffffffffffffff16815260200190815260200160002060003373ffffffffffffffffffffffffffffffffffffffff1673ffffffffffffffffffffffffffffffffffffffff16815260200190815260200160002054821115151561078b57600080fd5b600073ffffffffffffffffffffffffffffffffffffffff168373ffffffffffffffffffffffffffffffffffffffff16141515156107c757600080fd5b610818826000808773ffffffffffffffffffffffffffffffffffffffff1673ffffffffffffffffffffffffffffffffffffffff1681526020019081526020016000205461129a90919063ffffffff16565b6000808673ffffffffffffffffffffffffffffffffffffffff1673ffffffffffffffffffffffffffffffffffffffff168152602001908152602001600020819055506108ab826000808673ffffffffffffffffffffffffffffffffffffffff1673ffffffffffffffffffffffffffffffffffffffff168152602001908152602001600020546112b390919063ffffffff16565b6000808573ffffffffffffffffffffffffffffffffffffffff1673ffffffffffffffffffffffffffffffffffffffff1681526020019081526020016000208190555061097c82600260008773ffffffffffffffffffffffffffffffffffffffff1673ffffffffffffffffffffffffffffffffffffffff16815260200190815260200160002060003373ffffffffffffffffffffffffffffffffffffffff1673ffffffffffffffffffffffffffffffffffffffff1681526020019081526020016000205461129a90919063ffffffff16565b600260008673ffffffffffffffffffffffffffffffffffffffff1673ffffffffffffffffffffffffffffffffffffffff16815260200190815260200160002060003373ffffffffffffffffffffffffffffffffffffffff1673ffffffffffffffffffffffffffffffffffffffff168152602001908152602001600020819055508273ffffffffffffffffffffffffffffffffffffffff168473ffffffffffffffffffffffffffffffffffffffff167fddf252ad1be2c89b69c2b068fc378daa952ba7f163c4a11628f55a4df523b3ef846040518082815260200191505060405180910390a3600190509392505050565b600460009054906101000a900460ff1681565b600080600260003373ffffffffffffffffffffffffffffffffffffffff1673ffffffffffffffffffffffffffffffffffffffff16815260200190815260200160002060008573ffffffffffffffffffffffffffffffffffffffff1673ffffffffffffffffffffffffffffffffffffffff1681526020019081526020016000205490508083101515610b91576000600260003373ffffffffffffffffffffffffffffffffffffffff1673ffffffffffffffffffffffffffffffffffffffff16815260200190815260200160002060008673ffffffffffffffffffffffffffffffffffffffff1673ffffffffffffffffffffffffffffffffffffffff16815260200190815260200160002081905550610c25565b610ba4838261129a90919063ffffffff16565b600260003373ffffffffffffffffffffffffffffffffffffffff1673ffffffffffffffffffffffffffffffffffffffff16815260200190815260200160002060008673ffffffffffffffffffffffffffffffffffffffff1673ffffffffffffffffffffffffffffffffffffffff168152602001908152602001600020819055505b8373ffffffffffffffffffffffffffffffffffffffff163373ffffffffffffffffffffffffffffffffffffffff167f8c5be1e5ebec7d5bd14f71427d1e84f3dd0314c0f7b2291e5b200ac8c7c3b925600260003373ffffffffffffffffffffffffffffffffffffffff1673ffffffffffffffffffffffffffffffffffffffff16815260200190815260200160002060008873ffffffffffffffffffffffffffffffffffffffff1673ffffffffffffffffffffffffffffffffffffffff168152602001908152602001600020546040518082815260200191505060405180910390a3600191505092915050565b60008060008373ffffffffffffffffffffffffffffffffffffffff1673ffffffffffffffffffffffffffffffffffffffff168152602001908152602001600020549050919050565b60058054600181600116156101000203166002900480601f016020809104026020016040519081016040528092919081815260200182805460018160011615610100020316600290048015610def5780601f10610dc457610100808354040283529160200191610def565b820191906000526020600020905b815481529060010190602001808311610dd257829003601f168201915b505050505081565b60008060003373ffffffffffffffffffffffffffffffffffffffff1673ffffffffffffffffffffffffffffffffffffffff168152602001908152602001600020548211151515610e4657600080fd5b600073ffffffffffffffffffffffffffffffffffffffff168373ffffffffffffffffffffffffffffffffffffffff1614151515610e8257600080fd5b610ed3826000803373ffffffffffffffffffffffffffffffffffffffff1673ffffffffffffffffffffffffffffffffffffffff1681526020019081526020016000205461129a90919063ffffffff16565b6000803373ffffffffffffffffffffffffffffffffffffffff1673ffffffffffffffffffffffffffffffffffffffff16815260200190815260200160002081905550610f66826000808673ffffffffffffffffffffffffffffffffffffffff1673ffffffffffffffffffffffffffffffffffffffff168152602001908152602001600020546112b390919063ffffffff16565b6000808573ffffffffffffffffffffffffffffffffffffffff1673ffffffffffffffffffffffffffffffffffffffff168152602001908152602001600020819055508273ffffffffffffffffffffffffffffffffffffffff163373ffffffffffffffffffffffffffffffffffffffff167fddf252ad1be2c89b69c2b068fc378daa952ba7f163c4a11628f55a4df523b3ef846040518082815260200191505060405180910390a36001905092915050565b60006110a882600260003373ffffffffffffffffffffffffffffffffffffffff1673ffffffffffffffffffffffffffffffffffffffff16815260200190815260200160002060008673ffffffffffffffffffffffffffffffffffffffff1673ffffffffffffffffffffffffffffffffffffffff168152602001908152602001600020546112b390919063ffffffff16565b600260003373ffffffffffffffffffffffffffffffffffffffff1673ffffffffffffffffffffffffffffffffffffffff16815260200190815260200160002060008573ffffffffffffffffffffffffffffffffffffffff1673ffffffffffffffffffffffffffffffffffffffff168152602001908152602001600020819055508273ffffffffffffffffffffffffffffffffffffffff163373ffffffffffffffffffffffffffffffffffffffff167f8c5be1e5ebec7d5bd14f71427d1e84f3dd0314c0f7b2291e5b200ac8c7c3b925600260003373ffffffffffffffffffffffffffffffffffffffff1673ffffffffffffffffffffffffffffffffffffffff16815260200190815260200160002060008773ffffffffffffffffffffffffffffffffffffffff1673ffffffffffffffffffffffffffffffffffffffff168152602001908152602001600020546040518082815260200191505060405180910390a36001905092915050565b6000600260008473ffffffffffffffffffffffffffffffffffffffff1673ffffffffffffffffffffffffffffffffffffffff16815260200190815260200160002060008373ffffffffffffffffffffffffffffffffffffffff1673ffffffffffffffffffffffffffffffffffffffff16815260200190815260200160002054905092915050565b60008282111515156112a857fe5b818303905092915050565b600081830190508281101515156112c657fe5b809050929150505600a165627a7a72305820994fea34cf705d2b798ab2819a434297f37d8bc51e22ac2d074c56a7e7a30104002960806040523480156200001157600080fd5b50604051620017be380380620017be833981018060405281019080805182019291906020018051906020019092919080518201929190602001805190602001909291908051906020019092919050505033600660006101000a81548173ffffffffffffffffffffffffffffffffffffffff021916908373ffffffffffffffffffffffffffffffffffffffff1602179055508460029080519060200190620000ba92919062000156565b5083600460006101000a81548160ff021916908360ff1602179055508260039080519060200190620000ee92919062000156565b5081600960006101000a81548160ff021916908360ff16021790555080600760006101000a81548173ffffffffffffffffffffffffffffffffffffffff021916908373ffffffffffffffffffffffffffffffffffffffff160217905550505050505062000205565b828054600181600116156101000203166002900490600052602060002090601f016020900481019282601f106200019957805160ff1916838001178555620001ca565b82800160010185558215620001ca579182015b82811115620001c9578251825591602001919060010190620001ac565b5b509050620001d99190620001dd565b5090565b6200020291905b80821115620001fe576000816000905550600101620001e4565b5090565b90565b6115a980620002156000396000f3006080604052600436106100e6576000357c0100000000000000000000000000000000000000000000000000000000900463ffffffff16806306fdde03146100eb57806318160ddd1461017b578063313ce567146101a657806352f6ee58146101d757806370a0823114610208578063715018a61461025f5780638da5cb5b1461027657806395d89b41146102cd57806396365d441461035d578063b9d3674314610388578063be45fd62146103c9578063c0ee0b8a14610474578063c544682b14610507578063f2fde38b14610548578063f4325d671461058b578063fe9d9303146105e2575b600080fd5b3480156100f757600080fd5b50610100610655565b6040518080602001828103825283818151815260200191508051906020019080838360005b83811015610140578082015181840152602081019050610125565b50505050905090810190601f16801561016d5780820380516001836020036101000a031916815260200191505b509250505060405180910390f35b34801561018757600080fd5b506101906106f7565b6040518082815260200191505060405180910390f35b3480156101b257600080fd5b506101bb610701565b604051808260ff1660ff16815260200191505060405180910390f35b3480156101e357600080fd5b506101ec610718565b604051808260ff1660ff16815260200191505060405180910390f35b34801561021457600080fd5b50610249600480360381019080803573ffffffffffffffffffffffffffffffffffffffff16906020019092919050505061072b565b6040518082815260200191505060405180910390f35b34801561026b57600080fd5b50610274610774565b005b34801561028257600080fd5b5061028b610879565b604051808273ffffffffffffffffffffffffffffffffffffffff1673ffffffffffffffffffffffffffffffffffffffff16815260200191505060405180910390f35b3480156102d957600080fd5b506102e261089f565b6040518080602001828103825283818151815260200191508051906020019080838360005b83811015610322578082015181840152602081019050610307565b50505050905090810190601f16801561034f5780820380516001836020036101000a031916815260200191505b509250505060405180910390f35b34801561036957600080fd5b50610372610941565b6040518082815260200191505060405180910390f35b34801561039457600080fd5b506103b360048036038101908080359060200190929190505050610947565b6040518082815260200191505060405180910390f35b3480156103d557600080fd5b5061045a600480360381019080803573ffffffffffffffffffffffffffffffffffffffff16906020019092919080359060200190929190803590602001908201803590602001908080601f0160208091040260200160405190810160405280939291908181526020018383808284378201915050505050509192919290505050610961565b604051808215151515815260200191505060405180910390f35b34801561048057600080fd5b50610505600480360381019080803573ffffffffffffffffffffffffffffffffffffffff16906020019092919080359060200190929190803590602001908201803590602001908080601f0160208091040260200160405190810160405280939291908181526020018383808284378201915050505050509192919290505050610998565b005b34801561051357600080fd5b5061053260048036038101908080359060200190929190505050610a1d565b6040518082815260200191505060405180910390f35b34801561055457600080fd5b50610589600480360381019080803573ffffffffffffffffffffffffffffffffffffffff169060200190929190505050610a37565b005b34801561059757600080fd5b506105a0610a9f565b604051808273ffffffffffffffffffffffffffffffffffffffff1673ffffffffffffffffffffffffffffffffffffffff16815260200191505060405180910390f35b3480156105ee57600080fd5b5061065360048036038101908080359060200190929190803590602001908201803590602001908080601f0160208091040260200160405190810160405280939291908181526020018383808284378201915050505050509192919290505050610ac5565b005b606060028054600181600116156101000203166002900480601f0160208091040260200160405190810160405280929190818152602001828054600181600116156101000203166002900480156106ed5780601f106106c2576101008083540402835291602001916106ed565b820191906000526020600020905b8154815290600101906020018083116106d057829003601f168201915b5050505050905090565b6000600554905090565b6000600460009054906101000a900460ff16905090565b600960009054906101000a900460ff1681565b6000600160008373ffffffffffffffffffffffffffffffffffffffff1673ffffffffffffffffffffffffffffffffffffffff168152602001908152602001600020549050919050565b600660009054906101000a900473ffffffffffffffffffffffffffffffffffffffff1673ffffffffffffffffffffffffffffffffffffffff163373ffffffffffffffffffffffffffffffffffffffff161415156107d057600080fd5b600660009054906101000a900473ffffffffffffffffffffffffffffffffffffffff1673ffffffffffffffffffffffffffffffffffffffff167ff8df31144d9c2f0f6b59d69b8b98abd5459d07f2742c4df920b25aae33c6482060405160405180910390a26000600660006101000a81548173ffffffffffffffffffffffffffffffffffffffff021916908373ffffffffffffffffffffffffffffffffffffffff160217905550565b600660009054906101000a900473ffffffffffffffffffffffffffffffffffffffff1681565b606060038054600181600116156101000203166002900480601f0160208091040260200160405190810160405280929190818152602001828054600181600116156101000203166002900480156109375780601f1061090c57610100808354040283529160200191610937565b820191906000526020600020905b81548152906001019060200180831161091a57829003601f168201915b5050505050905090565b60085481565b60006008546109598360055401610d9d565b039050919050565b600061096c84610e09565b156109835761097c848484610e1c565b9050610991565b61098e8484846110f9565b90505b9392505050565b6000600760009054906101000a900473ffffffffffffffffffffffffffffffffffffffff1673ffffffffffffffffffffffffffffffffffffffff163373ffffffffffffffffffffffffffffffffffffffff161415156109f657600080fd5b610a0a6000836112a990919063ffffffff16565b9050610a178484836112d2565b50505050565b6000610a2c8260055403610d9d565b600854039050919050565b600660009054906101000a900473ffffffffffffffffffffffffffffffffffffffff1673ffffffffffffffffffffffffffffffffffffffff163373ffffffffffffffffffffffffffffffffffffffff16141515610a9357600080fd5b610a9c816113fe565b50565b600760009054906101000a900473ffffffffffffffffffffffffffffffffffffffff1681565b600082600160003373ffffffffffffffffffffffffffffffffffffffff1673ffffffffffffffffffffffffffffffffffffffff1681526020019081526020016000205410151515610b1557600080fd5b610b1e83610a1d565b9050610b35836005546114fa90919063ffffffff16565b600581905550610b8d83600160003373ffffffffffffffffffffffffffffffffffffffff1673ffffffffffffffffffffffffffffffffffffffff168152602001908152602001600020546114fa90919063ffffffff16565b600160003373ffffffffffffffffffffffffffffffffffffffff1673ffffffffffffffffffffffffffffffffffffffff16815260200190815260200160002081905550610be5816008546114fa90919063ffffffff16565b600881905550600760009054906101000a900473ffffffffffffffffffffffffffffffffffffffff1673ffffffffffffffffffffffffffffffffffffffff1663be45fd623383856040518463ffffffff167c0100000000000000000000000000000000000000000000000000000000028152600401808473ffffffffffffffffffffffffffffffffffffffff1673ffffffffffffffffffffffffffffffffffffffff16815260200183815260200180602001828103825283818151815260200191508051906020019080838360005b83811015610ccf578082015181840152602081019050610cb4565b50505050905090810190601f168015610cfc5780820380516001836020036101000a031916815260200191505b50945050505050602060405180830381600087803b158015610d1d57600080fd5b505af1158015610d31573d6000803e3d6000fd5b505050506040513d6020811015610d4757600080fd5b8101908080519060200190929190505050507fcec1bae6e024d929f2929f3478ce70f55f9c636c8ef7b5073a61d7c3a432451b8382604051808381526020018281526020019250505060405180910390a1505050565b6000806000806402540be40092506001600960009054906101000a900460ff160160ff16915081850a9050610dff83610df183610de3868861151390919063ffffffff16565b61152990919063ffffffff16565b61151390919063ffffffff16565b9350505050919050565b600080823b905060008111915050919050565b60008083610e293361072b565b1015610e3457600080fd5b610e4f84610e413361072b565b6114fa90919063ffffffff16565b600160003373ffffffffffffffffffffffffffffffffffffffff1673ffffffffffffffffffffffffffffffffffffffff16815260200190815260200160002081905550610ead84610e9f8761072b565b61156190919063ffffffff16565b600160008773ffffffffffffffffffffffffffffffffffffffff1673ffffffffffffffffffffffffffffffffffffffff168152602001908152602001600020819055508490508073ffffffffffffffffffffffffffffffffffffffff1663c0ee0b8a3386866040518463ffffffff167c0100000000000000000000000000000000000000000000000000000000028152600401808473ffffffffffffffffffffffffffffffffffffffff1673ffffffffffffffffffffffffffffffffffffffff16815260200183815260200180602001828103825283818151815260200191508051906020019080838360005b83811015610fb5578082015181840152602081019050610f9a565b50505050905090810190601f168015610fe25780820380516001836020036101000a031916815260200191505b50945050505050600060405180830381600087803b15801561100357600080fd5b505af1158015611017573d6000803e3d6000fd5b505050508473ffffffffffffffffffffffffffffffffffffffff163373ffffffffffffffffffffffffffffffffffffffff167fe19260aff97b920c7df27010903aeb9c8d2be5d310a2c67824cf3f15396e4c1686866040518083815260200180602001828103825283818151815260200191508051906020019080838360005b838110156110b2578082015181840152602081019050611097565b50505050905090810190601f1680156110df5780820380516001836020036101000a031916815260200191505b50935050505060405180910390a360019150509392505050565b6000826111053361072b565b101561111057600080fd5b61112b8361111d3361072b565b6114fa90919063ffffffff16565b600160003373ffffffffffffffffffffffffffffffffffffffff1673ffffffffffffffffffffffffffffffffffffffff168152602001908152602001600020819055506111898361117b8661072b565b61156190919063ffffffff16565b600160008673ffffffffffffffffffffffffffffffffffffffff1673ffffffffffffffffffffffffffffffffffffffff168152602001908152602001600020819055508373ffffffffffffffffffffffffffffffffffffffff163373ffffffffffffffffffffffffffffffffffffffff167fe19260aff97b920c7df27010903aeb9c8d2be5d310a2c67824cf3f15396e4c1685856040518083815260200180602001828103825283818151815260200191508051906020019080838360005b83811015611263578082015181840152602081019050611248565b50505050905090810190601f1680156112905780820380516001836020036101000a031916815260200191505b50935050505060405180910390a3600190509392505050565b600080602083018451101515156112bf57600080fd5b8260208501015190508091505092915050565b60006112dd82610947565b90508083101515156112ee57600080fd5b6113038260055461156190919063ffffffff16565b60058190555061135b82600160008773ffffffffffffffffffffffffffffffffffffffff1673ffffffffffffffffffffffffffffffffffffffff1681526020019081526020016000205461156190919063ffffffff16565b600160008673ffffffffffffffffffffffffffffffffffffffff1673ffffffffffffffffffffffffffffffffffffffff168152602001908152602001600020819055506113b38360085461156190919063ffffffff16565b6008819055507f8a9dcf4e150b1153011b29fec302d5be0c13e84fa8f56ab78587f778a32a90dd8284604051808381526020018281526020019250505060405180910390a150505050565b600073ffffffffffffffffffffffffffffffffffffffff168173ffffffffffffffffffffffffffffffffffffffff161415151561143a57600080fd5b8073ffffffffffffffffffffffffffffffffffffffff16600660009054906101000a900473ffffffffffffffffffffffffffffffffffffffff1673ffffffffffffffffffffffffffffffffffffffff167f8be0079c531659141344cd1fd0a4f28419497f9722a3daafe3b4186f6b6457e060405160405180910390a380600660006101000a81548173ffffffffffffffffffffffffffffffffffffffff021916908373ffffffffffffffffffffffffffffffffffffffff16021790555050565b600082821115151561150857fe5b818303905092915050565b6000818381151561152057fe5b04905092915050565b60008083141561153c576000905061155b565b818302905081838281151561154d57fe5b0414151561155757fe5b8090505b92915050565b6000818301905082811015151561157457fe5b809050929150505600a165627a7a7230582022488693249fe9a80ccb91143096a536a95ce475c6645f792f34602a79885bea002960806040526040516200144b3803806200144b8339810180604052810190808051820192919060200180519060200190929190805182019291906020018051906020019092919050505033600660006101000a81548173ffffffffffffffffffffffffffffffffffffffff021916908373ffffffffffffffffffffffffffffffffffffffff1602179055508360029080519060200190620000a2929190620000fc565b5082600460006101000a81548160ff021916908360ff1602179055508160039080519060200190620000d6929190620000fc565b5080600860006101000a81548160ff021916908360ff16021790555050505050620001ab565b828054600181600116156101000203166002900490600052602060002090601f016020900481019282601f106200013f57805160ff191683800117855562000170565b8280016001018555821562000170579182015b828111156200016f57825182559160200191906001019062000152565b5b5090506200017f919062000183565b5090565b620001a891905b80821115620001a45760008160009055506001016200018a565b5090565b90565b61129080620001bb6000396000f3006080604052600436106100db576000357c0100000000000000000000000000000000000000000000000000000000900463ffffffff16806306fdde03146100e057806318160ddd14610170578063313ce5671461019b57806342966c68146101cc57806352f6ee58146101f957806370a082311461022a578063715018a6146102815780638da5cb5b1461029857806395d89b41146102ef57806396365d441461037f578063a0712d68146103aa578063b9d36743146103ca578063be45fd621461040b578063c544682b146104b6578063f2fde38b146104f7575b600080fd5b3480156100ec57600080fd5b506100f561053a565b6040518080602001828103825283818151815260200191508051906020019080838360005b8381101561013557808201518184015260208101905061011a565b50505050905090810190601f1680156101625780820380516001836020036101000a031916815260200191505b509250505060405180910390f35b34801561017c57600080fd5b506101856105dc565b6040518082815260200191505060405180910390f35b3480156101a757600080fd5b506101b06105e6565b604051808260ff1660ff16815260200191505060405180910390f35b3480156101d857600080fd5b506101f7600480360381019080803590602001909291905050506105fd565b005b34801561020557600080fd5b5061020e6107ad565b604051808260ff1660ff16815260200191505060405180910390f35b34801561023657600080fd5b5061026b600480360381019080803573ffffffffffffffffffffffffffffffffffffffff1690602001909291905050506107c0565b6040518082815260200191505060405180910390f35b34801561028d57600080fd5b50610296610809565b005b3480156102a457600080fd5b506102ad61090e565b604051808273ffffffffffffffffffffffffffffffffffffffff1673ffffffffffffffffffffffffffffffffffffffff16815260200191505060405180910390f35b3480156102fb57600080fd5b50610304610934565b6040518080602001828103825283818151815260200191508051906020019080838360005b83811015610344578082015181840152602081019050610329565b50505050905090810190601f1680156103715780820380516001836020036101000a031916815260200191505b509250505060405180910390f35b34801561038b57600080fd5b506103946109d6565b6040518082815260200191505060405180910390f35b6103c8600480360381019080803590602001909291905050506109dc565b005b3480156103d657600080fd5b506103f560048036038101908080359060200190929190505050610b06565b6040518082815260200191505060405180910390f35b34801561041757600080fd5b5061049c600480360381019080803573ffffffffffffffffffffffffffffffffffffffff16906020019092919080359060200190929190803590602001908201803590602001908080601f0160208091040260200160405190810160405280939291908181526020018383808284378201915050505050509192919290505050610b20565b604051808215151515815260200191505060405180910390f35b3480156104c257600080fd5b506104e160048036038101908080359060200190929190505050610b57565b6040518082815260200191505060405180910390f35b34801561050357600080fd5b50610538600480360381019080803573ffffffffffffffffffffffffffffffffffffffff169060200190929190505050610b71565b005b606060028054600181600116156101000203166002900480601f0160208091040260200160405190810160405280929190818152602001828054600181600116156101000203166002900480156105d25780601f106105a7576101008083540402835291602001916105d2565b820191906000526020600020905b8154815290600101906020018083116105b557829003601f168201915b5050505050905090565b6000600554905090565b6000600460009054906101000a900460ff16905090565b600081600160003373ffffffffffffffffffffffffffffffffffffffff1673ffffffffffffffffffffffffffffffffffffffff168152602001908152602001600020541015151561064d57600080fd5b61065682610b57565b905061066d82600554610bd990919063ffffffff16565b6005819055506106c582600160003373ffffffffffffffffffffffffffffffffffffffff1673ffffffffffffffffffffffffffffffffffffffff16815260200190815260200160002054610bd990919063ffffffff16565b600160003373ffffffffffffffffffffffffffffffffffffffff1673ffffffffffffffffffffffffffffffffffffffff1681526020019081526020016000208190555061071d81600754610bd990919063ffffffff16565b6007819055503373ffffffffffffffffffffffffffffffffffffffff166108fc829081150290604051600060405180830381858888f19350505050158015610769573d6000803e3d6000fd5b507fcec1bae6e024d929f2929f3478ce70f55f9c636c8ef7b5073a61d7c3a432451b8282604051808381526020018281526020019250505060405180910390a15050565b600860009054906101000a900460ff1681565b6000600160008373ffffffffffffffffffffffffffffffffffffffff1673ffffffffffffffffffffffffffffffffffffffff168152602001908152602001600020549050919050565b600660009054906101000a900473ffffffffffffffffffffffffffffffffffffffff1673ffffffffffffffffffffffffffffffffffffffff163373ffffffffffffffffffffffffffffffffffffffff1614151561086557600080fd5b600660009054906101000a900473ffffffffffffffffffffffffffffffffffffffff1673ffffffffffffffffffffffffffffffffffffffff167ff8df31144d9c2f0f6b59d69b8b98abd5459d07f2742c4df920b25aae33c6482060405160405180910390a26000600660006101000a81548173ffffffffffffffffffffffffffffffffffffffff021916908373ffffffffffffffffffffffffffffffffffffffff160217905550565b600660009054906101000a900473ffffffffffffffffffffffffffffffffffffffff1681565b606060038054600181600116156101000203166002900480601f0160208091040260200160405190810160405280929190818152602001828054600181600116156101000203166002900480156109cc5780601f106109a1576101008083540402835291602001916109cc565b820191906000526020600020905b8154815290600101906020018083116109af57829003601f168201915b5050505050905090565b60075481565b60006109e782610b06565b90508034101515156109f857600080fd5b610a0d82600554610bf290919063ffffffff16565b600581905550610a6582600160003373ffffffffffffffffffffffffffffffffffffffff1673ffffffffffffffffffffffffffffffffffffffff16815260200190815260200160002054610bf290919063ffffffff16565b600160003373ffffffffffffffffffffffffffffffffffffffff1673ffffffffffffffffffffffffffffffffffffffff16815260200190815260200160002081905550610abd34600754610bf290919063ffffffff16565b6007819055507f8a9dcf4e150b1153011b29fec302d5be0c13e84fa8f56ab78587f778a32a90dd8234604051808381526020018281526020019250505060405180910390a15050565b6000600754610b188360055401610c0e565b039050919050565b6000610b2b84610c7a565b15610b4257610b3b848484610c8d565b9050610b50565b610b4d848484610f6a565b90505b9392505050565b6000610b668260055403610c0e565b600754039050919050565b600660009054906101000a900473ffffffffffffffffffffffffffffffffffffffff1673ffffffffffffffffffffffffffffffffffffffff163373ffffffffffffffffffffffffffffffffffffffff16141515610bcd57600080fd5b610bd68161111a565b50565b6000828211151515610be757fe5b818303905092915050565b60008183019050828110151515610c0557fe5b80905092915050565b6000806000806402540be40092506001600860009054906101000a900460ff160160ff16915081850a9050610c7083610c6283610c54868861121690919063ffffffff16565b61122c90919063ffffffff16565b61121690919063ffffffff16565b9350505050919050565b600080823b905060008111915050919050565b60008083610c9a336107c0565b1015610ca557600080fd5b610cc084610cb2336107c0565b610bd990919063ffffffff16565b600160003373ffffffffffffffffffffffffffffffffffffffff1673ffffffffffffffffffffffffffffffffffffffff16815260200190815260200160002081905550610d1e84610d10876107c0565b610bf290919063ffffffff16565b600160008773ffffffffffffffffffffffffffffffffffffffff1673ffffffffffffffffffffffffffffffffffffffff168152602001908152602001600020819055508490508073ffffffffffffffffffffffffffffffffffffffff1663c0ee0b8a3386866040518463ffffffff167c0100000000000000000000000000000000000000000000000000000000028152600401808473ffffffffffffffffffffffffffffffffffffffff1673ffffffffffffffffffffffffffffffffffffffff16815260200183815260200180602001828103825283818151815260200191508051906020019080838360005b83811015610e26578082015181840152602081019050610e0b565b50505050905090810190601f168015610e535780820380516001836020036101000a031916815260200191505b50945050505050600060405180830381600087803b158015610e7457600080fd5b505af1158015610e88573d6000803e3d6000fd5b505050508473ffffffffffffffffffffffffffffffffffffffff163373ffffffffffffffffffffffffffffffffffffffff167fe19260aff97b920c7df27010903aeb9c8d2be5d310a2c67824cf3f15396e4c1686866040518083815260200180602001828103825283818151815260200191508051906020019080838360005b83811015610f23578082015181840152602081019050610f08565b50505050905090810190601f168015610f505780820380516001836020036101000a031916815260200191505b50935050505060405180910390a360019150509392505050565b600082610f76336107c0565b1015610f8157600080fd5b610f9c83610f8e336107c0565b610bd990919063ffffffff16565b600160003373ffffffffffffffffffffffffffffffffffffffff1673ffffffffffffffffffffffffffffffffffffffff16815260200190815260200160002081905550610ffa83610fec866107c0565b610bf290919063ffffffff16565b600160008673ffffffffffffffffffffffffffffffffffffffff1673ffffffffffffffffffffffffffffffffffffffff168152602001908152602001600020819055508373ffffffffffffffffffffffffffffffffffffffff163373ffffffffffffffffffffffffffffffffffffffff167fe19260aff97b920c7df27010903aeb9c8d2be5d310a2c67824cf3f15396e4c1685856040518083815260200180602001828103825283818151815260200191508051906020019080838360005b838110156110d45780820151818401526020810190506110b9565b50505050905090810190601f1680156111015780820380516001836020036101000a031916815260200191505b50935050505060405180910390a3600190509392505050565b600073ffffffffffffffffffffffffffffffffffffffff168173ffffffffffffffffffffffffffffffffffffffff161415151561115657600080fd5b8073ffffffffffffffffffffffffffffffffffffffff16600660009054906101000a900473ffffffffffffffffffffffffffffffffffffffff1673ffffffffffffffffffffffffffffffffffffffff167f8be0079c531659141344cd1fd0a4f28419497f9722a3daafe3b4186f6b6457e060405160405180910390a380600660006101000a81548173ffffffffffffffffffffffffffffffffffffffff021916908373ffffffffffffffffffffffffffffffffffffffff16021790555050565b6000818381151561122357fe5b04905092915050565b60008083141561123f576000905061125e565b818302905081838281151561125057fe5b0414151561125a57fe5b8090505b929150505600a165627a7a72305820fca038b907f9b0c52d179bb4bbb77bf27edde1cfa718067d3fd71bf30ec363240029a165627a7a723058203ffd0572ac05f1ab71f8698e054ab962edabe8f82fa62df17a334be0d3f7c5970029",
  "source": "import \"bytes/BytesLib.sol\";\nimport \"./EthCommunityToken.sol\";\nimport \"./CommunityToken.sol\";\nimport \"./ERC20Token.sol\";\n\npragma solidity ^0.4.8;\n\ncontract CommunityTokenFactory {\n    using BytesLib for bytes;\n\n    address[] public createdTokens;\n    mapping(address => bool) public isCommunityToken;\n    EthCommunityToken public gluon;\n\n    event TokenCreated(string name, address addr);\n\n    function CommunityTokenFactory(address gluonAddress) {\n        gluon = EthCommunityToken(gluonAddress);\n    }\n\n    function tokenFallback(address _from, uint _value, bytes _data) public {\n        require(msg.sender == address(gluon));\n        bytes memory numTokens = _data.slice(0, 32);\n        bytes memory tokenData = _data.slice(32, _data.length - 32);\n\n        // create new token\n        require(address(this).call(bytes4(keccak256(\"createCommunityToken(string,uint8,string,uint8)\")), tokenData));\n        CommunityToken newToken = CommunityToken(createdTokens[createdTokens.length - 1]);\n        // mint new tokens\n        gluon.transfer(address(newToken), _value, numTokens);\n        // send minted tokens to user\n        bytes memory empty;\n        newToken.transfer(_from, numTokens.toUint(0), empty);\n    }\n\n    function createCommunityToken(string _name, uint8 _decimals, string _symbol, uint8 exponent) public returns (CommunityToken) {\n        // TODO - find correct value for reserveRatio and gasPrice, set dynamically?\n        CommunityToken newToken = new CommunityToken(_name, _decimals, _symbol, exponent, address(gluon));\n        createdTokens.push(address(newToken));\n        isCommunityToken[address(newToken)] = true;\n        emit TokenCreated(_name, address(newToken));\n        return newToken;\n    }\n\n    function createEthCommunityToken(string _name, uint8 _decimals, string _symbol, uint8 exponent) public returns (EthCommunityToken) {\n        // TODO - find correct value for reserveRatio and gasPrice, set dynamically?\n        EthCommunityToken newToken = new EthCommunityToken(_name, _decimals, _symbol, exponent);\n        createdTokens.push(address(newToken));\n        isCommunityToken[address(newToken)] = true;\n        emit TokenCreated(_name, address(newToken));\n        return newToken;\n    }\n\n    function createEthCommunityTokenAndMint(string _name, uint8 _decimals, string _symbol, uint8 exponent, uint256 numTokens) public payable returns (EthCommunityToken) {\n        EthCommunityToken newToken = createEthCommunityToken(_name, _decimals, _symbol, exponent);\n        newToken.mint.value(msg.value)(numTokens);\n        bytes memory empty;\n        newToken.transfer(msg.sender, numTokens, empty);\n        return newToken;\n    }\n\n    function createERC20Token(string _name, uint8 _decimals, string _symbol, uint256 _totalSupply)  public returns (ERC20Token) {\n        ERC20Token newToken = new ERC20Token(_name, _decimals, _symbol, _totalSupply);\n        newToken.transfer(msg.sender, _totalSupply);\n        createdTokens.push(address(newToken));\n        emit TokenCreated(_name, address(newToken));\n        return newToken;\n    }\n\n    function getNumberOfCreatedTokens() public view returns(uint256) {\n        return createdTokens.length;\n    }\n}\n",
  "sourcePath": "/Users/simonas/dev/gluon-project/gluon-contracts/contracts/CommunityTokenFactory.sol",
  "compiler": {
    "name": "solc",
    "version": "0.4.24+commit.e67f0147.Emscripten.clang"
  },
  "schemaVersion": "2.0.1",
  "updatedAt": "2018-09-19T10:22:16.412Z"
}