{
  "contractName": "CommunityTokenFactory",
  "abi": [
    {
      "constant": true,
      "inputs": [],
      "name": "gluon",
      "outputs": [
        {
          "name": "",
          "type": "address"
        }
      ],
      "payable": false,
      "stateMutability": "view",
      "type": "function"
    },
    {
      "constant": true,
      "inputs": [
        {
          "name": "",
          "type": "address"
        }
      ],
      "name": "isCommunityToken",
      "outputs": [
        {
          "name": "",
          "type": "bool"
        }
      ],
      "payable": false,
      "stateMutability": "view",
      "type": "function"
    },
    {
      "constant": true,
      "inputs": [
        {
          "name": "",
          "type": "uint256"
        }
      ],
      "name": "createdTokens",
      "outputs": [
        {
          "name": "",
          "type": "address"
        }
      ],
      "payable": false,
      "stateMutability": "view",
      "type": "function"
    },
    {
      "inputs": [
        {
          "name": "gluonAddress",
          "type": "address"
        }
      ],
      "payable": false,
      "stateMutability": "nonpayable",
      "type": "constructor"
    },
    {
      "anonymous": false,
      "inputs": [
        {
          "indexed": false,
          "name": "name",
          "type": "string"
        },
        {
          "indexed": false,
          "name": "addr",
          "type": "address"
        }
      ],
      "name": "TokenCreated",
      "type": "event"
    },
    {
      "constant": false,
      "inputs": [
        {
          "name": "_from",
          "type": "address"
        },
        {
          "name": "_value",
          "type": "uint256"
        },
        {
          "name": "_data",
          "type": "bytes"
        }
      ],
      "name": "tokenFallback",
      "outputs": [],
      "payable": false,
      "stateMutability": "nonpayable",
      "type": "function"
    },
    {
      "constant": false,
      "inputs": [
        {
          "name": "_name",
          "type": "string"
        },
        {
          "name": "_decimals",
          "type": "uint8"
        },
        {
          "name": "_symbol",
          "type": "string"
        },
        {
          "name": "exponent",
          "type": "uint8"
        }
      ],
      "name": "createCommunityToken",
      "outputs": [
        {
          "name": "",
          "type": "address"
        }
      ],
      "payable": false,
      "stateMutability": "nonpayable",
      "type": "function"
    },
    {
      "constant": false,
      "inputs": [
        {
          "name": "_name",
          "type": "string"
        },
        {
          "name": "_decimals",
          "type": "uint8"
        },
        {
          "name": "_symbol",
          "type": "string"
        },
        {
          "name": "exponent",
          "type": "uint8"
        }
      ],
      "name": "createEthCommunityToken",
      "outputs": [
        {
          "name": "",
          "type": "address"
        }
      ],
      "payable": false,
      "stateMutability": "nonpayable",
      "type": "function"
    },
    {
      "constant": false,
      "inputs": [
        {
          "name": "_name",
          "type": "string"
        },
        {
          "name": "_decimals",
          "type": "uint8"
        },
        {
          "name": "_symbol",
          "type": "string"
        },
        {
          "name": "exponent",
          "type": "uint8"
        },
        {
          "name": "numTokens",
          "type": "uint256"
        }
      ],
      "name": "createEthCommunityTokenAndMint",
      "outputs": [
        {
          "name": "",
          "type": "address"
        }
      ],
      "payable": true,
      "stateMutability": "payable",
      "type": "function"
    },
    {
      "constant": true,
      "inputs": [],
      "name": "getNumberOfCreatedTokens",
      "outputs": [
        {
          "name": "",
          "type": "uint256"
        }
      ],
      "payable": false,
      "stateMutability": "view",
      "type": "function"
    }
  ],
  "bytecode": "0x608060405234801561001057600080fd5b50604051602080613df58339810180604052810190808051906020019092919050505080600260006101000a81548173ffffffffffffffffffffffffffffffffffffffff021916908373ffffffffffffffffffffffffffffffffffffffff16021790555050613d71806100846000396000f30060806040526004361061008e576000357c0100000000000000000000000000000000000000000000000000000000900463ffffffff16806327869c57146100935780637b707e9c146100ea5780639376882014610115578063c0ee0b8a14610170578063d782d64714610203578063ea8b73df14610270578063eb28615e14610376578063f2b9541f1461047f575b600080fd5b34801561009f57600080fd5b506100a8610588565b604051808273ffffffffffffffffffffffffffffffffffffffff1673ffffffffffffffffffffffffffffffffffffffff16815260200191505060405180910390f35b3480156100f657600080fd5b506100ff6105ae565b6040518082815260200191505060405180910390f35b34801561012157600080fd5b50610156600480360381019080803573ffffffffffffffffffffffffffffffffffffffff1690602001909291905050506105ba565b604051808215151515815260200191505060405180910390f35b34801561017c57600080fd5b50610201600480360381019080803573ffffffffffffffffffffffffffffffffffffffff16906020019092919080359060200190929190803590602001908201803590602001908080601f01602080910402602001604051908101604052809392919081815260200183838082843782019150505050505091929192905050506105da565b005b34801561020f57600080fd5b5061022e60048036038101908080359060200190929190505050610ac5565b604051808273ffffffffffffffffffffffffffffffffffffffff1673ffffffffffffffffffffffffffffffffffffffff16815260200191505060405180910390f35b610334600480360381019080803590602001908201803590602001908080601f0160208091040260200160405190810160405280939291908181526020018383808284378201915050505050509192919290803560ff169060200190929190803590602001908201803590602001908080601f0160208091040260200160405190810160405280939291908181526020018383808284378201915050505050509192919290803560ff16906020019092919080359060200190929190505050610b03565b604051808273ffffffffffffffffffffffffffffffffffffffff1673ffffffffffffffffffffffffffffffffffffffff16815260200191505060405180910390f35b34801561038257600080fd5b5061043d600480360381019080803590602001908201803590602001908080601f0160208091040260200160405190810160405280939291908181526020018383808284378201915050505050509192919290803560ff169060200190929190803590602001908201803590602001908080601f0160208091040260200160405190810160405280939291908181526020018383808284378201915050505050509192919290803560ff169060200190929190505050610cf8565b604051808273ffffffffffffffffffffffffffffffffffffffff1673ffffffffffffffffffffffffffffffffffffffff16815260200191505060405180910390f35b34801561048b57600080fd5b50610546600480360381019080803590602001908201803590602001908080601f0160208091040260200160405190810160405280939291908181526020018383808284378201915050505050509192919290803560ff169060200190929190803590602001908201803590602001908080601f0160208091040260200160405190810160405280939291908181526020018383808284378201915050505050509192919290803560ff16906020019092919050505061100a565b604051808273ffffffffffffffffffffffffffffffffffffffff1673ffffffffffffffffffffffffffffffffffffffff16815260200191505060405180910390f35b600260009054906101000a900473ffffffffffffffffffffffffffffffffffffffff1681565b60008080549050905090565b60016020528060005260406000206000915054906101000a900460ff1681565b60608060006060600260009054906101000a900473ffffffffffffffffffffffffffffffffffffffff1673ffffffffffffffffffffffffffffffffffffffff163373ffffffffffffffffffffffffffffffffffffffff1614151561063d57600080fd5b61065460006020876112c69092919063ffffffff16565b935061066f602080875103876112c69092919063ffffffff16565b92503073ffffffffffffffffffffffffffffffffffffffff1660405180807f637265617465436f6d6d756e697479546f6b656e28737472696e672c75696e7481526020017f382c737472696e672c75696e7438290000000000000000000000000000000000815250602f01905060405180910390207c01000000000000000000000000000000000000000000000000000000009004846040518263ffffffff167c010000000000000000000000000000000000000000000000000000000002815260040180828051906020019080838360005b8381101561075d578082015181840152602081019050610742565b50505050905090810190601f16801561078a5780820380516001836020036101000a031916815260200191505b509150506000604051808303816000875af19250505015156107ab57600080fd5b60006001600080549050038154811015156107c257fe5b9060005260206000200160009054906101000a900473ffffffffffffffffffffffffffffffffffffffff169150600260009054906101000a900473ffffffffffffffffffffffffffffffffffffffff1673ffffffffffffffffffffffffffffffffffffffff1663be45fd628388876040518463ffffffff167c0100000000000000000000000000000000000000000000000000000000028152600401808473ffffffffffffffffffffffffffffffffffffffff1673ffffffffffffffffffffffffffffffffffffffff16815260200183815260200180602001828103825283818151815260200191508051906020019080838360005b838110156108d35780820151818401526020810190506108b8565b50505050905090810190601f1680156109005780820380516001836020036101000a031916815260200191505b50945050505050602060405180830381600087803b15801561092157600080fd5b505af1158015610935573d6000803e3d6000fd5b505050506040513d602081101561094b57600080fd5b8101908080519060200190929190505050508173ffffffffffffffffffffffffffffffffffffffff1663be45fd628861098e60008861135390919063ffffffff16565b846040518463ffffffff167c0100000000000000000000000000000000000000000000000000000000028152600401808473ffffffffffffffffffffffffffffffffffffffff1673ffffffffffffffffffffffffffffffffffffffff16815260200183815260200180602001828103825283818151815260200191508051906020019080838360005b83811015610a32578082015181840152602081019050610a17565b50505050905090810190601f168015610a5f5780820380516001836020036101000a031916815260200191505b50945050505050602060405180830381600087803b158015610a8057600080fd5b505af1158015610a94573d6000803e3d6000fd5b505050506040513d6020811015610aaa57600080fd5b81019080805190602001909291905050505050505050505050565b600081815481101515610ad457fe5b906000526020600020016000915054906101000a900473ffffffffffffffffffffffffffffffffffffffff1681565b6000806060610b148888888861100a565b91508173ffffffffffffffffffffffffffffffffffffffff1663a0712d6834866040518363ffffffff167c0100000000000000000000000000000000000000000000000000000000028152600401808281526020019150506000604051808303818588803b158015610b8557600080fd5b505af1158015610b99573d6000803e3d6000fd5b50505050508173ffffffffffffffffffffffffffffffffffffffff1663be45fd623386846040518463ffffffff167c0100000000000000000000000000000000000000000000000000000000028152600401808473ffffffffffffffffffffffffffffffffffffffff1673ffffffffffffffffffffffffffffffffffffffff16815260200183815260200180602001828103825283818151815260200191508051906020019080838360005b83811015610c60578082015181840152602081019050610c45565b50505050905090810190601f168015610c8d5780820380516001836020036101000a031916815260200191505b50945050505050602060405180830381600087803b158015610cae57600080fd5b505af1158015610cc2573d6000803e3d6000fd5b505050506040513d6020811015610cd857600080fd5b810190808051906020019092919050505050819250505095945050505050565b60008085858585600260009054906101000a900473ffffffffffffffffffffffffffffffffffffffff16610d2a61137c565b80806020018660ff1660ff168152602001806020018560ff1660ff1681526020018473ffffffffffffffffffffffffffffffffffffffff1673ffffffffffffffffffffffffffffffffffffffff168152602001838103835288818151815260200191508051906020019080838360005b83811015610db5578082015181840152602081019050610d9a565b50505050905090810190601f168015610de25780820380516001836020036101000a031916815260200191505b50838103825286818151815260200191508051906020019080838360005b83811015610e1b578082015181840152602081019050610e00565b50505050905090810190601f168015610e485780820380516001836020036101000a031916815260200191505b50975050505050505050604051809103906000f080158015610e6e573d6000803e3d6000fd5b50905060008190806001815401808255809150509060018203906000526020600020016000909192909190916101000a81548173ffffffffffffffffffffffffffffffffffffffff021916908373ffffffffffffffffffffffffffffffffffffffff1602179055505060018060008373ffffffffffffffffffffffffffffffffffffffff1673ffffffffffffffffffffffffffffffffffffffff16815260200190815260200160002060006101000a81548160ff0219169083151502179055507ffdc90d498a1602314464a0907c52c51090745809fb1655b49df42e9333129f70868260405180806020018373ffffffffffffffffffffffffffffffffffffffff1673ffffffffffffffffffffffffffffffffffffffff168152602001828103825284818151815260200191508051906020019080838360005b83811015610fc3578082015181840152602081019050610fa8565b50505050905090810190601f168015610ff05780820380516001836020036101000a031916815260200191505b50935050505060405180910390a180915050949350505050565b6000808585858561101961138d565b80806020018560ff1660ff168152602001806020018460ff1660ff168152602001838103835287818151815260200191508051906020019080838360005b83811015611072578082015181840152602081019050611057565b50505050905090810190601f16801561109f5780820380516001836020036101000a031916815260200191505b50838103825285818151815260200191508051906020019080838360005b838110156110d85780820151818401526020810190506110bd565b50505050905090810190601f1680156111055780820380516001836020036101000a031916815260200191505b509650505050505050604051809103906000f08015801561112a573d6000803e3d6000fd5b50905060008190806001815401808255809150509060018203906000526020600020016000909192909190916101000a81548173ffffffffffffffffffffffffffffffffffffffff021916908373ffffffffffffffffffffffffffffffffffffffff1602179055505060018060008373ffffffffffffffffffffffffffffffffffffffff1673ffffffffffffffffffffffffffffffffffffffff16815260200190815260200160002060006101000a81548160ff0219169083151502179055507ffdc90d498a1602314464a0907c52c51090745809fb1655b49df42e9333129f70868260405180806020018373ffffffffffffffffffffffffffffffffffffffff1673ffffffffffffffffffffffffffffffffffffffff168152602001828103825284818151815260200191508051906020019080838360005b8381101561127f578082015181840152602081019050611264565b50505050905090810190601f1680156112ac5780820380516001836020036101000a031916815260200191505b50935050505060405180910390a180915050949350505050565b6060808284018551101515156112db57600080fd5b8215600081146112f657604051915060208201604052611347565b6040519150601f8416801560200281840101858101878315602002848b0101015b818310156113345780518352602083019250602081019050611317565b50868552601f19601f8301166040525050505b50809150509392505050565b6000806020830184511015151561136957600080fd5b8260208501015190508091505092915050565b60405161168d806200139f83390190565b60405161131a8062002a2c83390190560060806040523480156200001157600080fd5b506040516200168d3803806200168d833981018060405281019080805182019291906020018051906020019092919080518201929190602001805190602001909291908051906020019092919050505033600660006101000a81548173ffffffffffffffffffffffffffffffffffffffff021916908373ffffffffffffffffffffffffffffffffffffffff1602179055508460029080519060200190620000ba92919062000156565b5083600460006101000a81548160ff021916908360ff1602179055508260039080519060200190620000ee92919062000156565b5081600960006101000a81548160ff021916908360ff16021790555080600760006101000a81548173ffffffffffffffffffffffffffffffffffffffff021916908373ffffffffffffffffffffffffffffffffffffffff160217905550505050505062000205565b828054600181600116156101000203166002900490600052602060002090601f016020900481019282601f106200019957805160ff1916838001178555620001ca565b82800160010185558215620001ca579182015b82811115620001c9578251825591602001919060010190620001ac565b5b509050620001d99190620001dd565b5090565b6200020291905b80821115620001fe576000816000905550600101620001e4565b5090565b90565b61147880620002156000396000f3006080604052600436106100db576000357c0100000000000000000000000000000000000000000000000000000000900463ffffffff16806306fdde03146100e057806318160ddd14610170578063313ce5671461019b57806352f6ee58146101cc57806370a08231146101fd5780638da5cb5b1461025457806395d89b41146102ab57806396365d441461033b578063b9d3674314610366578063be45fd62146103a7578063c0ee0b8a14610452578063c544682b146104e5578063f2fde38b14610526578063f4325d6714610569578063fe9d9303146105c0575b600080fd5b3480156100ec57600080fd5b506100f5610633565b6040518080602001828103825283818151815260200191508051906020019080838360005b8381101561013557808201518184015260208101905061011a565b50505050905090810190601f1680156101625780820380516001836020036101000a031916815260200191505b509250505060405180910390f35b34801561017c57600080fd5b506101856106d5565b6040518082815260200191505060405180910390f35b3480156101a757600080fd5b506101b06106df565b604051808260ff1660ff16815260200191505060405180910390f35b3480156101d857600080fd5b506101e16106f6565b604051808260ff1660ff16815260200191505060405180910390f35b34801561020957600080fd5b5061023e600480360381019080803573ffffffffffffffffffffffffffffffffffffffff169060200190929190505050610709565b6040518082815260200191505060405180910390f35b34801561026057600080fd5b50610269610752565b604051808273ffffffffffffffffffffffffffffffffffffffff1673ffffffffffffffffffffffffffffffffffffffff16815260200191505060405180910390f35b3480156102b757600080fd5b506102c0610778565b6040518080602001828103825283818151815260200191508051906020019080838360005b838110156103005780820151818401526020810190506102e5565b50505050905090810190601f16801561032d5780820380516001836020036101000a031916815260200191505b509250505060405180910390f35b34801561034757600080fd5b5061035061081a565b6040518082815260200191505060405180910390f35b34801561037257600080fd5b5061039160048036038101908080359060200190929190505050610820565b6040518082815260200191505060405180910390f35b3480156103b357600080fd5b50610438600480360381019080803573ffffffffffffffffffffffffffffffffffffffff16906020019092919080359060200190929190803590602001908201803590602001908080601f016020809104026020016040519081016040528093929190818152602001838380828437820191505050505050919291929050505061083a565b604051808215151515815260200191505060405180910390f35b34801561045e57600080fd5b506104e3600480360381019080803573ffffffffffffffffffffffffffffffffffffffff16906020019092919080359060200190929190803590602001908201803590602001908080601f0160208091040260200160405190810160405280939291908181526020018383808284378201915050505050509192919290505050610871565b005b3480156104f157600080fd5b50610510600480360381019080803590602001909291905050506108f6565b6040518082815260200191505060405180910390f35b34801561053257600080fd5b50610567600480360381019080803573ffffffffffffffffffffffffffffffffffffffff169060200190929190505050610910565b005b34801561057557600080fd5b5061057e610a68565b604051808273ffffffffffffffffffffffffffffffffffffffff1673ffffffffffffffffffffffffffffffffffffffff16815260200191505060405180910390f35b3480156105cc57600080fd5b5061063160048036038101908080359060200190929190803590602001908201803590602001908080601f0160208091040260200160405190810160405280939291908181526020018383808284378201915050505050509192919290505050610a8e565b005b606060028054600181600116156101000203166002900480601f0160208091040260200160405190810160405280929190818152602001828054600181600116156101000203166002900480156106cb5780601f106106a0576101008083540402835291602001916106cb565b820191906000526020600020905b8154815290600101906020018083116106ae57829003601f168201915b5050505050905090565b6000600554905090565b6000600460009054906101000a900460ff16905090565b600960009054906101000a900460ff1681565b6000600160008373ffffffffffffffffffffffffffffffffffffffff1673ffffffffffffffffffffffffffffffffffffffff168152602001908152602001600020549050919050565b600660009054906101000a900473ffffffffffffffffffffffffffffffffffffffff1681565b606060038054600181600116156101000203166002900480601f0160208091040260200160405190810160405280929190818152602001828054600181600116156101000203166002900480156108105780601f106107e557610100808354040283529160200191610810565b820191906000526020600020905b8154815290600101906020018083116107f357829003601f168201915b5050505050905090565b60085481565b60006008546108328360055401610d66565b039050919050565b600061084584610dd2565b1561085c57610855848484610de5565b905061086a565b6108678484846110c2565b90505b9392505050565b6000600760009054906101000a900473ffffffffffffffffffffffffffffffffffffffff1673ffffffffffffffffffffffffffffffffffffffff163373ffffffffffffffffffffffffffffffffffffffff161415156108cf57600080fd5b6108e360008361127290919063ffffffff16565b90506108f084848361129b565b50505050565b60006109058260055403610d66565b600854039050919050565b600660009054906101000a900473ffffffffffffffffffffffffffffffffffffffff1673ffffffffffffffffffffffffffffffffffffffff163373ffffffffffffffffffffffffffffffffffffffff1614151561096c57600080fd5b600073ffffffffffffffffffffffffffffffffffffffff168173ffffffffffffffffffffffffffffffffffffffff16141515156109a857600080fd5b8073ffffffffffffffffffffffffffffffffffffffff16600660009054906101000a900473ffffffffffffffffffffffffffffffffffffffff1673ffffffffffffffffffffffffffffffffffffffff167f8be0079c531659141344cd1fd0a4f28419497f9722a3daafe3b4186f6b6457e060405160405180910390a380600660006101000a81548173ffffffffffffffffffffffffffffffffffffffff021916908373ffffffffffffffffffffffffffffffffffffffff16021790555050565b600760009054906101000a900473ffffffffffffffffffffffffffffffffffffffff1681565b600082600160003373ffffffffffffffffffffffffffffffffffffffff1673ffffffffffffffffffffffffffffffffffffffff1681526020019081526020016000205410151515610ade57600080fd5b610ae7836108f6565b9050610afe836005546113c790919063ffffffff16565b600581905550610b5683600160003373ffffffffffffffffffffffffffffffffffffffff1673ffffffffffffffffffffffffffffffffffffffff168152602001908152602001600020546113c790919063ffffffff16565b600160003373ffffffffffffffffffffffffffffffffffffffff1673ffffffffffffffffffffffffffffffffffffffff16815260200190815260200160002081905550610bae816008546113c790919063ffffffff16565b600881905550600760009054906101000a900473ffffffffffffffffffffffffffffffffffffffff1673ffffffffffffffffffffffffffffffffffffffff1663be45fd623383856040518463ffffffff167c0100000000000000000000000000000000000000000000000000000000028152600401808473ffffffffffffffffffffffffffffffffffffffff1673ffffffffffffffffffffffffffffffffffffffff16815260200183815260200180602001828103825283818151815260200191508051906020019080838360005b83811015610c98578082015181840152602081019050610c7d565b50505050905090810190601f168015610cc55780820380516001836020036101000a031916815260200191505b50945050505050602060405180830381600087803b158015610ce657600080fd5b505af1158015610cfa573d6000803e3d6000fd5b505050506040513d6020811015610d1057600080fd5b8101908080519060200190929190505050507fcec1bae6e024d929f2929f3478ce70f55f9c636c8ef7b5073a61d7c3a432451b8382604051808381526020018281526020019250505060405180910390a1505050565b6000806000806402540be40092506001600960009054906101000a900460ff160160ff16915081850a9050610dc883610dba83610dac86886113e090919063ffffffff16565b6113fb90919063ffffffff16565b6113e090919063ffffffff16565b9350505050919050565b600080823b905060008111915050919050565b60008083610df233610709565b1015610dfd57600080fd5b610e1884610e0a33610709565b6113c790919063ffffffff16565b600160003373ffffffffffffffffffffffffffffffffffffffff1673ffffffffffffffffffffffffffffffffffffffff16815260200190815260200160002081905550610e7684610e6887610709565b61142e90919063ffffffff16565b600160008773ffffffffffffffffffffffffffffffffffffffff1673ffffffffffffffffffffffffffffffffffffffff168152602001908152602001600020819055508490508073ffffffffffffffffffffffffffffffffffffffff1663c0ee0b8a3386866040518463ffffffff167c0100000000000000000000000000000000000000000000000000000000028152600401808473ffffffffffffffffffffffffffffffffffffffff1673ffffffffffffffffffffffffffffffffffffffff16815260200183815260200180602001828103825283818151815260200191508051906020019080838360005b83811015610f7e578082015181840152602081019050610f63565b50505050905090810190601f168015610fab5780820380516001836020036101000a031916815260200191505b50945050505050600060405180830381600087803b158015610fcc57600080fd5b505af1158015610fe0573d6000803e3d6000fd5b505050508473ffffffffffffffffffffffffffffffffffffffff163373ffffffffffffffffffffffffffffffffffffffff167fe19260aff97b920c7df27010903aeb9c8d2be5d310a2c67824cf3f15396e4c1686866040518083815260200180602001828103825283818151815260200191508051906020019080838360005b8381101561107b578082015181840152602081019050611060565b50505050905090810190601f1680156110a85780820380516001836020036101000a031916815260200191505b50935050505060405180910390a360019150509392505050565b6000826110ce33610709565b10156110d957600080fd5b6110f4836110e633610709565b6113c790919063ffffffff16565b600160003373ffffffffffffffffffffffffffffffffffffffff1673ffffffffffffffffffffffffffffffffffffffff168152602001908152602001600020819055506111528361114486610709565b61142e90919063ffffffff16565b600160008673ffffffffffffffffffffffffffffffffffffffff1673ffffffffffffffffffffffffffffffffffffffff168152602001908152602001600020819055508373ffffffffffffffffffffffffffffffffffffffff163373ffffffffffffffffffffffffffffffffffffffff167fe19260aff97b920c7df27010903aeb9c8d2be5d310a2c67824cf3f15396e4c1685856040518083815260200180602001828103825283818151815260200191508051906020019080838360005b8381101561122c578082015181840152602081019050611211565b50505050905090810190601f1680156112595780820380516001836020036101000a031916815260200191505b50935050505060405180910390a3600190509392505050565b6000806020830184511015151561128857600080fd5b8260208501015190508091505092915050565b60006112a682610820565b90508083101515156112b757600080fd5b6112cc8260055461142e90919063ffffffff16565b60058190555061132482600160008773ffffffffffffffffffffffffffffffffffffffff1673ffffffffffffffffffffffffffffffffffffffff1681526020019081526020016000205461142e90919063ffffffff16565b600160008673ffffffffffffffffffffffffffffffffffffffff1673ffffffffffffffffffffffffffffffffffffffff1681526020019081526020016000208190555061137c8360085461142e90919063ffffffff16565b6008819055507f8a9dcf4e150b1153011b29fec302d5be0c13e84fa8f56ab78587f778a32a90dd8284604051808381526020018281526020019250505060405180910390a150505050565b60008282111515156113d557fe5b818303905092915050565b60008082848115156113ee57fe5b0490508091505092915050565b6000808284029050600084148061141c575082848281151561141957fe5b04145b151561142457fe5b8091505092915050565b600080828401905083811015151561144257fe5b80915050929150505600a165627a7a72305820e53611edab6cbf676cca3c2bbee88a2de270ccd02e12e9f0a18cc28dfc87b659002960806040526040516200131a3803806200131a8339810180604052810190808051820192919060200180519060200190929190805182019291906020018051906020019092919050505033600660006101000a81548173ffffffffffffffffffffffffffffffffffffffff021916908373ffffffffffffffffffffffffffffffffffffffff1602179055508360029080519060200190620000a2929190620000fc565b5082600460006101000a81548160ff021916908360ff1602179055508160039080519060200190620000d6929190620000fc565b5080600860006101000a81548160ff021916908360ff16021790555050505050620001ab565b828054600181600116156101000203166002900490600052602060002090601f016020900481019282601f106200013f57805160ff191683800117855562000170565b8280016001018555821562000170579182015b828111156200016f57825182559160200191906001019062000152565b5b5090506200017f919062000183565b5090565b620001a891905b80821115620001a45760008160009055506001016200018a565b5090565b90565b61115f80620001bb6000396000f3006080604052600436106100d0576000357c0100000000000000000000000000000000000000000000000000000000900463ffffffff16806306fdde03146100d557806318160ddd14610165578063313ce5671461019057806342966c68146101c157806352f6ee58146101ee57806370a082311461021f5780638da5cb5b1461027657806395d89b41146102cd57806396365d441461035d578063a0712d6814610388578063b9d36743146103a8578063be45fd62146103e9578063c544682b14610494578063f2fde38b146104d5575b600080fd5b3480156100e157600080fd5b506100ea610518565b6040518080602001828103825283818151815260200191508051906020019080838360005b8381101561012a57808201518184015260208101905061010f565b50505050905090810190601f1680156101575780820380516001836020036101000a031916815260200191505b509250505060405180910390f35b34801561017157600080fd5b5061017a6105ba565b6040518082815260200191505060405180910390f35b34801561019c57600080fd5b506101a56105c4565b604051808260ff1660ff16815260200191505060405180910390f35b3480156101cd57600080fd5b506101ec600480360381019080803590602001909291905050506105db565b005b3480156101fa57600080fd5b5061020361078b565b604051808260ff1660ff16815260200191505060405180910390f35b34801561022b57600080fd5b50610260600480360381019080803573ffffffffffffffffffffffffffffffffffffffff16906020019092919050505061079e565b6040518082815260200191505060405180910390f35b34801561028257600080fd5b5061028b6107e7565b604051808273ffffffffffffffffffffffffffffffffffffffff1673ffffffffffffffffffffffffffffffffffffffff16815260200191505060405180910390f35b3480156102d957600080fd5b506102e261080d565b6040518080602001828103825283818151815260200191508051906020019080838360005b83811015610322578082015181840152602081019050610307565b50505050905090810190601f16801561034f5780820380516001836020036101000a031916815260200191505b509250505060405180910390f35b34801561036957600080fd5b506103726108af565b6040518082815260200191505060405180910390f35b6103a6600480360381019080803590602001909291905050506108b5565b005b3480156103b457600080fd5b506103d3600480360381019080803590602001909291905050506109df565b6040518082815260200191505060405180910390f35b3480156103f557600080fd5b5061047a600480360381019080803573ffffffffffffffffffffffffffffffffffffffff16906020019092919080359060200190929190803590602001908201803590602001908080601f01602080910402602001604051908101604052809392919081815260200183838082843782019150505050505091929192905050506109f9565b604051808215151515815260200191505060405180910390f35b3480156104a057600080fd5b506104bf60048036038101908080359060200190929190505050610a30565b6040518082815260200191505060405180910390f35b3480156104e157600080fd5b50610516600480360381019080803573ffffffffffffffffffffffffffffffffffffffff169060200190929190505050610a4a565b005b606060028054600181600116156101000203166002900480601f0160208091040260200160405190810160405280929190818152602001828054600181600116156101000203166002900480156105b05780601f10610585576101008083540402835291602001916105b0565b820191906000526020600020905b81548152906001019060200180831161059357829003601f168201915b5050505050905090565b6000600554905090565b6000600460009054906101000a900460ff16905090565b600081600160003373ffffffffffffffffffffffffffffffffffffffff1673ffffffffffffffffffffffffffffffffffffffff168152602001908152602001600020541015151561062b57600080fd5b61063482610a30565b905061064b82600554610ba290919063ffffffff16565b6005819055506106a382600160003373ffffffffffffffffffffffffffffffffffffffff1673ffffffffffffffffffffffffffffffffffffffff16815260200190815260200160002054610ba290919063ffffffff16565b600160003373ffffffffffffffffffffffffffffffffffffffff1673ffffffffffffffffffffffffffffffffffffffff168152602001908152602001600020819055506106fb81600754610ba290919063ffffffff16565b6007819055503373ffffffffffffffffffffffffffffffffffffffff166108fc829081150290604051600060405180830381858888f19350505050158015610747573d6000803e3d6000fd5b507fcec1bae6e024d929f2929f3478ce70f55f9c636c8ef7b5073a61d7c3a432451b8282604051808381526020018281526020019250505060405180910390a15050565b600860009054906101000a900460ff1681565b6000600160008373ffffffffffffffffffffffffffffffffffffffff1673ffffffffffffffffffffffffffffffffffffffff168152602001908152602001600020549050919050565b600660009054906101000a900473ffffffffffffffffffffffffffffffffffffffff1681565b606060038054600181600116156101000203166002900480601f0160208091040260200160405190810160405280929190818152602001828054600181600116156101000203166002900480156108a55780601f1061087a576101008083540402835291602001916108a5565b820191906000526020600020905b81548152906001019060200180831161088857829003601f168201915b5050505050905090565b60075481565b60006108c0826109df565b90508034101515156108d157600080fd5b6108e682600554610bbb90919063ffffffff16565b60058190555061093e82600160003373ffffffffffffffffffffffffffffffffffffffff1673ffffffffffffffffffffffffffffffffffffffff16815260200190815260200160002054610bbb90919063ffffffff16565b600160003373ffffffffffffffffffffffffffffffffffffffff1673ffffffffffffffffffffffffffffffffffffffff1681526020019081526020016000208190555061099634600754610bbb90919063ffffffff16565b6007819055507f8a9dcf4e150b1153011b29fec302d5be0c13e84fa8f56ab78587f778a32a90dd8234604051808381526020018281526020019250505060405180910390a15050565b60006007546109f18360055401610bd9565b039050919050565b6000610a0484610c45565b15610a1b57610a14848484610c58565b9050610a29565b610a26848484610f35565b90505b9392505050565b6000610a3f8260055403610bd9565b600754039050919050565b600660009054906101000a900473ffffffffffffffffffffffffffffffffffffffff1673ffffffffffffffffffffffffffffffffffffffff163373ffffffffffffffffffffffffffffffffffffffff16141515610aa657600080fd5b600073ffffffffffffffffffffffffffffffffffffffff168173ffffffffffffffffffffffffffffffffffffffff1614151515610ae257600080fd5b8073ffffffffffffffffffffffffffffffffffffffff16600660009054906101000a900473ffffffffffffffffffffffffffffffffffffffff1673ffffffffffffffffffffffffffffffffffffffff167f8be0079c531659141344cd1fd0a4f28419497f9722a3daafe3b4186f6b6457e060405160405180910390a380600660006101000a81548173ffffffffffffffffffffffffffffffffffffffff021916908373ffffffffffffffffffffffffffffffffffffffff16021790555050565b6000828211151515610bb057fe5b818303905092915050565b6000808284019050838110151515610bcf57fe5b8091505092915050565b6000806000806402540be40092506001600860009054906101000a900460ff160160ff16915081850a9050610c3b83610c2d83610c1f86886110e590919063ffffffff16565b61110090919063ffffffff16565b6110e590919063ffffffff16565b9350505050919050565b600080823b905060008111915050919050565b60008083610c653361079e565b1015610c7057600080fd5b610c8b84610c7d3361079e565b610ba290919063ffffffff16565b600160003373ffffffffffffffffffffffffffffffffffffffff1673ffffffffffffffffffffffffffffffffffffffff16815260200190815260200160002081905550610ce984610cdb8761079e565b610bbb90919063ffffffff16565b600160008773ffffffffffffffffffffffffffffffffffffffff1673ffffffffffffffffffffffffffffffffffffffff168152602001908152602001600020819055508490508073ffffffffffffffffffffffffffffffffffffffff1663c0ee0b8a3386866040518463ffffffff167c0100000000000000000000000000000000000000000000000000000000028152600401808473ffffffffffffffffffffffffffffffffffffffff1673ffffffffffffffffffffffffffffffffffffffff16815260200183815260200180602001828103825283818151815260200191508051906020019080838360005b83811015610df1578082015181840152602081019050610dd6565b50505050905090810190601f168015610e1e5780820380516001836020036101000a031916815260200191505b50945050505050600060405180830381600087803b158015610e3f57600080fd5b505af1158015610e53573d6000803e3d6000fd5b505050508473ffffffffffffffffffffffffffffffffffffffff163373ffffffffffffffffffffffffffffffffffffffff167fe19260aff97b920c7df27010903aeb9c8d2be5d310a2c67824cf3f15396e4c1686866040518083815260200180602001828103825283818151815260200191508051906020019080838360005b83811015610eee578082015181840152602081019050610ed3565b50505050905090810190601f168015610f1b5780820380516001836020036101000a031916815260200191505b50935050505060405180910390a360019150509392505050565b600082610f413361079e565b1015610f4c57600080fd5b610f6783610f593361079e565b610ba290919063ffffffff16565b600160003373ffffffffffffffffffffffffffffffffffffffff1673ffffffffffffffffffffffffffffffffffffffff16815260200190815260200160002081905550610fc583610fb78661079e565b610bbb90919063ffffffff16565b600160008673ffffffffffffffffffffffffffffffffffffffff1673ffffffffffffffffffffffffffffffffffffffff168152602001908152602001600020819055508373ffffffffffffffffffffffffffffffffffffffff163373ffffffffffffffffffffffffffffffffffffffff167fe19260aff97b920c7df27010903aeb9c8d2be5d310a2c67824cf3f15396e4c1685856040518083815260200180602001828103825283818151815260200191508051906020019080838360005b8381101561109f578082015181840152602081019050611084565b50505050905090810190601f1680156110cc5780820380516001836020036101000a031916815260200191505b50935050505060405180910390a3600190509392505050565b60008082848115156110f357fe5b0490508091505092915050565b60008082840290506000841480611121575082848281151561111e57fe5b04145b151561112957fe5b80915050929150505600a165627a7a72305820918923a61fdadd16e538e54ddb87ac0fc300f81e293c55cdb81237a8b262ed690029a165627a7a72305820684abdec095f2257a68b4ce7249257de165013415eb5727da0798b5c59f2967b0029",
  "source": "import \"bytes/BytesLib.sol\";\nimport \"./EthCommunityToken.sol\";\nimport \"./CommunityToken.sol\";\n\npragma solidity ^0.4.8;\n\ncontract CommunityTokenFactory {\n    using BytesLib for bytes;\n\n    address[] public createdTokens;\n    mapping(address => bool) public isCommunityToken;\n    EthCommunityToken public gluon;\n\n    event TokenCreated(string name, address addr);\n\n    function CommunityTokenFactory(address gluonAddress) {\n        gluon = EthCommunityToken(gluonAddress);\n    }\n\n    function tokenFallback(address _from, uint _value, bytes _data) public {\n        require(msg.sender == address(gluon));\n        bytes memory numTokens = _data.slice(0, 32);\n        bytes memory tokenData = _data.slice(32, _data.length - 32);\n\n        // create new token\n        require(address(this).call(bytes4(keccak256(\"createCommunityToken(string,uint8,string,uint8)\")), tokenData));\n        CommunityToken newToken = CommunityToken(createdTokens[createdTokens.length - 1]);\n        // mint new tokens\n        gluon.transfer(address(newToken), _value, numTokens);\n        // send minted tokens to user\n        bytes memory empty;\n        newToken.transfer(_from, numTokens.toUint(0), empty);\n    }\n\n    function createCommunityToken(string _name, uint8 _decimals, string _symbol, uint8 exponent) public returns (CommunityToken) {\n        // TODO - find correct value for reserveRatio and gasPrice, set dynamically?\n        CommunityToken newToken = new CommunityToken(_name, _decimals, _symbol, exponent, address(gluon));\n        createdTokens.push(address(newToken));\n        isCommunityToken[address(newToken)] = true;\n        emit TokenCreated(_name, address(newToken));\n        return newToken;\n    }\n\n    function createEthCommunityToken(string _name, uint8 _decimals, string _symbol, uint8 exponent) public returns (EthCommunityToken) {\n        // TODO - find correct value for reserveRatio and gasPrice, set dynamically?\n        EthCommunityToken newToken = new EthCommunityToken(_name, _decimals, _symbol, exponent);\n        createdTokens.push(address(newToken));\n        isCommunityToken[address(newToken)] = true;\n        emit TokenCreated(_name, address(newToken));\n        return newToken;\n    }\n\n    function createEthCommunityTokenAndMint(string _name, uint8 _decimals, string _symbol, uint8 exponent, uint256 numTokens) public payable returns (EthCommunityToken) {\n        EthCommunityToken newToken = createEthCommunityToken(_name, _decimals, _symbol, exponent);\n        newToken.mint.value(msg.value)(numTokens);\n        bytes memory empty;\n        newToken.transfer(msg.sender, numTokens, empty);\n        return newToken;\n    }\n\n    function getNumberOfCreatedTokens() public view returns(uint256) {\n        return createdTokens.length;\n    }\n}\n",
  "sourcePath": "/Users/oed/uport/gluon-contracts/contracts/CommunityTokenFactory.sol",
  "compiler": {
    "name": "solc",
    "version": "0.4.24+commit.e67f0147.Emscripten.clang"
  },
  "schemaVersion": "2.0.1",
  "updatedAt": "2018-08-17T11:26:40.860Z"
}