{
  "contractName": "CommunityTokenFactory",
  "abi": [
    {
      "constant": true,
      "inputs": [],
      "name": "gluon",
      "outputs": [
        {
          "name": "",
          "type": "address"
        }
      ],
      "payable": false,
      "stateMutability": "view",
      "type": "function"
    },
    {
      "constant": true,
      "inputs": [
        {
          "name": "",
          "type": "address"
        },
        {
          "name": "",
          "type": "uint256"
        }
      ],
      "name": "created",
      "outputs": [
        {
          "name": "",
          "type": "address"
        }
      ],
      "payable": false,
      "stateMutability": "view",
      "type": "function"
    },
    {
      "constant": true,
      "inputs": [
        {
          "name": "",
          "type": "address"
        }
      ],
      "name": "isCommunityToken",
      "outputs": [
        {
          "name": "",
          "type": "bool"
        }
      ],
      "payable": false,
      "stateMutability": "view",
      "type": "function"
    },
    {
      "inputs": [
        {
          "name": "gluonAddress",
          "type": "address"
        }
      ],
      "payable": false,
      "stateMutability": "nonpayable",
      "type": "constructor"
    },
    {
      "anonymous": false,
      "inputs": [
        {
          "indexed": false,
          "name": "name",
          "type": "string"
        },
        {
          "indexed": false,
          "name": "addr",
          "type": "address"
        }
      ],
      "name": "TokenCreated",
      "type": "event"
    },
    {
      "constant": false,
      "inputs": [
        {
          "name": "_from",
          "type": "address"
        },
        {
          "name": "_value",
          "type": "uint256"
        },
        {
          "name": "_data",
          "type": "bytes"
        }
      ],
      "name": "tokenFallback",
      "outputs": [],
      "payable": false,
      "stateMutability": "nonpayable",
      "type": "function"
    }
  ],
  "bytecode": "0x6060604052341561000f57600080fd5b6040516020806108e78339810160405280805190602001909190505080600260006101000a81548173ffffffffffffffffffffffffffffffffffffffff021916908373ffffffffffffffffffffffffffffffffffffffff1602179055505061086b8061007c6000396000f300606060405260043610610062576000357c0100000000000000000000000000000000000000000000000000000000900463ffffffff16806327869c57146100675780635f8dead3146100bc578063937688201461013e578063c0ee0b8a1461018f575b600080fd5b341561007257600080fd5b61007a610214565b604051808273ffffffffffffffffffffffffffffffffffffffff1673ffffffffffffffffffffffffffffffffffffffff16815260200191505060405180910390f35b34156100c757600080fd5b6100fc600480803573ffffffffffffffffffffffffffffffffffffffff1690602001909190803590602001909190505061023a565b604051808273ffffffffffffffffffffffffffffffffffffffff1673ffffffffffffffffffffffffffffffffffffffff16815260200191505060405180910390f35b341561014957600080fd5b610175600480803573ffffffffffffffffffffffffffffffffffffffff16906020019091905050610288565b604051808215151515815260200191505060405180910390f35b341561019a57600080fd5b610212600480803573ffffffffffffffffffffffffffffffffffffffff1690602001909190803590602001909190803590602001908201803590602001908080601f016020809104026020016040519081016040528093929190818152602001838380828437820191505050505050919050506102a8565b005b600260009054906101000a900473ffffffffffffffffffffffffffffffffffffffff1681565b60006020528160005260406000208181548110151561025557fe5b90600052602060002090016000915091509054906101000a900473ffffffffffffffffffffffffffffffffffffffff1681565b60016020528060005260406000206000915054906101000a900460ff1681565b6102b061082b565b6102b861082b565b6000806102c361082b565b600260009054906101000a900473ffffffffffffffffffffffffffffffffffffffff1673ffffffffffffffffffffffffffffffffffffffff163373ffffffffffffffffffffffffffffffffffffffff1614151561031f57600080fd5b61033660006020886107689092919063ffffffff16565b945061034f60208751886107689092919063ffffffff16565b93503073ffffffffffffffffffffffffffffffffffffffff1660405180807f637265617465436f6d6d756e697479546f6b656e000000000000000000000000815250601401905060405180910390207c01000000000000000000000000000000000000000000000000000000009004856040518263ffffffff167c010000000000000000000000000000000000000000000000000000000002815260040180828051906020019080838360005b838110156104175780820151818401526020810190506103fc565b50505050905090810190601f1680156104445780820380516001836020036101000a031916815260200191505b509150506000604051808303816000875af192505050506000803373ffffffffffffffffffffffffffffffffffffffff1673ffffffffffffffffffffffffffffffffffffffff16815260200190815260200160002092508283805490508154811015156104ad57fe5b906000526020600020900160009054906101000a900473ffffffffffffffffffffffffffffffffffffffff169150600260009054906101000a900473ffffffffffffffffffffffffffffffffffffffff1673ffffffffffffffffffffffffffffffffffffffff1663be45fd628389886040518463ffffffff167c0100000000000000000000000000000000000000000000000000000000028152600401808473ffffffffffffffffffffffffffffffffffffffff1673ffffffffffffffffffffffffffffffffffffffff16815260200183815260200180602001828103825283818151815260200191508051906020019080838360005b838110156105bf5780820151818401526020810190506105a4565b50505050905090810190601f1680156105ec5780820380516001836020036101000a031916815260200191505b50945050505050602060405180830381600087803b151561060c57600080fd5b5af1151561061957600080fd5b50505060405180519050508173ffffffffffffffffffffffffffffffffffffffff1663be45fd628961065560008961080290919063ffffffff16565b846040518463ffffffff167c0100000000000000000000000000000000000000000000000000000000028152600401808473ffffffffffffffffffffffffffffffffffffffff1673ffffffffffffffffffffffffffffffffffffffff16815260200183815260200180602001828103825283818151815260200191508051906020019080838360005b838110156106f95780820151818401526020810190506106de565b50505050905090810190601f1680156107265780820380516001836020036101000a031916815260200191505b50945050505050602060405180830381600087803b151561074657600080fd5b5af1151561075357600080fd5b50505060405180519050505050505050505050565b61077061082b565b61077861082b565b82840185511015151561078a57600080fd5b8215600081146107a5576040519150602082016040526107f6565b6040519150601f8416801560200281840101858101878315602002848b0101015b818310156107e357805183526020830192506020810190506107c6565b50868552601f19601f8301166040525050505b50809150509392505050565b6000806020830184511015151561081857600080fd5b8260208501015190508091505092915050565b6020604051908101604052806000815250905600a165627a7a723058203b2ac4df1275f85b2e471ace3f4bbe1a806c5ece25e083483237d043b4fd73c00029",
  "source": "import \"bytes/BytesLib.sol\";\nimport \"./GluonToken.sol\";\nimport \"./CommunityToken.sol\";\n\npragma solidity ^0.4.8;\n\ncontract CommunityTokenFactory {\n    using BytesLib for bytes;\n\n    mapping(address => address[]) public created;\n    mapping(address => bool) public isCommunityToken;\n    GluonToken public gluon;\n\n    event TokenCreated(string name, address addr);\n\n    function CommunityTokenFactory(address gluonAddress) {\n        gluon = GluonToken(gluonAddress);\n    }\n\n    function tokenFallback(address _from, uint _value, bytes _data) public {\n        require(msg.sender == address(gluon));\n        bytes memory numTokens = _data.slice(0, 32);\n        /*bytes memory tokenData = _data.slice(32, _data.length);*/\n        bytes memory tokenData = _data.slice(32, _data.length);\n\n        // create new token\n        address(this).call(bytes4(keccak256(\"createCommunityToken\")), tokenData);\n        address[] contracts = created[msg.sender];\n        CommunityToken newToken = CommunityToken(contracts[contracts.length]);\n        // mint new tokens\n        gluon.transfer(address(newToken), _value, numTokens);\n        // send minted tokens to user\n        bytes memory empty;\n        newToken.transfer(_from, numTokens.toUint(0), empty);\n    }\n\n    function createCommunityToken(string _name, uint8 _decimals, string _symbol, uint8 exponent) internal returns (CommunityToken) {\n        // TODO - find correct value for reserveRatio and gasPrice, set dynamically?\n        CommunityToken newToken = new CommunityToken(_name, _decimals, _symbol, exponent, address(gluon));\n        created[msg.sender].push(address(newToken));\n        isCommunityToken[address(newToken)] = true;\n        emit TokenCreated(_name, address(newToken));\n        return newToken;\n    }\n\n    /*function createWithEther(string _name, uint8 _decimals, string _symbol) public payable {*/\n        /*CommunityToken newToken = this.createCommunityToken(_name, _decimals, _symbol);*/\n        /*// buy gluons*/\n        /*gluon.buy.value(msg.value)();*/\n        /*// buy new token*/\n        /*uint gluonBalance = gluon.balances[address(this)];*/\n        /*gluon.transfer(address(newToken), gluonBalance, 0x0);*/\n        /*// send minted tokens to user*/\n        /*uint newTokenBalance = newToken.balances[address(this)];*/\n        /*newToken.transfer(_from, newTokenBalance, 0x0);*/\n    /*}*/\n}\n",
  "sourcePath": "/home/oed/uport/gluon-contracts/contracts/CommunityTokenFactory.sol",
  "compiler": {
    "name": "solc",
    "version": "0.4.21+commit.dfe3193c.Emscripten.clang"
  },
  "schemaVersion": "2.0.0",
  "updatedAt": "2018-05-02T07:10:44.621Z"
}