{
  "contractName": "CommunityToken",
  "abi": [
    {
      "constant": true,
      "inputs": [],
      "name": "name",
      "outputs": [
        {
          "name": "_name",
          "type": "string"
        }
      ],
      "payable": false,
      "stateMutability": "view",
      "type": "function"
    },
    {
      "constant": true,
      "inputs": [],
      "name": "totalSupply",
      "outputs": [
        {
          "name": "_totalSupply",
          "type": "uint256"
        }
      ],
      "payable": false,
      "stateMutability": "view",
      "type": "function"
    },
    {
      "constant": true,
      "inputs": [],
      "name": "decimals",
      "outputs": [
        {
          "name": "_decimals",
          "type": "uint8"
        }
      ],
      "payable": false,
      "stateMutability": "view",
      "type": "function"
    },
    {
      "constant": true,
      "inputs": [],
      "name": "exponent",
      "outputs": [
        {
          "name": "",
          "type": "uint8"
        }
      ],
      "payable": false,
      "stateMutability": "view",
      "type": "function"
    },
    {
      "constant": true,
      "inputs": [
        {
          "name": "_owner",
          "type": "address"
        }
      ],
      "name": "balanceOf",
      "outputs": [
        {
          "name": "balance",
          "type": "uint256"
        }
      ],
      "payable": false,
      "stateMutability": "view",
      "type": "function"
    },
    {
      "constant": true,
      "inputs": [],
      "name": "owner",
      "outputs": [
        {
          "name": "",
          "type": "address"
        }
      ],
      "payable": false,
      "stateMutability": "view",
      "type": "function"
    },
    {
      "constant": true,
      "inputs": [],
      "name": "symbol",
      "outputs": [
        {
          "name": "_symbol",
          "type": "string"
        }
      ],
      "payable": false,
      "stateMutability": "view",
      "type": "function"
    },
    {
      "constant": true,
      "inputs": [],
      "name": "poolBalance",
      "outputs": [
        {
          "name": "",
          "type": "uint256"
        }
      ],
      "payable": false,
      "stateMutability": "view",
      "type": "function"
    },
    {
      "constant": false,
      "inputs": [
        {
          "name": "_to",
          "type": "address"
        },
        {
          "name": "_value",
          "type": "uint256"
        },
        {
          "name": "_data",
          "type": "bytes"
        }
      ],
      "name": "transfer",
      "outputs": [
        {
          "name": "success",
          "type": "bool"
        }
      ],
      "payable": false,
      "stateMutability": "nonpayable",
      "type": "function"
    },
    {
      "constant": false,
      "inputs": [
        {
          "name": "newOwner",
          "type": "address"
        }
      ],
      "name": "transferOwnership",
      "outputs": [],
      "payable": false,
      "stateMutability": "nonpayable",
      "type": "function"
    },
    {
      "constant": true,
      "inputs": [],
      "name": "reserveToken",
      "outputs": [
        {
          "name": "",
          "type": "address"
        }
      ],
      "payable": false,
      "stateMutability": "view",
      "type": "function"
    },
    {
      "inputs": [
        {
          "name": "_tokenName",
          "type": "string"
        },
        {
          "name": "_decimalUnits",
          "type": "uint8"
        },
        {
          "name": "_tokenSymbol",
          "type": "string"
        },
        {
          "name": "_exponent",
          "type": "uint8"
        },
        {
          "name": "_reserveToken",
          "type": "address"
        }
      ],
      "payable": false,
      "stateMutability": "nonpayable",
      "type": "constructor"
    },
    {
      "anonymous": false,
      "inputs": [
        {
          "indexed": false,
          "name": "amount",
          "type": "uint256"
        },
        {
          "indexed": false,
          "name": "totalCost",
          "type": "uint256"
        }
      ],
      "name": "Minted",
      "type": "event"
    },
    {
      "anonymous": false,
      "inputs": [
        {
          "indexed": false,
          "name": "amount",
          "type": "uint256"
        },
        {
          "indexed": false,
          "name": "reward",
          "type": "uint256"
        }
      ],
      "name": "Burned",
      "type": "event"
    },
    {
      "anonymous": false,
      "inputs": [
        {
          "indexed": true,
          "name": "previousOwner",
          "type": "address"
        },
        {
          "indexed": true,
          "name": "newOwner",
          "type": "address"
        }
      ],
      "name": "OwnershipTransferred",
      "type": "event"
    },
    {
      "anonymous": false,
      "inputs": [
        {
          "indexed": true,
          "name": "from",
          "type": "address"
        },
        {
          "indexed": true,
          "name": "to",
          "type": "address"
        },
        {
          "indexed": false,
          "name": "value",
          "type": "uint256"
        },
        {
          "indexed": false,
          "name": "data",
          "type": "bytes"
        }
      ],
      "name": "Transfer",
      "type": "event"
    },
    {
      "constant": false,
      "inputs": [
        {
          "name": "_from",
          "type": "address"
        },
        {
          "name": "_value",
          "type": "uint256"
        },
        {
          "name": "_data",
          "type": "bytes"
        }
      ],
      "name": "tokenFallback",
      "outputs": [],
      "payable": false,
      "stateMutability": "nonpayable",
      "type": "function"
    },
    {
      "constant": false,
      "inputs": [
        {
          "name": "numTokens",
          "type": "uint256"
        }
      ],
      "name": "priceToMint",
      "outputs": [
        {
          "name": "",
          "type": "uint256"
        }
      ],
      "payable": false,
      "stateMutability": "nonpayable",
      "type": "function"
    },
    {
      "constant": false,
      "inputs": [
        {
          "name": "numTokens",
          "type": "uint256"
        }
      ],
      "name": "rewardForBurn",
      "outputs": [
        {
          "name": "",
          "type": "uint256"
        }
      ],
      "payable": false,
      "stateMutability": "nonpayable",
      "type": "function"
    },
    {
      "constant": false,
      "inputs": [
        {
          "name": "numTokens",
          "type": "uint256"
        },
        {
          "name": "_data",
          "type": "bytes"
        }
      ],
      "name": "burn",
      "outputs": [],
      "payable": false,
      "stateMutability": "nonpayable",
      "type": "function"
    }
  ],
  "bytecode": "0x606060405234156200001057600080fd5b60405162001612380380620016128339810160405280805182019190602001805190602001909190805182019190602001805190602001909190805190602001909190505033600660006101000a81548173ffffffffffffffffffffffffffffffffffffffff021916908373ffffffffffffffffffffffffffffffffffffffff1602179055508460029080519060200190620000ae9291906200014a565b5083600460006101000a81548160ff021916908360ff1602179055508260039080519060200190620000e29291906200014a565b5081600960006101000a81548160ff021916908360ff16021790555080600760006101000a81548173ffffffffffffffffffffffffffffffffffffffff021916908373ffffffffffffffffffffffffffffffffffffffff1602179055505050505050620001f9565b828054600181600116156101000203166002900490600052602060002090601f016020900481019282601f106200018d57805160ff1916838001178555620001be565b82800160010185558215620001be579182015b82811115620001bd578251825591602001919060010190620001a0565b5b509050620001cd9190620001d1565b5090565b620001f691905b80821115620001f2576000816000905550600101620001d8565b5090565b90565b61140980620002096000396000f3006060604052600436106100db576000357c0100000000000000000000000000000000000000000000000000000000900463ffffffff16806306fdde03146100e057806318160ddd1461016e578063313ce5671461019757806352f6ee58146101c657806370a08231146101f55780638da5cb5b1461024257806395d89b411461029757806396365d4414610325578063b9d367431461034e578063be45fd6214610385578063c0ee0b8a14610422578063c544682b146104a7578063f2fde38b146104de578063f4325d6714610517578063fe9d93031461056c575b600080fd5b34156100eb57600080fd5b6100f36105d2565b6040518080602001828103825283818151815260200191508051906020019080838360005b83811015610133578082015181840152602081019050610118565b50505050905090810190601f1680156101605780820380516001836020036101000a031916815260200191505b509250505060405180910390f35b341561017957600080fd5b61018161067a565b6040518082815260200191505060405180910390f35b34156101a257600080fd5b6101aa610684565b604051808260ff1660ff16815260200191505060405180910390f35b34156101d157600080fd5b6101d961069b565b604051808260ff1660ff16815260200191505060405180910390f35b341561020057600080fd5b61022c600480803573ffffffffffffffffffffffffffffffffffffffff169060200190919050506106ae565b6040518082815260200191505060405180910390f35b341561024d57600080fd5b6102556106f7565b604051808273ffffffffffffffffffffffffffffffffffffffff1673ffffffffffffffffffffffffffffffffffffffff16815260200191505060405180910390f35b34156102a257600080fd5b6102aa61071d565b6040518080602001828103825283818151815260200191508051906020019080838360005b838110156102ea5780820151818401526020810190506102cf565b50505050905090810190601f1680156103175780820380516001836020036101000a031916815260200191505b509250505060405180910390f35b341561033057600080fd5b6103386107c5565b6040518082815260200191505060405180910390f35b341561035957600080fd5b61036f60048080359060200190919050506107cb565b6040518082815260200191505060405180910390f35b341561039057600080fd5b610408600480803573ffffffffffffffffffffffffffffffffffffffff1690602001909190803590602001909190803590602001908201803590602001908080601f016020809104026020016040519081016040528093929190818152602001838380828437820191505050505050919050506107e5565b604051808215151515815260200191505060405180910390f35b341561042d57600080fd5b6104a5600480803573ffffffffffffffffffffffffffffffffffffffff1690602001909190803590602001909190803590602001908201803590602001908080601f0160208091040260200160405190810160405280939291908181526020018383808284378201915050505050509190505061081c565b005b34156104b257600080fd5b6104c860048080359060200190919050506108a1565b6040518082815260200191505060405180910390f35b34156104e957600080fd5b610515600480803573ffffffffffffffffffffffffffffffffffffffff169060200190919050506108bb565b005b341561052257600080fd5b61052a610a13565b604051808273ffffffffffffffffffffffffffffffffffffffff1673ffffffffffffffffffffffffffffffffffffffff16815260200191505060405180910390f35b341561057757600080fd5b6105d0600480803590602001909190803590602001908201803590602001908080601f01602080910402602001604051908101604052809392919081815260200183838082843782019150505050505091905050610a39565b005b6105da6113c9565b60028054600181600116156101000203166002900480601f0160208091040260200160405190810160405280929190818152602001828054600181600116156101000203166002900480156106705780601f1061064557610100808354040283529160200191610670565b820191906000526020600020905b81548152906001019060200180831161065357829003601f168201915b5050505050905090565b6000600554905090565b6000600460009054906101000a900460ff16905090565b600960009054906101000a900460ff1681565b6000600160008373ffffffffffffffffffffffffffffffffffffffff1673ffffffffffffffffffffffffffffffffffffffff168152602001908152602001600020549050919050565b600660009054906101000a900473ffffffffffffffffffffffffffffffffffffffff1681565b6107256113c9565b60038054600181600116156101000203166002900480601f0160208091040260200160405190810160405280929190818152602001828054600181600116156101000203166002900480156107bb5780601f10610790576101008083540402835291602001916107bb565b820191906000526020600020905b81548152906001019060200180831161079e57829003601f168201915b5050505050905090565b60085481565b60006008546107dd8360055401610cec565b039050919050565b60006107f084610d58565b1561080757610800848484610d6b565b9050610815565b61081284848461103f565b90505b9392505050565b6000600760009054906101000a900473ffffffffffffffffffffffffffffffffffffffff1673ffffffffffffffffffffffffffffffffffffffff163373ffffffffffffffffffffffffffffffffffffffff1614151561087a57600080fd5b61088e6000836111ef90919063ffffffff16565b905061089b848483611218565b50505050565b60006108b08260055403610cec565b600854039050919050565b600660009054906101000a900473ffffffffffffffffffffffffffffffffffffffff1673ffffffffffffffffffffffffffffffffffffffff163373ffffffffffffffffffffffffffffffffffffffff1614151561091757600080fd5b600073ffffffffffffffffffffffffffffffffffffffff168173ffffffffffffffffffffffffffffffffffffffff161415151561095357600080fd5b8073ffffffffffffffffffffffffffffffffffffffff16600660009054906101000a900473ffffffffffffffffffffffffffffffffffffffff1673ffffffffffffffffffffffffffffffffffffffff167f8be0079c531659141344cd1fd0a4f28419497f9722a3daafe3b4186f6b6457e060405160405180910390a380600660006101000a81548173ffffffffffffffffffffffffffffffffffffffff021916908373ffffffffffffffffffffffffffffffffffffffff16021790555050565b600760009054906101000a900473ffffffffffffffffffffffffffffffffffffffff1681565b600082600160003373ffffffffffffffffffffffffffffffffffffffff1673ffffffffffffffffffffffffffffffffffffffff1681526020019081526020016000205410151515610a8957600080fd5b610a92836108a1565b9050610aa98360055461134490919063ffffffff16565b600581905550610b0183600160003373ffffffffffffffffffffffffffffffffffffffff1673ffffffffffffffffffffffffffffffffffffffff1681526020019081526020016000205461134490919063ffffffff16565b600160003373ffffffffffffffffffffffffffffffffffffffff1673ffffffffffffffffffffffffffffffffffffffff16815260200190815260200160002081905550610b598160085461134490919063ffffffff16565b600881905550600760009054906101000a900473ffffffffffffffffffffffffffffffffffffffff1673ffffffffffffffffffffffffffffffffffffffff1663be45fd623385856040518463ffffffff167c0100000000000000000000000000000000000000000000000000000000028152600401808473ffffffffffffffffffffffffffffffffffffffff1673ffffffffffffffffffffffffffffffffffffffff16815260200183815260200180602001828103825283818151815260200191508051906020019080838360005b83811015610c43578082015181840152602081019050610c28565b50505050905090810190601f168015610c705780820380516001836020036101000a031916815260200191505b50945050505050602060405180830381600087803b1515610c9057600080fd5b5af11515610c9d57600080fd5b50505060405180519050507fcec1bae6e024d929f2929f3478ce70f55f9c636c8ef7b5073a61d7c3a432451b8382604051808381526020018281526020019250505060405180910390a1505050565b6000806000806402540be40092506001600960009054906101000a900460ff160160ff16915081850a9050610d4e83610d4083610d32868861135d90919063ffffffff16565b61137890919063ffffffff16565b61135d90919063ffffffff16565b9350505050919050565b600080823b905060008111915050919050565b60008083610d78336106ae565b1015610d8357600080fd5b610d9e84610d90336106ae565b61134490919063ffffffff16565b600160003373ffffffffffffffffffffffffffffffffffffffff1673ffffffffffffffffffffffffffffffffffffffff16815260200190815260200160002081905550610dfc84610dee876106ae565b6113ab90919063ffffffff16565b600160008773ffffffffffffffffffffffffffffffffffffffff1673ffffffffffffffffffffffffffffffffffffffff168152602001908152602001600020819055508490508073ffffffffffffffffffffffffffffffffffffffff1663c0ee0b8a3386866040518463ffffffff167c0100000000000000000000000000000000000000000000000000000000028152600401808473ffffffffffffffffffffffffffffffffffffffff1673ffffffffffffffffffffffffffffffffffffffff16815260200183815260200180602001828103825283818151815260200191508051906020019080838360005b83811015610f04578082015181840152602081019050610ee9565b50505050905090810190601f168015610f315780820380516001836020036101000a031916815260200191505b50945050505050600060405180830381600087803b1515610f5157600080fd5b5af11515610f5e57600080fd5b5050508473ffffffffffffffffffffffffffffffffffffffff163373ffffffffffffffffffffffffffffffffffffffff167fe19260aff97b920c7df27010903aeb9c8d2be5d310a2c67824cf3f15396e4c1686866040518083815260200180602001828103825283818151815260200191508051906020019080838360005b83811015610ff8578082015181840152602081019050610fdd565b50505050905090810190601f1680156110255780820380516001836020036101000a031916815260200191505b50935050505060405180910390a360019150509392505050565b60008261104b336106ae565b101561105657600080fd5b61107183611063336106ae565b61134490919063ffffffff16565b600160003373ffffffffffffffffffffffffffffffffffffffff1673ffffffffffffffffffffffffffffffffffffffff168152602001908152602001600020819055506110cf836110c1866106ae565b6113ab90919063ffffffff16565b600160008673ffffffffffffffffffffffffffffffffffffffff1673ffffffffffffffffffffffffffffffffffffffff168152602001908152602001600020819055508373ffffffffffffffffffffffffffffffffffffffff163373ffffffffffffffffffffffffffffffffffffffff167fe19260aff97b920c7df27010903aeb9c8d2be5d310a2c67824cf3f15396e4c1685856040518083815260200180602001828103825283818151815260200191508051906020019080838360005b838110156111a957808201518184015260208101905061118e565b50505050905090810190601f1680156111d65780820380516001836020036101000a031916815260200191505b50935050505060405180910390a3600190509392505050565b6000806020830184511015151561120557600080fd5b8260208501015190508091505092915050565b6000611223826107cb565b905080831015151561123457600080fd5b611249826005546113ab90919063ffffffff16565b6005819055506112a182600160008773ffffffffffffffffffffffffffffffffffffffff1673ffffffffffffffffffffffffffffffffffffffff168152602001908152602001600020546113ab90919063ffffffff16565b600160008673ffffffffffffffffffffffffffffffffffffffff1673ffffffffffffffffffffffffffffffffffffffff168152602001908152602001600020819055506112f9836008546113ab90919063ffffffff16565b6008819055507f8a9dcf4e150b1153011b29fec302d5be0c13e84fa8f56ab78587f778a32a90dd8284604051808381526020018281526020019250505060405180910390a150505050565b600082821115151561135257fe5b818303905092915050565b600080828481151561136b57fe5b0490508091505092915050565b60008082840290506000841480611399575082848281151561139657fe5b04145b15156113a157fe5b8091505092915050565b60008082840190508381101515156113bf57fe5b8091505092915050565b6020604051908101604052806000815250905600a165627a7a723058209440affd47480887605eec9d0dedd98ba92b387618f181f850282cedeb1673810029",
  "source": "pragma solidity ^0.4.18;\n\nimport \"zeppelin/contracts/ownership/Ownable.sol\";\nimport \"bytes/BytesLib.sol\";\nimport \"./ERC223_Token.sol\";\n\n\n/**\n * @title Gluon Token\n * @dev Bonding curve contract based on Bacor formula\n * inspired by bancor protocol and simondlr\n * https://github.com/bancorprotocol/contracts\n * https://github.com/ConsenSys/curationmarkets/blob/master/CurationMarkets.sol\n */\ncontract CommunityToken is ERC223Token, Ownable {\n    using BytesLib for bytes;\n\n    ERC223Token public reserveToken;\n    uint256 public poolBalance;\n    uint8 public exponent;\n\n    function CommunityToken(\n        string _tokenName,\n        uint8 _decimalUnits,\n        string _tokenSymbol,\n        uint8 _exponent,\n        address _reserveToken\n    ) public {\n        name = _tokenName;                                   // Set the name for display purposes\n        decimals = _decimalUnits;                            // Amount of decimals for display purposes\n        symbol = _tokenSymbol;                               // Set the symbol for display purposes\n        exponent = _exponent;\n        reserveToken = ERC223Token(_reserveToken);\n    }\n\n    function tokenFallback(address _from, uint _value, bytes _data) public {\n        require(msg.sender == address(reserveToken));\n        uint256 numTokens = _data.toUint(0);\n        mint(_from, _value, numTokens);\n    }\n\n    // TODO - this should be located in an external contract so the curve can be switched out\n    function curveIntegral(uint256 t) internal returns (uint256) {\n        uint256 one = 10000000000;\n        uint256 nexp = exponent + 1;\n        uint256 x = t ** nexp;\n        // TODO - check for overflow in power function\n        return one.div(nexp).mul(x).div(one);\n    }\n\n    function priceToMint(uint256 numTokens) public returns(uint256) {\n        return curveIntegral(totalSupply + numTokens) - poolBalance;\n    }\n\n    function rewardForBurn(uint256 numTokens) public returns(uint256) {\n        return poolBalance - curveIntegral(totalSupply - numTokens);\n    }\n\n    function mint(address sender, uint256 value, uint256 numTokens) internal {\n        uint256 priceForTokens = priceToMint(numTokens);\n        require(value >= priceForTokens);\n\n        totalSupply = totalSupply.add(numTokens);\n        balances[sender] = balances[sender].add(numTokens);\n        poolBalance = poolBalance.add(value);\n        // TODO - send back any additional tokens\n        emit Minted(numTokens, value);\n    }\n\n    function burn(uint256 numTokens, bytes _data) public {\n        require(balances[msg.sender] >= numTokens);\n        uint256 tokensToReturn = rewardForBurn(numTokens);\n        totalSupply = totalSupply.sub(numTokens);\n        balances[msg.sender] = balances[msg.sender].sub(numTokens);\n        poolBalance = poolBalance.sub(tokensToReturn);\n        reserveToken.transfer(msg.sender, numTokens, _data);\n\n        emit Burned(numTokens, tokensToReturn);\n    }\n\n    event Minted(uint256 amount, uint256 totalCost);\n    event Burned(uint256 amount, uint256 reward);\n}\n\n",
  "sourcePath": "/home/oed/uport/gluon-contracts/contracts/CommunityToken.sol",
  "compiler": {
    "name": "solc",
    "version": "0.4.21+commit.dfe3193c.Emscripten.clang"
  },
  "schemaVersion": "2.0.0",
  "updatedAt": "2018-05-25T14:05:40.978Z"
}