{
  "contractName": "ContractReceiver",
  "abi": [
    {
      "constant": true,
      "inputs": [
        {
          "name": "_from",
          "type": "address"
        },
        {
          "name": "_value",
          "type": "uint256"
        },
        {
          "name": "_data",
          "type": "bytes"
        }
      ],
      "name": "tokenFallback",
      "outputs": [],
      "payable": false,
      "stateMutability": "pure",
      "type": "function"
    }
  ],
  "bytecode": "0x608060405234801561001057600080fd5b50610448806100206000396000f300608060405260043610610041576000357c0100000000000000000000000000000000000000000000000000000000900463ffffffff168063c0ee0b8a14610046575b600080fd5b34801561005257600080fd5b506100d7600480360381019080803573ffffffffffffffffffffffffffffffffffffffff16906020019092919080359060200190929190803590602001908201803590602001908080601f01602080910402602001604051908101604052809392919081815260200183838082843782019150505050505091929192905050506100d9565b005b6100e16103be565b600084826000019073ffffffffffffffffffffffffffffffffffffffff16908173ffffffffffffffffffffffffffffffffffffffff168152505083826020018181525050828260400181905250601883600081518110151561013f57fe5b9060200101517f010000000000000000000000000000000000000000000000000000000000000090047f0100000000000000000000000000000000000000000000000000000000000000027f0100000000000000000000000000000000000000000000000000000000000000900463ffffffff169060020a0260108460018151811015156101c957fe5b9060200101517f010000000000000000000000000000000000000000000000000000000000000090047f0100000000000000000000000000000000000000000000000000000000000000027f0100000000000000000000000000000000000000000000000000000000000000900463ffffffff169060020a02600885600281518110151561025357fe5b9060200101517f010000000000000000000000000000000000000000000000000000000000000090047f0100000000000000000000000000000000000000000000000000000000000000027f0100000000000000000000000000000000000000000000000000000000000000900463ffffffff169060020a028560038151811015156102db57fe5b9060200101517f010000000000000000000000000000000000000000000000000000000000000090047f0100000000000000000000000000000000000000000000000000000000000000027f010000000000000000000000000000000000000000000000000000000000000090040101019050807c01000000000000000000000000000000000000000000000000000000000282606001907bffffffffffffffffffffffffffffffffffffffffffffffffffffffff191690817bffffffffffffffffffffffffffffffffffffffffffffffffffffffff1916815250505050505050565b608060405190810160405280600073ffffffffffffffffffffffffffffffffffffffff168152602001600081526020016060815260200160007bffffffffffffffffffffffffffffffffffffffffffffffffffffffff1916815250905600a165627a7a7230582059c5ed357db8515e0a097212ed7b309aa9d73e66b6a8166c8a18088633f60b020029",
  "source": "pragma solidity ^0.4.9;\r\n\r\n/*\r\n * Contract that is working with ERC223 tokens\r\n */\r\n\r\ncontract ContractReceiver {\r\n\r\n    struct TKN {\r\n        address sender;\r\n        uint value;\r\n        bytes data;\r\n        bytes4 sig;\r\n    }\r\n\r\n\r\n    function tokenFallback(address _from, uint _value, bytes _data) public pure {\r\n        TKN memory tkn;\r\n        tkn.sender = _from;\r\n        tkn.value = _value;\r\n        tkn.data = _data;\r\n        uint32 u = uint32(_data[3]) + (uint32(_data[2]) << 8) + (uint32(_data[1]) << 16) + (uint32(_data[0]) << 24);\r\n        tkn.sig = bytes4(u);\r\n\r\n        /* tkn variable is analogue of msg variable of Ether transaction\r\n         *  tkn.sender is person who initiated this token transaction   (analogue of msg.sender)\r\n         *  tkn.value the number of tokens that were sent   (analogue of msg.value)\r\n         *  tkn.data is data of token transaction   (analogue of msg.data)\r\n         *  tkn.sig is 4 bytes signature of function\r\n         *  if data of token transaction is a function execution\r\n         */\r\n    }\r\n}\r\n",
  "sourcePath": "/Users/simonas/dev/gluon-project/gluon-contracts/contracts/Receiver_Interface.sol",
  "compiler": {
    "name": "solc",
    "version": "0.4.24+commit.e67f0147.Emscripten.clang"
  },
  "schemaVersion": "2.0.1",
  "updatedAt": "2018-09-19T10:19:26.927Z"
}