{
  "contractName": "ContractReceiver",
  "abi": [
    {
      "constant": true,
      "inputs": [
        {
          "name": "_from",
          "type": "address"
        },
        {
          "name": "_value",
          "type": "uint256"
        },
        {
          "name": "_data",
          "type": "bytes"
        }
      ],
      "name": "tokenFallback",
      "outputs": [],
      "payable": false,
      "stateMutability": "pure",
      "type": "function"
    }
  ],
  "bytecode": "0x6060604052341561000f57600080fd5b6104548061001e6000396000f300606060405260043610610041576000357c0100000000000000000000000000000000000000000000000000000000900463ffffffff168063c0ee0b8a14610046575b600080fd5b341561005157600080fd5b6100c9600480803573ffffffffffffffffffffffffffffffffffffffff1690602001909190803590602001909190803590602001908201803590602001908080601f016020809104026020016040519081016040528093929190818152602001838380828437820191505050505050919050506100cb565b005b6100d36103b0565b600084826000019073ffffffffffffffffffffffffffffffffffffffff16908173ffffffffffffffffffffffffffffffffffffffff168152505083826020018181525050828260400181905250601883600081518110151561013157fe5b9060200101517f010000000000000000000000000000000000000000000000000000000000000090047f0100000000000000000000000000000000000000000000000000000000000000027f0100000000000000000000000000000000000000000000000000000000000000900463ffffffff169060020a0260108460018151811015156101bb57fe5b9060200101517f010000000000000000000000000000000000000000000000000000000000000090047f0100000000000000000000000000000000000000000000000000000000000000027f0100000000000000000000000000000000000000000000000000000000000000900463ffffffff169060020a02600885600281518110151561024557fe5b9060200101517f010000000000000000000000000000000000000000000000000000000000000090047f0100000000000000000000000000000000000000000000000000000000000000027f0100000000000000000000000000000000000000000000000000000000000000900463ffffffff169060020a028560038151811015156102cd57fe5b9060200101517f010000000000000000000000000000000000000000000000000000000000000090047f0100000000000000000000000000000000000000000000000000000000000000027f010000000000000000000000000000000000000000000000000000000000000090040101019050807c01000000000000000000000000000000000000000000000000000000000282606001907bffffffffffffffffffffffffffffffffffffffffffffffffffffffff191690817bffffffffffffffffffffffffffffffffffffffffffffffffffffffff1916815250505050505050565b608060405190810160405280600073ffffffffffffffffffffffffffffffffffffffff168152602001600081526020016103e8610414565b815260200160007bffffffffffffffffffffffffffffffffffffffffffffffffffffffff191681525090565b6020604051908101604052806000815250905600a165627a7a7230582086a23e725d8a838b90ac7dc9cbbba95091750149d97bfa76893ed280ce5db2a30029",
  "source": "pragma solidity ^0.4.9;\r\n\r\n/*\r\n * Contract that is working with ERC223 tokens\r\n */\r\n\r\ncontract ContractReceiver {\r\n\r\n    struct TKN {\r\n        address sender;\r\n        uint value;\r\n        bytes data;\r\n        bytes4 sig;\r\n    }\r\n\r\n\r\n    function tokenFallback(address _from, uint _value, bytes _data) public pure {\r\n        TKN memory tkn;\r\n        tkn.sender = _from;\r\n        tkn.value = _value;\r\n        tkn.data = _data;\r\n        uint32 u = uint32(_data[3]) + (uint32(_data[2]) << 8) + (uint32(_data[1]) << 16) + (uint32(_data[0]) << 24);\r\n        tkn.sig = bytes4(u);\r\n\r\n        /* tkn variable is analogue of msg variable of Ether transaction\r\n         *  tkn.sender is person who initiated this token transaction   (analogue of msg.sender)\r\n         *  tkn.value the number of tokens that were sent   (analogue of msg.value)\r\n         *  tkn.data is data of token transaction   (analogue of msg.data)\r\n         *  tkn.sig is 4 bytes signature of function\r\n         *  if data of token transaction is a function execution\r\n         */\r\n    }\r\n}\r\n",
  "sourcePath": "/home/oed/uport/gluon-contracts/contracts/Receiver_Interface.sol",
  "compiler": {
    "name": "solc",
    "version": "0.4.21+commit.dfe3193c.Emscripten.clang"
  },
  "schemaVersion": "2.0.0",
  "updatedAt": "2018-05-02T07:10:44.628Z"
}