{
  "contractName": "ERC223Token",
  "abi": [
    {
      "constant": true,
      "inputs": [],
      "name": "name",
      "outputs": [
        {
          "name": "_name",
          "type": "string"
        }
      ],
      "payable": false,
      "stateMutability": "view",
      "type": "function"
    },
    {
      "constant": true,
      "inputs": [],
      "name": "totalSupply",
      "outputs": [
        {
          "name": "_totalSupply",
          "type": "uint256"
        }
      ],
      "payable": false,
      "stateMutability": "view",
      "type": "function"
    },
    {
      "constant": true,
      "inputs": [],
      "name": "decimals",
      "outputs": [
        {
          "name": "_decimals",
          "type": "uint8"
        }
      ],
      "payable": false,
      "stateMutability": "view",
      "type": "function"
    },
    {
      "constant": true,
      "inputs": [],
      "name": "MAX_UINT256",
      "outputs": [
        {
          "name": "",
          "type": "uint256"
        }
      ],
      "payable": false,
      "stateMutability": "view",
      "type": "function"
    },
    {
      "constant": true,
      "inputs": [
        {
          "name": "_owner",
          "type": "address"
        }
      ],
      "name": "balanceOf",
      "outputs": [
        {
          "name": "balance",
          "type": "uint256"
        }
      ],
      "payable": false,
      "stateMutability": "view",
      "type": "function"
    },
    {
      "constant": true,
      "inputs": [],
      "name": "symbol",
      "outputs": [
        {
          "name": "_symbol",
          "type": "string"
        }
      ],
      "payable": false,
      "stateMutability": "view",
      "type": "function"
    },
    {
      "constant": false,
      "inputs": [
        {
          "name": "_to",
          "type": "address"
        },
        {
          "name": "_value",
          "type": "uint256"
        }
      ],
      "name": "transfer",
      "outputs": [
        {
          "name": "success",
          "type": "bool"
        }
      ],
      "payable": false,
      "stateMutability": "nonpayable",
      "type": "function"
    },
    {
      "constant": false,
      "inputs": [
        {
          "name": "_to",
          "type": "address"
        },
        {
          "name": "_value",
          "type": "uint256"
        },
        {
          "name": "_data",
          "type": "bytes"
        }
      ],
      "name": "transfer",
      "outputs": [
        {
          "name": "success",
          "type": "bool"
        }
      ],
      "payable": false,
      "stateMutability": "nonpayable",
      "type": "function"
    },
    {
      "constant": false,
      "inputs": [
        {
          "name": "_to",
          "type": "address"
        },
        {
          "name": "_value",
          "type": "uint256"
        },
        {
          "name": "_data",
          "type": "bytes"
        },
        {
          "name": "_custom_fallback",
          "type": "string"
        }
      ],
      "name": "transfer",
      "outputs": [
        {
          "name": "success",
          "type": "bool"
        }
      ],
      "payable": false,
      "stateMutability": "nonpayable",
      "type": "function"
    },
    {
      "inputs": [
        {
          "name": "_initialAmount",
          "type": "uint256"
        },
        {
          "name": "_tokenName",
          "type": "string"
        },
        {
          "name": "_decimalUnits",
          "type": "uint8"
        },
        {
          "name": "_tokenSymbol",
          "type": "string"
        }
      ],
      "payable": false,
      "stateMutability": "nonpayable",
      "type": "constructor"
    },
    {
      "anonymous": false,
      "inputs": [
        {
          "indexed": true,
          "name": "from",
          "type": "address"
        },
        {
          "indexed": true,
          "name": "to",
          "type": "address"
        },
        {
          "indexed": false,
          "name": "value",
          "type": "uint256"
        },
        {
          "indexed": false,
          "name": "data",
          "type": "bytes"
        }
      ],
      "name": "Transfer",
      "type": "event"
    }
  ],
  "bytecode": "0x6060604052341561000f57600080fd5b604051620010af380380620010af8339810160405280805190602001909190805182019190602001805190602001909190805182019190505083600160003373ffffffffffffffffffffffffffffffffffffffff1673ffffffffffffffffffffffffffffffffffffffff168152602001908152602001600020819055508360058190555082600290805190602001906100a99291906100e5565b5081600460006101000a81548160ff021916908360ff16021790555080600390805190602001906100db9291906100e5565b505050505061018a565b828054600181600116156101000203166002900490600052602060002090601f016020900481019282601f1061012657805160ff1916838001178555610154565b82800160010185558215610154579182015b82811115610153578251825591602001919060010190610138565b5b5090506101619190610165565b5090565b61018791905b8082111561018357600081600090555060010161016b565b5090565b90565b610f15806200019a6000396000f300606060405260043610610099576000357c0100000000000000000000000000000000000000000000000000000000900463ffffffff16806306fdde031461009e57806318160ddd1461012c578063313ce5671461015557806333a581d21461018457806370a08231146101ad57806395d89b41146101fa578063a9059cbb14610288578063be45fd62146102e2578063f6368f8a1461037f575b600080fd5b34156100a957600080fd5b6100b161045f565b6040518080602001828103825283818151815260200191508051906020019080838360005b838110156100f15780820151818401526020810190506100d6565b50505050905090810190601f16801561011e5780820380516001836020036101000a031916815260200191505b509250505060405180910390f35b341561013757600080fd5b61013f610507565b6040518082815260200191505060405180910390f35b341561016057600080fd5b610168610511565b604051808260ff1660ff16815260200191505060405180910390f35b341561018f57600080fd5b610197610528565b6040518082815260200191505060405180910390f35b34156101b857600080fd5b6101e4600480803573ffffffffffffffffffffffffffffffffffffffff1690602001909190505061054c565b6040518082815260200191505060405180910390f35b341561020557600080fd5b61020d610595565b6040518080602001828103825283818151815260200191508051906020019080838360005b8381101561024d578082015181840152602081019050610232565b50505050905090810190601f16801561027a5780820380516001836020036101000a031916815260200191505b509250505060405180910390f35b341561029357600080fd5b6102c8600480803573ffffffffffffffffffffffffffffffffffffffff1690602001909190803590602001909190505061063d565b604051808215151515815260200191505060405180910390f35b34156102ed57600080fd5b610365600480803573ffffffffffffffffffffffffffffffffffffffff1690602001909190803590602001909190803590602001908201803590602001908080601f0160208091040260200160405190810160405280939291908181526020018383808284378201915050505050509190505061067c565b604051808215151515815260200191505060405180910390f35b341561038a57600080fd5b610445600480803573ffffffffffffffffffffffffffffffffffffffff1690602001909190803590602001909190803590602001908201803590602001908080601f0160208091040260200160405190810160405280939291908181526020018383808284378201915050505050509190803590602001908201803590602001908080601f016020809104026020016040519081016040528093929190818152602001838380828437820191505050505050919050506106b3565b604051808215151515815260200191505060405180910390f35b610467610ec1565b60028054600181600116156101000203166002900480601f0160208091040260200160405190810160405280929190818152602001828054600181600116156101000203166002900480156104fd5780601f106104d2576101008083540402835291602001916104fd565b820191906000526020600020905b8154815290600101906020018083116104e057829003601f168201915b5050505050905090565b6000600554905090565b6000600460009054906101000a900460ff16905090565b7fffffffffffffffffffffffffffffffffffffffffffffffffffffffffffffffff81565b6000600160008373ffffffffffffffffffffffffffffffffffffffff1673ffffffffffffffffffffffffffffffffffffffff168152602001908152602001600020549050919050565b61059d610ec1565b60038054600181600116156101000203166002900480601f0160208091040260200160405190810160405280929190818152602001828054600181600116156101000203166002900480156106335780601f1061060857610100808354040283529160200191610633565b820191906000526020600020905b81548152906001019060200180831161061657829003601f168201915b5050505050905090565b6000610647610ed5565b610650846109f4565b1561066757610660848483610a07565b9150610675565b610672848483610ccd565b91505b5092915050565b6000610687846109f4565b1561069e57610697848484610a07565b90506106ac565b6106a9848484610ccd565b90505b9392505050565b60006106be856109f4565b156109de57836106cd3361054c565b10156106d857600080fd5b6106ea6106e43361054c565b85610e6b565b600160003373ffffffffffffffffffffffffffffffffffffffff1673ffffffffffffffffffffffffffffffffffffffff1681526020019081526020016000208190555061073f6107398661054c565b85610e85565b600160008773ffffffffffffffffffffffffffffffffffffffff1673ffffffffffffffffffffffffffffffffffffffff168152602001908152602001600020819055508473ffffffffffffffffffffffffffffffffffffffff166000836040518082805190602001908083835b6020831015156107d157805182526020820191506020810190506020830392506107ac565b6001836020036101000a03801982511681845116808217855250505050505090500191505060405180910390207c01000000000000000000000000000000000000000000000000000000009004903387876040518563ffffffff167c0100000000000000000000000000000000000000000000000000000000028152600401808473ffffffffffffffffffffffffffffffffffffffff1673ffffffffffffffffffffffffffffffffffffffff168152602001838152602001828051906020019080838360005b838110156108b2578082015181840152602081019050610897565b50505050905090810190601f1680156108df5780820380516001836020036101000a031916815260200191505b50935050505060006040518083038185886187965a03f19350505050151561090357fe5b8473ffffffffffffffffffffffffffffffffffffffff163373ffffffffffffffffffffffffffffffffffffffff167fe19260aff97b920c7df27010903aeb9c8d2be5d310a2c67824cf3f15396e4c1686866040518083815260200180602001828103825283818151815260200191508051906020019080838360005b8381101561099a57808201518184015260208101905061097f565b50505050905090810190601f1680156109c75780820380516001836020036101000a031916815260200191505b50935050505060405180910390a3600190506109ec565b6109e9858585610ccd565b90505b949350505050565b600080823b905060008111915050919050565b60008083610a143361054c565b1015610a1f57600080fd5b610a31610a2b3361054c565b85610e6b565b600160003373ffffffffffffffffffffffffffffffffffffffff1673ffffffffffffffffffffffffffffffffffffffff16815260200190815260200160002081905550610a86610a808661054c565b85610e85565b600160008773ffffffffffffffffffffffffffffffffffffffff1673ffffffffffffffffffffffffffffffffffffffff168152602001908152602001600020819055508490508073ffffffffffffffffffffffffffffffffffffffff1663c0ee0b8a3386866040518463ffffffff167c0100000000000000000000000000000000000000000000000000000000028152600401808473ffffffffffffffffffffffffffffffffffffffff1673ffffffffffffffffffffffffffffffffffffffff16815260200183815260200180602001828103825283818151815260200191508051906020019080838360005b83811015610b8e578082015181840152602081019050610b73565b50505050905090810190601f168015610bbb5780820380516001836020036101000a031916815260200191505b50945050505050600060405180830381600087803b1515610bdb57600080fd5b6102c65a03f11515610bec57600080fd5b5050508473ffffffffffffffffffffffffffffffffffffffff163373ffffffffffffffffffffffffffffffffffffffff167fe19260aff97b920c7df27010903aeb9c8d2be5d310a2c67824cf3f15396e4c1686866040518083815260200180602001828103825283818151815260200191508051906020019080838360005b83811015610c86578082015181840152602081019050610c6b565b50505050905090810190601f168015610cb35780820380516001836020036101000a031916815260200191505b50935050505060405180910390a360019150509392505050565b600082610cd93361054c565b1015610ce457600080fd5b610cf6610cf03361054c565b84610e6b565b600160003373ffffffffffffffffffffffffffffffffffffffff1673ffffffffffffffffffffffffffffffffffffffff16815260200190815260200160002081905550610d4b610d458561054c565b84610e85565b600160008673ffffffffffffffffffffffffffffffffffffffff1673ffffffffffffffffffffffffffffffffffffffff168152602001908152602001600020819055508373ffffffffffffffffffffffffffffffffffffffff163373ffffffffffffffffffffffffffffffffffffffff167fe19260aff97b920c7df27010903aeb9c8d2be5d310a2c67824cf3f15396e4c1685856040518083815260200180602001828103825283818151815260200191508051906020019080838360005b83811015610e25578082015181840152602081019050610e0a565b50505050905090810190601f168015610e525780820380516001836020036101000a031916815260200191505b50935050505060405180910390a3600190509392505050565b600081831015610e7a57600080fd5b818303905092915050565b6000817fffffffffffffffffffffffffffffffffffffffffffffffffffffffffffffffff03831115610eb657600080fd5b818301905092915050565b602060405190810160405280600081525090565b6020604051908101604052806000815250905600a165627a7a7230582010fd7a975ff27833f624b7c829a27f2e019aaf1919ca2353038ba0365fc905d00029",
  "source": "pragma solidity ^0.4.9;\r\n\r\nimport \"./Receiver_Interface.sol\";\r\nimport \"./ERC223_Interface.sol\";\r\n\r\n /**\r\n * ERC23 token by Dexaran\r\n *\r\n * https://github.com/Dexaran/ERC23-tokens\r\n */\r\n \r\n \r\n /* https://github.com/LykkeCity/EthereumApiDotNetCore/blob/master/src/ContractBuilder/contracts/token/SafeMath.sol */\r\ncontract SafeMath {\r\n    uint256 constant public MAX_UINT256 =\r\n    0xFFFFFFFFFFFFFFFFFFFFFFFFFFFFFFFFFFFFFFFFFFFFFFFFFFFFFFFFFFFFFFFF;\r\n\r\n    function safeAdd(uint256 x, uint256 y) pure internal returns (uint256 z) {\r\n        if (x > MAX_UINT256 - y) revert();\r\n        return x + y;\r\n    }\r\n\r\n    function safeSub(uint256 x, uint256 y) pure internal returns (uint256 z) {\r\n        if (x < y) revert();\r\n        return x - y;\r\n    }\r\n\r\n    function safeMul(uint256 x, uint256 y) pure internal returns (uint256 z) {\r\n        if (y == 0) return 0;\r\n        if (x > MAX_UINT256 / y) revert();\r\n        return x * y;\r\n    }\r\n}\r\n \r\ncontract ERC223Token is ERC223, SafeMath {\r\n\r\n\r\n\r\n  mapping(address => uint) balances;\r\n  \r\n  string public name;\r\n  string public symbol;\r\n  uint8 public decimals;\r\n  uint256 public totalSupply;\r\n  \r\n  function ERC223Token(\r\n    uint256 _initialAmount,\r\n    string _tokenName,\r\n    uint8 _decimalUnits,\r\n    string _tokenSymbol\r\n    ) {\r\n    balances[msg.sender] = _initialAmount;               // Give the creator all initial tokens\r\n    totalSupply = _initialAmount;                        // Update total supply\r\n    name = _tokenName;                                   // Set the name for display purposes\r\n    decimals = _decimalUnits;                            // Amount of decimals for display purposes\r\n    symbol = _tokenSymbol;                               // Set the symbol for display purposes\r\n}\r\n  \r\n  // Function to access name of token .\r\n  function name() public view returns (string _name) {\r\n      return name;\r\n  }\r\n  // Function to access symbol of token .\r\n  function symbol() public view returns (string _symbol) {\r\n      return symbol;\r\n  }\r\n  // Function to access decimals of token .\r\n  function decimals() public view returns (uint8 _decimals) {\r\n      return decimals;\r\n  }\r\n  // Function to access total supply of tokens .\r\n  function totalSupply() public view returns (uint256 _totalSupply) {\r\n      return totalSupply;\r\n  }\r\n  \r\n  \r\n  // Function that is called when a user or another contract wants to transfer funds .\r\n  function transfer(address _to, uint _value, bytes _data, string _custom_fallback) public returns (bool success) {\r\n      \r\n    if(isContract(_to)) {\r\n        if (balanceOf(msg.sender) < _value) revert();\r\n        balances[msg.sender] = safeSub(balanceOf(msg.sender), _value);\r\n        balances[_to] = safeAdd(balanceOf(_to), _value);\r\n        assert(_to.call.value(0)(bytes4(keccak256(_custom_fallback)), msg.sender, _value, _data));\r\n        Transfer(msg.sender, _to, _value, _data);\r\n        return true;\r\n    }\r\n    else {\r\n        return transferToAddress(_to, _value, _data);\r\n    }\r\n}\r\n  \r\n\r\n  // Function that is called when a user or another contract wants to transfer funds .\r\n  function transfer(address _to, uint _value, bytes _data) public returns (bool success) {\r\n      \r\n    if(isContract(_to)) {\r\n        return transferToContract(_to, _value, _data);\r\n    }\r\n    else {\r\n        return transferToAddress(_to, _value, _data);\r\n    }\r\n}\r\n  \r\n  // Standard function transfer similar to ERC20 transfer with no _data .\r\n  // Added due to backwards compatibility reasons .\r\n  function transfer(address _to, uint _value) public returns (bool success) {\r\n      \r\n    //standard function transfer similar to ERC20 transfer with no _data\r\n    //added due to backwards compatibility reasons\r\n    bytes memory empty;\r\n    if(isContract(_to)) {\r\n        return transferToContract(_to, _value, empty);\r\n    }\r\n    else {\r\n        return transferToAddress(_to, _value, empty);\r\n    }\r\n}\r\n\r\n//assemble the given address bytecode. If bytecode exists then the _addr is a contract.\r\n  function isContract(address _addr) private view returns (bool is_contract) {\r\n      uint length;\r\n      assembly {\r\n            //retrieve the size of the code on target address, this needs assembly\r\n            length := extcodesize(_addr)\r\n      }\r\n      return (length>0);\r\n    }\r\n\r\n  //function that is called when transaction target is an address\r\n  function transferToAddress(address _to, uint _value, bytes _data) private returns (bool success) {\r\n    if (balanceOf(msg.sender) < _value) revert();\r\n    balances[msg.sender] = safeSub(balanceOf(msg.sender), _value);\r\n    balances[_to] = safeAdd(balanceOf(_to), _value);\r\n    Transfer(msg.sender, _to, _value, _data);\r\n    return true;\r\n  }\r\n  \r\n  //function that is called when transaction target is a contract\r\n  function transferToContract(address _to, uint _value, bytes _data) private returns (bool success) {\r\n    if (balanceOf(msg.sender) < _value) revert();\r\n    balances[msg.sender] = safeSub(balanceOf(msg.sender), _value);\r\n    balances[_to] = safeAdd(balanceOf(_to), _value);\r\n    ContractReceiver receiver = ContractReceiver(_to);\r\n    receiver.tokenFallback(msg.sender, _value, _data);\r\n    Transfer(msg.sender, _to, _value, _data);\r\n    return true;\r\n}\r\n\r\n\r\n  function balanceOf(address _owner) public view returns (uint balance) {\r\n    return balances[_owner];\r\n  }\r\n}",
  "sourcePath": "/Users/simonas/dev/web3/gluon-erc233-contracts/contracts/ERC223_Token.sol",
  "compiler": {
    "name": "solc",
    "version": "0.4.18+commit.9cf6e910.Emscripten.clang"
  },
  "schemaVersion": "1.0.1",
  "updatedAt": "2018-01-23T10:02:06.990Z"
}