{
  "contractName": "ERC223Token",
  "abi": [
    {
      "anonymous": false,
      "inputs": [
        {
          "indexed": true,
          "name": "from",
          "type": "address"
        },
        {
          "indexed": true,
          "name": "to",
          "type": "address"
        },
        {
          "indexed": false,
          "name": "value",
          "type": "uint256"
        },
        {
          "indexed": false,
          "name": "data",
          "type": "bytes"
        }
      ],
      "name": "Transfer",
      "type": "event"
    },
    {
      "constant": true,
      "inputs": [],
      "name": "name",
      "outputs": [
        {
          "name": "_name",
          "type": "string"
        }
      ],
      "payable": false,
      "stateMutability": "view",
      "type": "function"
    },
    {
      "constant": true,
      "inputs": [],
      "name": "symbol",
      "outputs": [
        {
          "name": "_symbol",
          "type": "string"
        }
      ],
      "payable": false,
      "stateMutability": "view",
      "type": "function"
    },
    {
      "constant": true,
      "inputs": [],
      "name": "decimals",
      "outputs": [
        {
          "name": "_decimals",
          "type": "uint8"
        }
      ],
      "payable": false,
      "stateMutability": "view",
      "type": "function"
    },
    {
      "constant": true,
      "inputs": [],
      "name": "totalSupply",
      "outputs": [
        {
          "name": "_totalSupply",
          "type": "uint256"
        }
      ],
      "payable": false,
      "stateMutability": "view",
      "type": "function"
    },
    {
      "constant": false,
      "inputs": [
        {
          "name": "_to",
          "type": "address"
        },
        {
          "name": "_value",
          "type": "uint256"
        }
      ],
      "name": "transfer",
      "outputs": [
        {
          "name": "success",
          "type": "bool"
        }
      ],
      "payable": false,
      "stateMutability": "nonpayable",
      "type": "function"
    },
    {
      "constant": false,
      "inputs": [
        {
          "name": "_to",
          "type": "address"
        },
        {
          "name": "_value",
          "type": "uint256"
        },
        {
          "name": "_data",
          "type": "bytes"
        }
      ],
      "name": "transfer",
      "outputs": [
        {
          "name": "success",
          "type": "bool"
        }
      ],
      "payable": false,
      "stateMutability": "nonpayable",
      "type": "function"
    },
    {
      "constant": false,
      "inputs": [
        {
          "name": "_to",
          "type": "address"
        },
        {
          "name": "_value",
          "type": "uint256"
        },
        {
          "name": "_data",
          "type": "bytes"
        },
        {
          "name": "_custom_fallback",
          "type": "string"
        }
      ],
      "name": "transfer",
      "outputs": [
        {
          "name": "success",
          "type": "bool"
        }
      ],
      "payable": false,
      "stateMutability": "nonpayable",
      "type": "function"
    },
    {
      "constant": true,
      "inputs": [
        {
          "name": "_owner",
          "type": "address"
        }
      ],
      "name": "balanceOf",
      "outputs": [
        {
          "name": "balance",
          "type": "uint256"
        }
      ],
      "payable": false,
      "stateMutability": "view",
      "type": "function"
    }
  ],
  "bytecode": "0x6060604052341561000f57600080fd5b610ecc8061001e6000396000f30060606040526004361061008e576000357c0100000000000000000000000000000000000000000000000000000000900463ffffffff16806306fdde031461009357806318160ddd14610121578063313ce5671461014a57806370a082311461017957806395d89b41146101c6578063a9059cbb14610254578063be45fd62146102ae578063f6368f8a1461034b575b600080fd5b341561009e57600080fd5b6100a661042b565b6040518080602001828103825283818151815260200191508051906020019080838360005b838110156100e65780820151818401526020810190506100cb565b50505050905090810190601f1680156101135780820380516001836020036101000a031916815260200191505b509250505060405180910390f35b341561012c57600080fd5b6101346104d3565b6040518082815260200191505060405180910390f35b341561015557600080fd5b61015d6104dd565b604051808260ff1660ff16815260200191505060405180910390f35b341561018457600080fd5b6101b0600480803573ffffffffffffffffffffffffffffffffffffffff169060200190919050506104f4565b6040518082815260200191505060405180910390f35b34156101d157600080fd5b6101d961053d565b6040518080602001828103825283818151815260200191508051906020019080838360005b838110156102195780820151818401526020810190506101fe565b50505050905090810190601f1680156102465780820380516001836020036101000a031916815260200191505b509250505060405180910390f35b341561025f57600080fd5b610294600480803573ffffffffffffffffffffffffffffffffffffffff169060200190919080359060200190919050506105e5565b604051808215151515815260200191505060405180910390f35b34156102b957600080fd5b610331600480803573ffffffffffffffffffffffffffffffffffffffff1690602001909190803590602001909190803590602001908201803590602001908080601f01602080910402602001604051908101604052809392919081815260200183838082843782019150505050505091905050610624565b604051808215151515815260200191505060405180910390f35b341561035657600080fd5b610411600480803573ffffffffffffffffffffffffffffffffffffffff1690602001909190803590602001909190803590602001908201803590602001908080601f0160208091040260200160405190810160405280939291908181526020018383808284378201915050505050509190803590602001908201803590602001908080601f0160208091040260200160405190810160405280939291908181526020018383808284378201915050505050509190505061065b565b604051808215151515815260200191505060405180910390f35b610433610e78565b60028054600181600116156101000203166002900480601f0160208091040260200160405190810160405280929190818152602001828054600181600116156101000203166002900480156104c95780601f1061049e576101008083540402835291602001916104c9565b820191906000526020600020905b8154815290600101906020018083116104ac57829003601f168201915b5050505050905090565b6000600554905090565b6000600460009054906101000a900460ff16905090565b6000600160008373ffffffffffffffffffffffffffffffffffffffff1673ffffffffffffffffffffffffffffffffffffffff168152602001908152602001600020549050919050565b610545610e78565b60038054600181600116156101000203166002900480601f0160208091040260200160405190810160405280929190818152602001828054600181600116156101000203166002900480156105db5780601f106105b0576101008083540402835291602001916105db565b820191906000526020600020905b8154815290600101906020018083116105be57829003601f168201915b5050505050905090565b60006105ef610e8c565b6105f8846109aa565b1561060f576106088484836109bd565b915061061d565b61061a848483610c91565b91505b5092915050565b600061062f846109aa565b156106465761063f8484846109bd565b9050610654565b610651848484610c91565b90505b9392505050565b6000610666856109aa565b156109945783610675336104f4565b101561068057600080fd5b61069b8461068d336104f4565b610e4190919063ffffffff16565b600160003373ffffffffffffffffffffffffffffffffffffffff1673ffffffffffffffffffffffffffffffffffffffff168152602001908152602001600020819055506106f9846106eb876104f4565b610e5a90919063ffffffff16565b600160008773ffffffffffffffffffffffffffffffffffffffff1673ffffffffffffffffffffffffffffffffffffffff168152602001908152602001600020819055508473ffffffffffffffffffffffffffffffffffffffff166000836040518082805190602001908083835b60208310151561078b5780518252602082019150602081019050602083039250610766565b6001836020036101000a03801982511681845116808217855250505050505090500191505060405180910390207c01000000000000000000000000000000000000000000000000000000009004903387876040518563ffffffff167c0100000000000000000000000000000000000000000000000000000000028152600401808473ffffffffffffffffffffffffffffffffffffffff1673ffffffffffffffffffffffffffffffffffffffff168152602001838152602001828051906020019080838360005b8381101561086c578082015181840152602081019050610851565b50505050905090810190601f1680156108995780820380516001836020036101000a031916815260200191505b50935050505060006040518083038185885af1935050505015156108b957fe5b8473ffffffffffffffffffffffffffffffffffffffff163373ffffffffffffffffffffffffffffffffffffffff167fe19260aff97b920c7df27010903aeb9c8d2be5d310a2c67824cf3f15396e4c1686866040518083815260200180602001828103825283818151815260200191508051906020019080838360005b83811015610950578082015181840152602081019050610935565b50505050905090810190601f16801561097d5780820380516001836020036101000a031916815260200191505b50935050505060405180910390a3600190506109a2565b61099f858585610c91565b90505b949350505050565b600080823b905060008111915050919050565b600080836109ca336104f4565b10156109d557600080fd5b6109f0846109e2336104f4565b610e4190919063ffffffff16565b600160003373ffffffffffffffffffffffffffffffffffffffff1673ffffffffffffffffffffffffffffffffffffffff16815260200190815260200160002081905550610a4e84610a40876104f4565b610e5a90919063ffffffff16565b600160008773ffffffffffffffffffffffffffffffffffffffff1673ffffffffffffffffffffffffffffffffffffffff168152602001908152602001600020819055508490508073ffffffffffffffffffffffffffffffffffffffff1663c0ee0b8a3386866040518463ffffffff167c0100000000000000000000000000000000000000000000000000000000028152600401808473ffffffffffffffffffffffffffffffffffffffff1673ffffffffffffffffffffffffffffffffffffffff16815260200183815260200180602001828103825283818151815260200191508051906020019080838360005b83811015610b56578082015181840152602081019050610b3b565b50505050905090810190601f168015610b835780820380516001836020036101000a031916815260200191505b50945050505050600060405180830381600087803b1515610ba357600080fd5b5af11515610bb057600080fd5b5050508473ffffffffffffffffffffffffffffffffffffffff163373ffffffffffffffffffffffffffffffffffffffff167fe19260aff97b920c7df27010903aeb9c8d2be5d310a2c67824cf3f15396e4c1686866040518083815260200180602001828103825283818151815260200191508051906020019080838360005b83811015610c4a578082015181840152602081019050610c2f565b50505050905090810190601f168015610c775780820380516001836020036101000a031916815260200191505b50935050505060405180910390a360019150509392505050565b600082610c9d336104f4565b1015610ca857600080fd5b610cc383610cb5336104f4565b610e4190919063ffffffff16565b600160003373ffffffffffffffffffffffffffffffffffffffff1673ffffffffffffffffffffffffffffffffffffffff16815260200190815260200160002081905550610d2183610d13866104f4565b610e5a90919063ffffffff16565b600160008673ffffffffffffffffffffffffffffffffffffffff1673ffffffffffffffffffffffffffffffffffffffff168152602001908152602001600020819055508373ffffffffffffffffffffffffffffffffffffffff163373ffffffffffffffffffffffffffffffffffffffff167fe19260aff97b920c7df27010903aeb9c8d2be5d310a2c67824cf3f15396e4c1685856040518083815260200180602001828103825283818151815260200191508051906020019080838360005b83811015610dfb578082015181840152602081019050610de0565b50505050905090810190601f168015610e285780820380516001836020036101000a031916815260200191505b50935050505060405180910390a3600190509392505050565b6000828211151515610e4f57fe5b818303905092915050565b6000808284019050838110151515610e6e57fe5b8091505092915050565b602060405190810160405280600081525090565b6020604051908101604052806000815250905600a165627a7a72305820961040c25642ab76e1829bd395271d20589ab7019a2723ccbcb682f6ff5e0a800029",
  "source": "pragma solidity ^0.4.9;\r\n\r\nimport \"./Receiver_Interface.sol\";\r\nimport \"./ERC223_Interface.sol\";\r\nimport \"zeppelin/contracts/math/SafeMath.sol\";\r\n\r\n/**\r\n * ERC23 token by Dexaran\r\n *\r\n * https://github.com/Dexaran/ERC23-tokens\r\n */\r\n\r\n\r\ncontract ERC223Token is ERC223 {\r\n  using SafeMath for uint256;\r\n\r\n    mapping(address => uint) balances;\r\n\r\n    string public name;\r\n    string public symbol;\r\n    uint8 public decimals;\r\n    uint256 public totalSupply;\r\n\r\n    // Function to access name of token .\r\n    function name() public view returns (string _name) {\r\n        return name;\r\n    }\r\n    // Function to access symbol of token .\r\n    function symbol() public view returns (string _symbol) {\r\n        return symbol;\r\n    }\r\n    // Function to access decimals of token .\r\n    function decimals() public view returns (uint8 _decimals) {\r\n        return decimals;\r\n    }\r\n    // Function to access total supply of tokens .\r\n    function totalSupply() public view returns (uint256 _totalSupply) {\r\n        return totalSupply;\r\n    }\r\n\r\n\r\n    // Function that is called when a user or another contract wants to transfer funds .\r\n    function transfer(address _to, uint _value, bytes _data, string _custom_fallback) public returns (bool success) {\r\n\r\n        if(isContract(_to)) {\r\n            if (balanceOf(msg.sender) < _value) revert();\r\n            balances[msg.sender] = balanceOf(msg.sender).sub(_value);\r\n            balances[_to] = balanceOf(_to).add(_value);\r\n            assert(_to.call.value(0)(bytes4(keccak256(_custom_fallback)), msg.sender, _value, _data));\r\n            emit Transfer(msg.sender, _to, _value, _data);\r\n            return true;\r\n        }\r\n        else {\r\n            return transferToAddress(_to, _value, _data);\r\n        }\r\n    }\r\n\r\n\r\n    // Function that is called when a user or another contract wants to transfer funds .\r\n    function transfer(address _to, uint _value, bytes _data) public returns (bool success) {\r\n\r\n        if(isContract(_to)) {\r\n            return transferToContract(_to, _value, _data);\r\n        }\r\n        else {\r\n            return transferToAddress(_to, _value, _data);\r\n        }\r\n    }\r\n\r\n    // Standard function transfer similar to ERC20 transfer with no _data .\r\n    // Added due to backwards compatibility reasons .\r\n    function transfer(address _to, uint _value) public returns (bool success) {\r\n\r\n        //standard function transfer similar to ERC20 transfer with no _data\r\n        //added due to backwards compatibility reasons\r\n        bytes memory empty;\r\n        if(isContract(_to)) {\r\n            return transferToContract(_to, _value, empty);\r\n        }\r\n        else {\r\n            return transferToAddress(_to, _value, empty);\r\n        }\r\n    }\r\n\r\n    //assemble the given address bytecode. If bytecode exists then the _addr is a contract.\r\n    function isContract(address _addr) private view returns (bool is_contract) {\r\n        uint length;\r\n        assembly {\r\n            //retrieve the size of the code on target address, this needs assembly\r\n            length := extcodesize(_addr)\r\n        }\r\n        return (length>0);\r\n    }\r\n\r\n    //function that is called when transaction target is an address\r\n    function transferToAddress(address _to, uint _value, bytes _data) private returns (bool success) {\r\n        if (balanceOf(msg.sender) < _value) revert();\r\n        balances[msg.sender] = balanceOf(msg.sender).sub(_value);\r\n        balances[_to] = balanceOf(_to).add(_value);\r\n        emit Transfer(msg.sender, _to, _value, _data);\r\n        return true;\r\n    }\r\n\r\n    //function that is called when transaction target is a contract\r\n    function transferToContract(address _to, uint _value, bytes _data) private returns (bool success) {\r\n        if (balanceOf(msg.sender) < _value) revert();\r\n        balances[msg.sender] = balanceOf(msg.sender).sub(_value);\r\n        balances[_to] = balanceOf(_to).add(_value);\r\n        ContractReceiver receiver = ContractReceiver(_to);\r\n        receiver.tokenFallback(msg.sender, _value, _data);\r\n        emit Transfer(msg.sender, _to, _value, _data);\r\n        return true;\r\n    }\r\n\r\n\r\n    function balanceOf(address _owner) public view returns (uint balance) {\r\n        return balances[_owner];\r\n    }\r\n}\r\n",
  "sourcePath": "/home/oed/uport/gluon-contracts/contracts/ERC223_Token.sol",
  "compiler": {
    "name": "solc",
    "version": "0.4.21+commit.dfe3193c.Emscripten.clang"
  },
  "schemaVersion": "2.0.0",
  "updatedAt": "2018-04-20T14:13:41.556Z"
}