{
  "contractName": "ERC223TokenFactory",
  "abi": [
    {
      "constant": true,
      "inputs": [
        {
          "name": "",
          "type": "address"
        },
        {
          "name": "",
          "type": "uint256"
        }
      ],
      "name": "created",
      "outputs": [
        {
          "name": "",
          "type": "address"
        }
      ],
      "payable": false,
      "stateMutability": "view",
      "type": "function"
    },
    {
      "constant": true,
      "inputs": [
        {
          "name": "_tokenContract",
          "type": "address"
        }
      ],
      "name": "verifyERC223Token",
      "outputs": [
        {
          "name": "",
          "type": "bool"
        }
      ],
      "payable": false,
      "stateMutability": "view",
      "type": "function"
    },
    {
      "constant": false,
      "inputs": [
        {
          "name": "_initialAmount",
          "type": "uint256"
        },
        {
          "name": "_name",
          "type": "string"
        },
        {
          "name": "_decimals",
          "type": "uint8"
        },
        {
          "name": "_symbol",
          "type": "string"
        }
      ],
      "name": "createERC223Token",
      "outputs": [
        {
          "name": "",
          "type": "address"
        }
      ],
      "payable": false,
      "stateMutability": "nonpayable",
      "type": "function"
    },
    {
      "constant": true,
      "inputs": [],
      "name": "humanStandardByteCode",
      "outputs": [
        {
          "name": "",
          "type": "bytes"
        }
      ],
      "payable": false,
      "stateMutability": "view",
      "type": "function"
    },
    {
      "constant": true,
      "inputs": [
        {
          "name": "",
          "type": "address"
        }
      ],
      "name": "isHumanToken",
      "outputs": [
        {
          "name": "",
          "type": "bool"
        }
      ],
      "payable": false,
      "stateMutability": "view",
      "type": "function"
    },
    {
      "inputs": [],
      "payable": false,
      "stateMutability": "nonpayable",
      "type": "constructor"
    }
  ],
  "bytecode": "0x606060405234156200001057600080fd5b6000620000a16127106040805190810160405280600c81526020017f56657269667920546f6b656e000000000000000000000000000000000000000081525060036040805190810160405280600381526020017f5654580000000000000000000000000000000000000000000000000000000000815250620000e164010000000002620004e0176401000000009004565b9050620000c281620003cd640100000000026200087d176401000000009004565b60029080519060200190620000d992919062000400565b505062000503565b60008085858585620000f262000487565b80858152602001806020018460ff1660ff16815260200180602001838103835286818151815260200191508051906020019080838360005b83811015620001475780820151818401526020810190506200012a565b50505050905090810190601f168015620001755780820380516001836020036101000a031916815260200191505b50838103825284818151815260200191508051906020019080838360005b83811015620001b057808201518184015260208101905062000193565b50505050905090810190601f168015620001de5780820380516001836020036101000a031916815260200191505b509650505050505050604051809103906000f0801515620001fe57600080fd5b90506000803373ffffffffffffffffffffffffffffffffffffffff1673ffffffffffffffffffffffffffffffffffffffff168152602001908152602001600020805480600101828162000252919062000498565b9160005260206000209001600083909190916101000a81548173ffffffffffffffffffffffffffffffffffffffff021916908373ffffffffffffffffffffffffffffffffffffffff1602179055505060018060008373ffffffffffffffffffffffffffffffffffffffff1673ffffffffffffffffffffffffffffffffffffffff16815260200190815260200160002060006101000a81548160ff0219169083151502179055508073ffffffffffffffffffffffffffffffffffffffff1663a9059cbb33886000604051602001526040518363ffffffff167c0100000000000000000000000000000000000000000000000000000000028152600401808373ffffffffffffffffffffffffffffffffffffffff1673ffffffffffffffffffffffffffffffffffffffff16815260200182815260200192505050602060405180830381600087803b1515620003a457600080fd5b6102c65a03f11515620003b657600080fd5b505050604051805190505080915050949350505050565b620003d7620004c7565b813b6040519150601f19601f602083010116820160405280825280600060208401853c50919050565b828054600181600116156101000203166002900490600052602060002090601f016020900481019282601f106200044357805160ff191683800117855562000474565b8280016001018555821562000474579182015b828111156200047357825182559160200191906001019062000456565b5b509050620004839190620004db565b5090565b6040516110af8062001f1183390190565b815481835581811511620004c257818360005260206000209182019101620004c19190620004db565b5b505050565b602060405190810160405280600081525090565b6200050091905b80821115620004fc576000816000905550600101620004e2565b5090565b90565b6119fe80620005136000396000f30060606040526004361061006d576000357c0100000000000000000000000000000000000000000000000000000000900463ffffffff1680635f8dead31461007257806377839a90146100f45780639c29966614610145578063acad94ae1461023a578063ddea6df3146102c8575b600080fd5b341561007d57600080fd5b6100b2600480803573ffffffffffffffffffffffffffffffffffffffff16906020019091908035906020019091905050610319565b604051808273ffffffffffffffffffffffffffffffffffffffff1673ffffffffffffffffffffffffffffffffffffffff16815260200191505060405180910390f35b34156100ff57600080fd5b61012b600480803573ffffffffffffffffffffffffffffffffffffffff16906020019091905050610367565b604051808215151515815260200191505060405180910390f35b341561015057600080fd5b6101f8600480803590602001909190803590602001908201803590602001908080601f0160208091040260200160405190810160405280939291908181526020018383808284378201915050505050509190803560ff1690602001909190803590602001908201803590602001908080601f016020809104026020016040519081016040528093929190818152602001838380828437820191505050505050919050506104e0565b604051808273ffffffffffffffffffffffffffffffffffffffff1673ffffffffffffffffffffffffffffffffffffffff16815260200191505060405180910390f35b341561024557600080fd5b61024d6107bf565b6040518080602001828103825283818151815260200191508051906020019080838360005b8381101561028d578082015181840152602081019050610272565b50505050905090810190601f1680156102ba5780820380516001836020036101000a031916815260200191505b509250505060405180910390f35b34156102d357600080fd5b6102ff600480803573ffffffffffffffffffffffffffffffffffffffff1690602001909190505061085d565b604051808215151515815260200191505060405180910390f35b60006020528160005260406000208181548110151561033457fe5b90600052602060002090016000915091509054906101000a900473ffffffffffffffffffffffffffffffffffffffff1681565b60006103716108ae565b600061037c8461087d565b9150600280546001816001161561010002031660029004905082511415156103a757600092506104d9565b600090505b81518110156104d45760028181546001816001161561010002031660029004811015156103d557fe5b8154600116156103f45790600052602060002090602091828204019190065b9054901a7f0100000000000000000000000000000000000000000000000000000000000000027effffffffffffffffffffffffffffffffffffffffffffffffffffffffffffff1916828281518110151561044a57fe5b9060200101517f010000000000000000000000000000000000000000000000000000000000000090047f0100000000000000000000000000000000000000000000000000000000000000027effffffffffffffffffffffffffffffffffffffffffffffffffffffffffffff19161415156104c757600092506104d9565b80806001019150506103ac565b600192505b5050919050565b600080858585856104ef6108c2565b80858152602001806020018460ff1660ff16815260200180602001838103835286818151815260200191508051906020019080838360005b83811015610542578082015181840152602081019050610527565b50505050905090810190601f16801561056f5780820380516001836020036101000a031916815260200191505b50838103825284818151815260200191508051906020019080838360005b838110156105a857808201518184015260208101905061058d565b50505050905090810190601f1680156105d55780820380516001836020036101000a031916815260200191505b509650505050505050604051809103906000f08015156105f457600080fd5b90506000803373ffffffffffffffffffffffffffffffffffffffff1673ffffffffffffffffffffffffffffffffffffffff168152602001908152602001600020805480600101828161064691906108d2565b9160005260206000209001600083909190916101000a81548173ffffffffffffffffffffffffffffffffffffffff021916908373ffffffffffffffffffffffffffffffffffffffff1602179055505060018060008373ffffffffffffffffffffffffffffffffffffffff1673ffffffffffffffffffffffffffffffffffffffff16815260200190815260200160002060006101000a81548160ff0219169083151502179055508073ffffffffffffffffffffffffffffffffffffffff1663a9059cbb33886000604051602001526040518363ffffffff167c0100000000000000000000000000000000000000000000000000000000028152600401808373ffffffffffffffffffffffffffffffffffffffff1673ffffffffffffffffffffffffffffffffffffffff16815260200182815260200192505050602060405180830381600087803b151561079757600080fd5b6102c65a03f115156107a857600080fd5b505050604051805190505080915050949350505050565b60028054600181600116156101000203166002900480601f0160208091040260200160405190810160405280929190818152602001828054600181600116156101000203166002900480156108555780601f1061082a57610100808354040283529160200191610855565b820191906000526020600020905b81548152906001019060200180831161083857829003601f168201915b505050505081565b60016020528060005260406000206000915054906101000a900460ff1681565b6108856108ae565b813b6040519150601f19601f602083010116820160405280825280600060208401853c50919050565b602060405190810160405280600081525090565b6040516110af8061092483390190565b8154818355818115116108f9578183600052602060002091820191016108f891906108fe565b5b505050565b61092091905b8082111561091c576000816000905550600101610904565b5090565b9056006060604052341561000f57600080fd5b604051620010af380380620010af8339810160405280805190602001909190805182019190602001805190602001909190805182019190505083600160003373ffffffffffffffffffffffffffffffffffffffff1673ffffffffffffffffffffffffffffffffffffffff168152602001908152602001600020819055508360058190555082600290805190602001906100a99291906100e5565b5081600460006101000a81548160ff021916908360ff16021790555080600390805190602001906100db9291906100e5565b505050505061018a565b828054600181600116156101000203166002900490600052602060002090601f016020900481019282601f1061012657805160ff1916838001178555610154565b82800160010185558215610154579182015b82811115610153578251825591602001919060010190610138565b5b5090506101619190610165565b5090565b61018791905b8082111561018357600081600090555060010161016b565b5090565b90565b610f15806200019a6000396000f300606060405260043610610099576000357c0100000000000000000000000000000000000000000000000000000000900463ffffffff16806306fdde031461009e57806318160ddd1461012c578063313ce5671461015557806333a581d21461018457806370a08231146101ad57806395d89b41146101fa578063a9059cbb14610288578063be45fd62146102e2578063f6368f8a1461037f575b600080fd5b34156100a957600080fd5b6100b161045f565b6040518080602001828103825283818151815260200191508051906020019080838360005b838110156100f15780820151818401526020810190506100d6565b50505050905090810190601f16801561011e5780820380516001836020036101000a031916815260200191505b509250505060405180910390f35b341561013757600080fd5b61013f610507565b6040518082815260200191505060405180910390f35b341561016057600080fd5b610168610511565b604051808260ff1660ff16815260200191505060405180910390f35b341561018f57600080fd5b610197610528565b6040518082815260200191505060405180910390f35b34156101b857600080fd5b6101e4600480803573ffffffffffffffffffffffffffffffffffffffff1690602001909190505061054c565b6040518082815260200191505060405180910390f35b341561020557600080fd5b61020d610595565b6040518080602001828103825283818151815260200191508051906020019080838360005b8381101561024d578082015181840152602081019050610232565b50505050905090810190601f16801561027a5780820380516001836020036101000a031916815260200191505b509250505060405180910390f35b341561029357600080fd5b6102c8600480803573ffffffffffffffffffffffffffffffffffffffff1690602001909190803590602001909190505061063d565b604051808215151515815260200191505060405180910390f35b34156102ed57600080fd5b610365600480803573ffffffffffffffffffffffffffffffffffffffff1690602001909190803590602001909190803590602001908201803590602001908080601f0160208091040260200160405190810160405280939291908181526020018383808284378201915050505050509190505061067c565b604051808215151515815260200191505060405180910390f35b341561038a57600080fd5b610445600480803573ffffffffffffffffffffffffffffffffffffffff1690602001909190803590602001909190803590602001908201803590602001908080601f0160208091040260200160405190810160405280939291908181526020018383808284378201915050505050509190803590602001908201803590602001908080601f016020809104026020016040519081016040528093929190818152602001838380828437820191505050505050919050506106b3565b604051808215151515815260200191505060405180910390f35b610467610ec1565b60028054600181600116156101000203166002900480601f0160208091040260200160405190810160405280929190818152602001828054600181600116156101000203166002900480156104fd5780601f106104d2576101008083540402835291602001916104fd565b820191906000526020600020905b8154815290600101906020018083116104e057829003601f168201915b5050505050905090565b6000600554905090565b6000600460009054906101000a900460ff16905090565b7fffffffffffffffffffffffffffffffffffffffffffffffffffffffffffffffff81565b6000600160008373ffffffffffffffffffffffffffffffffffffffff1673ffffffffffffffffffffffffffffffffffffffff168152602001908152602001600020549050919050565b61059d610ec1565b60038054600181600116156101000203166002900480601f0160208091040260200160405190810160405280929190818152602001828054600181600116156101000203166002900480156106335780601f1061060857610100808354040283529160200191610633565b820191906000526020600020905b81548152906001019060200180831161061657829003601f168201915b5050505050905090565b6000610647610ed5565b610650846109f4565b1561066757610660848483610a07565b9150610675565b610672848483610ccd565b91505b5092915050565b6000610687846109f4565b1561069e57610697848484610a07565b90506106ac565b6106a9848484610ccd565b90505b9392505050565b60006106be856109f4565b156109de57836106cd3361054c565b10156106d857600080fd5b6106ea6106e43361054c565b85610e6b565b600160003373ffffffffffffffffffffffffffffffffffffffff1673ffffffffffffffffffffffffffffffffffffffff1681526020019081526020016000208190555061073f6107398661054c565b85610e85565b600160008773ffffffffffffffffffffffffffffffffffffffff1673ffffffffffffffffffffffffffffffffffffffff168152602001908152602001600020819055508473ffffffffffffffffffffffffffffffffffffffff166000836040518082805190602001908083835b6020831015156107d157805182526020820191506020810190506020830392506107ac565b6001836020036101000a03801982511681845116808217855250505050505090500191505060405180910390207c01000000000000000000000000000000000000000000000000000000009004903387876040518563ffffffff167c0100000000000000000000000000000000000000000000000000000000028152600401808473ffffffffffffffffffffffffffffffffffffffff1673ffffffffffffffffffffffffffffffffffffffff168152602001838152602001828051906020019080838360005b838110156108b2578082015181840152602081019050610897565b50505050905090810190601f1680156108df5780820380516001836020036101000a031916815260200191505b50935050505060006040518083038185886187965a03f19350505050151561090357fe5b8473ffffffffffffffffffffffffffffffffffffffff163373ffffffffffffffffffffffffffffffffffffffff167fe19260aff97b920c7df27010903aeb9c8d2be5d310a2c67824cf3f15396e4c1686866040518083815260200180602001828103825283818151815260200191508051906020019080838360005b8381101561099a57808201518184015260208101905061097f565b50505050905090810190601f1680156109c75780820380516001836020036101000a031916815260200191505b50935050505060405180910390a3600190506109ec565b6109e9858585610ccd565b90505b949350505050565b600080823b905060008111915050919050565b60008083610a143361054c565b1015610a1f57600080fd5b610a31610a2b3361054c565b85610e6b565b600160003373ffffffffffffffffffffffffffffffffffffffff1673ffffffffffffffffffffffffffffffffffffffff16815260200190815260200160002081905550610a86610a808661054c565b85610e85565b600160008773ffffffffffffffffffffffffffffffffffffffff1673ffffffffffffffffffffffffffffffffffffffff168152602001908152602001600020819055508490508073ffffffffffffffffffffffffffffffffffffffff1663c0ee0b8a3386866040518463ffffffff167c0100000000000000000000000000000000000000000000000000000000028152600401808473ffffffffffffffffffffffffffffffffffffffff1673ffffffffffffffffffffffffffffffffffffffff16815260200183815260200180602001828103825283818151815260200191508051906020019080838360005b83811015610b8e578082015181840152602081019050610b73565b50505050905090810190601f168015610bbb5780820380516001836020036101000a031916815260200191505b50945050505050600060405180830381600087803b1515610bdb57600080fd5b6102c65a03f11515610bec57600080fd5b5050508473ffffffffffffffffffffffffffffffffffffffff163373ffffffffffffffffffffffffffffffffffffffff167fe19260aff97b920c7df27010903aeb9c8d2be5d310a2c67824cf3f15396e4c1686866040518083815260200180602001828103825283818151815260200191508051906020019080838360005b83811015610c86578082015181840152602081019050610c6b565b50505050905090810190601f168015610cb35780820380516001836020036101000a031916815260200191505b50935050505060405180910390a360019150509392505050565b600082610cd93361054c565b1015610ce457600080fd5b610cf6610cf03361054c565b84610e6b565b600160003373ffffffffffffffffffffffffffffffffffffffff1673ffffffffffffffffffffffffffffffffffffffff16815260200190815260200160002081905550610d4b610d458561054c565b84610e85565b600160008673ffffffffffffffffffffffffffffffffffffffff1673ffffffffffffffffffffffffffffffffffffffff168152602001908152602001600020819055508373ffffffffffffffffffffffffffffffffffffffff163373ffffffffffffffffffffffffffffffffffffffff167fe19260aff97b920c7df27010903aeb9c8d2be5d310a2c67824cf3f15396e4c1685856040518083815260200180602001828103825283818151815260200191508051906020019080838360005b83811015610e25578082015181840152602081019050610e0a565b50505050905090810190601f168015610e525780820380516001836020036101000a031916815260200191505b50935050505060405180910390a3600190509392505050565b600081831015610e7a57600080fd5b818303905092915050565b6000817fffffffffffffffffffffffffffffffffffffffffffffffffffffffffffffffff03831115610eb657600080fd5b818301905092915050565b602060405190810160405280600081525090565b6020604051908101604052806000815250905600a165627a7a7230582010fd7a975ff27833f624b7c829a27f2e019aaf1919ca2353038ba0365fc905d00029a165627a7a723058208f3c276c62474b59061b4a37b6176bdce99a1e0a1ff0bf3e245d1e11b924f83a00296060604052341561000f57600080fd5b604051620010af380380620010af8339810160405280805190602001909190805182019190602001805190602001909190805182019190505083600160003373ffffffffffffffffffffffffffffffffffffffff1673ffffffffffffffffffffffffffffffffffffffff168152602001908152602001600020819055508360058190555082600290805190602001906100a99291906100e5565b5081600460006101000a81548160ff021916908360ff16021790555080600390805190602001906100db9291906100e5565b505050505061018a565b828054600181600116156101000203166002900490600052602060002090601f016020900481019282601f1061012657805160ff1916838001178555610154565b82800160010185558215610154579182015b82811115610153578251825591602001919060010190610138565b5b5090506101619190610165565b5090565b61018791905b8082111561018357600081600090555060010161016b565b5090565b90565b610f15806200019a6000396000f300606060405260043610610099576000357c0100000000000000000000000000000000000000000000000000000000900463ffffffff16806306fdde031461009e57806318160ddd1461012c578063313ce5671461015557806333a581d21461018457806370a08231146101ad57806395d89b41146101fa578063a9059cbb14610288578063be45fd62146102e2578063f6368f8a1461037f575b600080fd5b34156100a957600080fd5b6100b161045f565b6040518080602001828103825283818151815260200191508051906020019080838360005b838110156100f15780820151818401526020810190506100d6565b50505050905090810190601f16801561011e5780820380516001836020036101000a031916815260200191505b509250505060405180910390f35b341561013757600080fd5b61013f610507565b6040518082815260200191505060405180910390f35b341561016057600080fd5b610168610511565b604051808260ff1660ff16815260200191505060405180910390f35b341561018f57600080fd5b610197610528565b6040518082815260200191505060405180910390f35b34156101b857600080fd5b6101e4600480803573ffffffffffffffffffffffffffffffffffffffff1690602001909190505061054c565b6040518082815260200191505060405180910390f35b341561020557600080fd5b61020d610595565b6040518080602001828103825283818151815260200191508051906020019080838360005b8381101561024d578082015181840152602081019050610232565b50505050905090810190601f16801561027a5780820380516001836020036101000a031916815260200191505b509250505060405180910390f35b341561029357600080fd5b6102c8600480803573ffffffffffffffffffffffffffffffffffffffff1690602001909190803590602001909190505061063d565b604051808215151515815260200191505060405180910390f35b34156102ed57600080fd5b610365600480803573ffffffffffffffffffffffffffffffffffffffff1690602001909190803590602001909190803590602001908201803590602001908080601f0160208091040260200160405190810160405280939291908181526020018383808284378201915050505050509190505061067c565b604051808215151515815260200191505060405180910390f35b341561038a57600080fd5b610445600480803573ffffffffffffffffffffffffffffffffffffffff1690602001909190803590602001909190803590602001908201803590602001908080601f0160208091040260200160405190810160405280939291908181526020018383808284378201915050505050509190803590602001908201803590602001908080601f016020809104026020016040519081016040528093929190818152602001838380828437820191505050505050919050506106b3565b604051808215151515815260200191505060405180910390f35b610467610ec1565b60028054600181600116156101000203166002900480601f0160208091040260200160405190810160405280929190818152602001828054600181600116156101000203166002900480156104fd5780601f106104d2576101008083540402835291602001916104fd565b820191906000526020600020905b8154815290600101906020018083116104e057829003601f168201915b5050505050905090565b6000600554905090565b6000600460009054906101000a900460ff16905090565b7fffffffffffffffffffffffffffffffffffffffffffffffffffffffffffffffff81565b6000600160008373ffffffffffffffffffffffffffffffffffffffff1673ffffffffffffffffffffffffffffffffffffffff168152602001908152602001600020549050919050565b61059d610ec1565b60038054600181600116156101000203166002900480601f0160208091040260200160405190810160405280929190818152602001828054600181600116156101000203166002900480156106335780601f1061060857610100808354040283529160200191610633565b820191906000526020600020905b81548152906001019060200180831161061657829003601f168201915b5050505050905090565b6000610647610ed5565b610650846109f4565b1561066757610660848483610a07565b9150610675565b610672848483610ccd565b91505b5092915050565b6000610687846109f4565b1561069e57610697848484610a07565b90506106ac565b6106a9848484610ccd565b90505b9392505050565b60006106be856109f4565b156109de57836106cd3361054c565b10156106d857600080fd5b6106ea6106e43361054c565b85610e6b565b600160003373ffffffffffffffffffffffffffffffffffffffff1673ffffffffffffffffffffffffffffffffffffffff1681526020019081526020016000208190555061073f6107398661054c565b85610e85565b600160008773ffffffffffffffffffffffffffffffffffffffff1673ffffffffffffffffffffffffffffffffffffffff168152602001908152602001600020819055508473ffffffffffffffffffffffffffffffffffffffff166000836040518082805190602001908083835b6020831015156107d157805182526020820191506020810190506020830392506107ac565b6001836020036101000a03801982511681845116808217855250505050505090500191505060405180910390207c01000000000000000000000000000000000000000000000000000000009004903387876040518563ffffffff167c0100000000000000000000000000000000000000000000000000000000028152600401808473ffffffffffffffffffffffffffffffffffffffff1673ffffffffffffffffffffffffffffffffffffffff168152602001838152602001828051906020019080838360005b838110156108b2578082015181840152602081019050610897565b50505050905090810190601f1680156108df5780820380516001836020036101000a031916815260200191505b50935050505060006040518083038185886187965a03f19350505050151561090357fe5b8473ffffffffffffffffffffffffffffffffffffffff163373ffffffffffffffffffffffffffffffffffffffff167fe19260aff97b920c7df27010903aeb9c8d2be5d310a2c67824cf3f15396e4c1686866040518083815260200180602001828103825283818151815260200191508051906020019080838360005b8381101561099a57808201518184015260208101905061097f565b50505050905090810190601f1680156109c75780820380516001836020036101000a031916815260200191505b50935050505060405180910390a3600190506109ec565b6109e9858585610ccd565b90505b949350505050565b600080823b905060008111915050919050565b60008083610a143361054c565b1015610a1f57600080fd5b610a31610a2b3361054c565b85610e6b565b600160003373ffffffffffffffffffffffffffffffffffffffff1673ffffffffffffffffffffffffffffffffffffffff16815260200190815260200160002081905550610a86610a808661054c565b85610e85565b600160008773ffffffffffffffffffffffffffffffffffffffff1673ffffffffffffffffffffffffffffffffffffffff168152602001908152602001600020819055508490508073ffffffffffffffffffffffffffffffffffffffff1663c0ee0b8a3386866040518463ffffffff167c0100000000000000000000000000000000000000000000000000000000028152600401808473ffffffffffffffffffffffffffffffffffffffff1673ffffffffffffffffffffffffffffffffffffffff16815260200183815260200180602001828103825283818151815260200191508051906020019080838360005b83811015610b8e578082015181840152602081019050610b73565b50505050905090810190601f168015610bbb5780820380516001836020036101000a031916815260200191505b50945050505050600060405180830381600087803b1515610bdb57600080fd5b6102c65a03f11515610bec57600080fd5b5050508473ffffffffffffffffffffffffffffffffffffffff163373ffffffffffffffffffffffffffffffffffffffff167fe19260aff97b920c7df27010903aeb9c8d2be5d310a2c67824cf3f15396e4c1686866040518083815260200180602001828103825283818151815260200191508051906020019080838360005b83811015610c86578082015181840152602081019050610c6b565b50505050905090810190601f168015610cb35780820380516001836020036101000a031916815260200191505b50935050505060405180910390a360019150509392505050565b600082610cd93361054c565b1015610ce457600080fd5b610cf6610cf03361054c565b84610e6b565b600160003373ffffffffffffffffffffffffffffffffffffffff1673ffffffffffffffffffffffffffffffffffffffff16815260200190815260200160002081905550610d4b610d458561054c565b84610e85565b600160008673ffffffffffffffffffffffffffffffffffffffff1673ffffffffffffffffffffffffffffffffffffffff168152602001908152602001600020819055508373ffffffffffffffffffffffffffffffffffffffff163373ffffffffffffffffffffffffffffffffffffffff167fe19260aff97b920c7df27010903aeb9c8d2be5d310a2c67824cf3f15396e4c1685856040518083815260200180602001828103825283818151815260200191508051906020019080838360005b83811015610e25578082015181840152602081019050610e0a565b50505050905090810190601f168015610e525780820380516001836020036101000a031916815260200191505b50935050505060405180910390a3600190509392505050565b600081831015610e7a57600080fd5b818303905092915050565b6000817fffffffffffffffffffffffffffffffffffffffffffffffffffffffffffffffff03831115610eb657600080fd5b818301905092915050565b602060405190810160405280600081525090565b6020604051908101604052806000815250905600a165627a7a7230582010fd7a975ff27833f624b7c829a27f2e019aaf1919ca2353038ba0365fc905d00029",
  "source": "import \"./ERC223_Token.sol\";\n\npragma solidity ^0.4.8;\n\ncontract ERC223TokenFactory {\n\n    mapping(address => address[]) public created;\n    mapping(address => bool) public isHumanToken; //verify without having to do a bytecode check.\n    bytes public humanStandardByteCode;\n\n    function ERC223TokenFactory() {\n      //upon creation of the factory, deploy a ERC223Token (parameters are meaningless) and store the bytecode provably.\n      address verifiedToken = createERC223Token(10000, \"Verify Token\", 3, \"VTX\");\n      humanStandardByteCode = codeAt(verifiedToken);\n    }\n\n    //verifies if a contract that has been deployed is a Human Standard Token.\n    //NOTE: This is a very expensive function, and should only be used in an eth_call. ~800k gas\n    function verifyERC223Token(address _tokenContract) constant returns (bool) {\n      bytes memory fetchedTokenByteCode = codeAt(_tokenContract);\n\n      if (fetchedTokenByteCode.length != humanStandardByteCode.length) {\n        return false; //clear mismatch\n      }\n\n      //starting iterating through it if lengths match\n      for (uint i = 0; i < fetchedTokenByteCode.length; i ++) {\n        if (fetchedTokenByteCode[i] != humanStandardByteCode[i]) {\n          return false;\n        }\n      }\n\n      return true;\n    }\n\n    //for now, keeping this internal. Ideally there should also be a live version of this that any contract can use, lib-style.\n    //retrieves the bytecode at a specific address.\n    function codeAt(address _addr) internal constant returns (bytes o_code) {\n      assembly {\n          // retrieve the size of the code, this needs assembly\n          let size := extcodesize(_addr)\n          // allocate output byte array - this could also be done without assembly\n          // by using o_code = new bytes(size)\n          o_code := mload(0x40)\n          // new \"memory end\" including padding\n          mstore(0x40, add(o_code, and(add(add(size, 0x20), 0x1f), not(0x1f))))\n          // store length in memory\n          mstore(o_code, size)\n          // actually retrieve the code, this needs assembly\n          extcodecopy(_addr, add(o_code, 0x20), 0, size)\n      }\n    }\n\n    function createERC223Token(uint256 _initialAmount, string _name, uint8 _decimals, string _symbol) returns (address) {\n\n        ERC223Token newToken = (new ERC223Token(_initialAmount, _name, _decimals, _symbol));\n        created[msg.sender].push(address(newToken));\n        isHumanToken[address(newToken)] = true;\n        newToken.transfer(msg.sender, _initialAmount); //the factory will own the created tokens. You must transfer them.\n        return address(newToken);\n    }\n}\n",
  "sourcePath": "/Users/simonas/dev/web3/gluon-erc233-contracts/contracts/ERC223_TokenFactory.sol",
  "compiler": {
    "name": "solc",
    "version": "0.4.18+commit.9cf6e910.Emscripten.clang"
  },
  "schemaVersion": "1.0.1",
  "updatedAt": "2018-01-23T10:04:13.990Z"
}