{
  "contractName": "ERC223Token",
  "abi": [
    {
      "anonymous": false,
      "inputs": [
        {
          "indexed": true,
          "name": "from",
          "type": "address"
        },
        {
          "indexed": true,
          "name": "to",
          "type": "address"
        },
        {
          "indexed": false,
          "name": "value",
          "type": "uint256"
        },
        {
          "indexed": false,
          "name": "data",
          "type": "bytes"
        }
      ],
      "name": "Transfer",
      "type": "event"
    },
    {
      "constant": true,
      "inputs": [],
      "name": "name",
      "outputs": [
        {
          "name": "_name",
          "type": "string"
        }
      ],
      "payable": false,
      "stateMutability": "view",
      "type": "function"
    },
    {
      "constant": true,
      "inputs": [],
      "name": "symbol",
      "outputs": [
        {
          "name": "_symbol",
          "type": "string"
        }
      ],
      "payable": false,
      "stateMutability": "view",
      "type": "function"
    },
    {
      "constant": true,
      "inputs": [],
      "name": "decimals",
      "outputs": [
        {
          "name": "_decimals",
          "type": "uint8"
        }
      ],
      "payable": false,
      "stateMutability": "view",
      "type": "function"
    },
    {
      "constant": true,
      "inputs": [],
      "name": "totalSupply",
      "outputs": [
        {
          "name": "_totalSupply",
          "type": "uint256"
        }
      ],
      "payable": false,
      "stateMutability": "view",
      "type": "function"
    },
    {
      "constant": false,
      "inputs": [
        {
          "name": "_to",
          "type": "address"
        },
        {
          "name": "_value",
          "type": "uint256"
        },
        {
          "name": "_data",
          "type": "bytes"
        }
      ],
      "name": "transfer",
      "outputs": [
        {
          "name": "success",
          "type": "bool"
        }
      ],
      "payable": false,
      "stateMutability": "nonpayable",
      "type": "function"
    },
    {
      "constant": true,
      "inputs": [
        {
          "name": "_owner",
          "type": "address"
        }
      ],
      "name": "balanceOf",
      "outputs": [
        {
          "name": "balance",
          "type": "uint256"
        }
      ],
      "payable": false,
      "stateMutability": "view",
      "type": "function"
    }
  ],
  "bytecode": "0x608060405234801561001057600080fd5b506109e3806100206000396000f300608060405260043610610078576000357c0100000000000000000000000000000000000000000000000000000000900463ffffffff16806306fdde031461007d57806318160ddd1461010d578063313ce5671461013857806370a082311461016957806395d89b41146101c0578063be45fd6214610250575b600080fd5b34801561008957600080fd5b506100926102fb565b6040518080602001828103825283818151815260200191508051906020019080838360005b838110156100d25780820151818401526020810190506100b7565b50505050905090810190601f1680156100ff5780820380516001836020036101000a031916815260200191505b509250505060405180910390f35b34801561011957600080fd5b5061012261039d565b6040518082815260200191505060405180910390f35b34801561014457600080fd5b5061014d6103a7565b604051808260ff1660ff16815260200191505060405180910390f35b34801561017557600080fd5b506101aa600480360381019080803573ffffffffffffffffffffffffffffffffffffffff1690602001909291905050506103be565b6040518082815260200191505060405180910390f35b3480156101cc57600080fd5b506101d5610407565b6040518080602001828103825283818151815260200191508051906020019080838360005b838110156102155780820151818401526020810190506101fa565b50505050905090810190601f1680156102425780820380516001836020036101000a031916815260200191505b509250505060405180910390f35b34801561025c57600080fd5b506102e1600480360381019080803573ffffffffffffffffffffffffffffffffffffffff16906020019092919080359060200190929190803590602001908201803590602001908080601f01602080910402602001604051908101604052809392919081815260200183838082843782019150505050505091929192905050506104a9565b604051808215151515815260200191505060405180910390f35b606060028054600181600116156101000203166002900480601f0160208091040260200160405190810160405280929190818152602001828054600181600116156101000203166002900480156103935780601f1061036857610100808354040283529160200191610393565b820191906000526020600020905b81548152906001019060200180831161037657829003601f168201915b5050505050905090565b6000600554905090565b6000600460009054906101000a900460ff16905090565b6000600160008373ffffffffffffffffffffffffffffffffffffffff1673ffffffffffffffffffffffffffffffffffffffff168152602001908152602001600020549050919050565b606060038054600181600116156101000203166002900480601f01602080910402602001604051908101604052809291908181526020018280546001816001161561010002031660029004801561049f5780601f106104745761010080835404028352916020019161049f565b820191906000526020600020905b81548152906001019060200180831161048257829003601f168201915b5050505050905090565b60006104b4846104e0565b156104cb576104c48484846104f3565b90506104d9565b6104d68484846107d0565b90505b9392505050565b600080823b905060008111915050919050565b60008083610500336103be565b101561050b57600080fd5b61052684610518336103be565b61098090919063ffffffff16565b600160003373ffffffffffffffffffffffffffffffffffffffff1673ffffffffffffffffffffffffffffffffffffffff1681526020019081526020016000208190555061058484610576876103be565b61099990919063ffffffff16565b600160008773ffffffffffffffffffffffffffffffffffffffff1673ffffffffffffffffffffffffffffffffffffffff168152602001908152602001600020819055508490508073ffffffffffffffffffffffffffffffffffffffff1663c0ee0b8a3386866040518463ffffffff167c0100000000000000000000000000000000000000000000000000000000028152600401808473ffffffffffffffffffffffffffffffffffffffff1673ffffffffffffffffffffffffffffffffffffffff16815260200183815260200180602001828103825283818151815260200191508051906020019080838360005b8381101561068c578082015181840152602081019050610671565b50505050905090810190601f1680156106b95780820380516001836020036101000a031916815260200191505b50945050505050600060405180830381600087803b1580156106da57600080fd5b505af11580156106ee573d6000803e3d6000fd5b505050508473ffffffffffffffffffffffffffffffffffffffff163373ffffffffffffffffffffffffffffffffffffffff167fe19260aff97b920c7df27010903aeb9c8d2be5d310a2c67824cf3f15396e4c1686866040518083815260200180602001828103825283818151815260200191508051906020019080838360005b8381101561078957808201518184015260208101905061076e565b50505050905090810190601f1680156107b65780820380516001836020036101000a031916815260200191505b50935050505060405180910390a360019150509392505050565b6000826107dc336103be565b10156107e757600080fd5b610802836107f4336103be565b61098090919063ffffffff16565b600160003373ffffffffffffffffffffffffffffffffffffffff1673ffffffffffffffffffffffffffffffffffffffff1681526020019081526020016000208190555061086083610852866103be565b61099990919063ffffffff16565b600160008673ffffffffffffffffffffffffffffffffffffffff1673ffffffffffffffffffffffffffffffffffffffff168152602001908152602001600020819055508373ffffffffffffffffffffffffffffffffffffffff163373ffffffffffffffffffffffffffffffffffffffff167fe19260aff97b920c7df27010903aeb9c8d2be5d310a2c67824cf3f15396e4c1685856040518083815260200180602001828103825283818151815260200191508051906020019080838360005b8381101561093a57808201518184015260208101905061091f565b50505050905090810190601f1680156109675780820380516001836020036101000a031916815260200191505b50935050505060405180910390a3600190509392505050565b600082821115151561098e57fe5b818303905092915050565b60008082840190508381101515156109ad57fe5b80915050929150505600a165627a7a723058202cf5019313372bdde946cff853e8ad67fb566bb244d4f6f6498068effeb88fc00029",
  "source": "pragma solidity ^0.4.9;\r\n\r\nimport \"./Receiver_Interface.sol\";\r\nimport \"./ERC223_Interface.sol\";\r\nimport \"zeppelin/contracts/math/SafeMath.sol\";\r\n\r\n/**\r\n * ERC23 token by Dexaran\r\n *\r\n * https://github.com/Dexaran/ERC23-tokens\r\n */\r\n\r\n\r\ncontract ERC223Token is ERC223 {\r\n  using SafeMath for uint256;\r\n\r\n    mapping(address => uint) balances;\r\n\r\n    string public name;\r\n    string public symbol;\r\n    uint8 public decimals;\r\n    uint256 public totalSupply;\r\n\r\n    // Function to access name of token .\r\n    function name() public view returns (string _name) {\r\n        return name;\r\n    }\r\n    // Function to access symbol of token .\r\n    function symbol() public view returns (string _symbol) {\r\n        return symbol;\r\n    }\r\n    // Function to access decimals of token .\r\n    function decimals() public view returns (uint8 _decimals) {\r\n        return decimals;\r\n    }\r\n    // Function to access total supply of tokens .\r\n    function totalSupply() public view returns (uint256 _totalSupply) {\r\n        return totalSupply;\r\n    }\r\n\r\n\r\n    /*// Function that is called when a user or another contract wants to transfer funds .*/\r\n    /*function transfer(address _to, uint _value, bytes _data, string _custom_fallback) public returns (bool success) {*/\r\n\r\n        /*if(isContract(_to)) {*/\r\n            /*if (balanceOf(msg.sender) < _value) revert();*/\r\n            /*balances[msg.sender] = balanceOf(msg.sender).sub(_value);*/\r\n            /*balances[_to] = balanceOf(_to).add(_value);*/\r\n            /*assert(_to.call.value(0)(bytes4(keccak256(_custom_fallback)), msg.sender, _value, _data));*/\r\n            /*emit Transfer(msg.sender, _to, _value, _data);*/\r\n            /*return true;*/\r\n        /*}*/\r\n        /*else {*/\r\n            /*return transferToAddress(_to, _value, _data);*/\r\n        /*}*/\r\n    /*}*/\r\n\r\n\r\n    // Function that is called when a user or another contract wants to transfer funds .\r\n    function transfer(address _to, uint _value, bytes _data) public returns (bool success) {\r\n\r\n        if(isContract(_to)) {\r\n            return transferToContract(_to, _value, _data);\r\n        }\r\n        else {\r\n            return transferToAddress(_to, _value, _data);\r\n        }\r\n    }\r\n\r\n    // Standard function transfer similar to ERC20 transfer with no _data .\r\n    // Added due to backwards compatibility reasons .\r\n    /*function transfer(address _to, uint _value) public returns (bool success) {*/\r\n\r\n        /*//standard function transfer similar to ERC20 transfer with no _data*/\r\n        /*//added due to backwards compatibility reasons*/\r\n        /*bytes memory empty;*/\r\n        /*if(isContract(_to)) {*/\r\n            /*return transferToContract(_to, _value, empty);*/\r\n        /*}*/\r\n        /*else {*/\r\n            /*return transferToAddress(_to, _value, empty);*/\r\n        /*}*/\r\n    /*}*/\r\n\r\n    //assemble the given address bytecode. If bytecode exists then the _addr is a contract.\r\n    function isContract(address _addr) private view returns (bool is_contract) {\r\n        uint length;\r\n        assembly {\r\n            //retrieve the size of the code on target address, this needs assembly\r\n            length := extcodesize(_addr)\r\n        }\r\n        return (length>0);\r\n    }\r\n\r\n    //function that is called when transaction target is an address\r\n    function transferToAddress(address _to, uint _value, bytes _data) private returns (bool success) {\r\n        if (balanceOf(msg.sender) < _value) revert();\r\n        balances[msg.sender] = balanceOf(msg.sender).sub(_value);\r\n        balances[_to] = balanceOf(_to).add(_value);\r\n        emit Transfer(msg.sender, _to, _value, _data);\r\n        return true;\r\n    }\r\n\r\n    //function that is called when transaction target is a contract\r\n    function transferToContract(address _to, uint _value, bytes _data) private returns (bool success) {\r\n        if (balanceOf(msg.sender) < _value) revert();\r\n        balances[msg.sender] = balanceOf(msg.sender).sub(_value);\r\n        balances[_to] = balanceOf(_to).add(_value);\r\n        ContractReceiver receiver = ContractReceiver(_to);\r\n        receiver.tokenFallback(msg.sender, _value, _data);\r\n        emit Transfer(msg.sender, _to, _value, _data);\r\n        return true;\r\n    }\r\n\r\n\r\n    function balanceOf(address _owner) public view returns (uint balance) {\r\n        return balances[_owner];\r\n    }\r\n}\r\n",
  "sourcePath": "/Users/oed/uport/gluon-contracts/contracts/ERC223_Token.sol",
  "compiler": {
    "name": "solc",
    "version": "0.4.24+commit.e67f0147.Emscripten.clang"
  },
  "schemaVersion": "2.0.1",
  "updatedAt": "2018-08-17T11:23:17.399Z"
}