{
  "contractName": "GluonToken",
  "abi": [
    {
      "constant": true,
      "inputs": [],
      "name": "name",
      "outputs": [
        {
          "name": "_name",
          "type": "string"
        }
      ],
      "payable": false,
      "stateMutability": "view",
      "type": "function"
    },
    {
      "constant": true,
      "inputs": [],
      "name": "totalSupply",
      "outputs": [
        {
          "name": "_totalSupply",
          "type": "uint256"
        }
      ],
      "payable": false,
      "stateMutability": "view",
      "type": "function"
    },
    {
      "constant": true,
      "inputs": [],
      "name": "decimals",
      "outputs": [
        {
          "name": "_decimals",
          "type": "uint8"
        }
      ],
      "payable": false,
      "stateMutability": "view",
      "type": "function"
    },
    {
      "constant": true,
      "inputs": [],
      "name": "exponent",
      "outputs": [
        {
          "name": "",
          "type": "uint8"
        }
      ],
      "payable": false,
      "stateMutability": "view",
      "type": "function"
    },
    {
      "constant": true,
      "inputs": [
        {
          "name": "_owner",
          "type": "address"
        }
      ],
      "name": "balanceOf",
      "outputs": [
        {
          "name": "balance",
          "type": "uint256"
        }
      ],
      "payable": false,
      "stateMutability": "view",
      "type": "function"
    },
    {
      "constant": true,
      "inputs": [],
      "name": "owner",
      "outputs": [
        {
          "name": "",
          "type": "address"
        }
      ],
      "payable": false,
      "stateMutability": "view",
      "type": "function"
    },
    {
      "constant": true,
      "inputs": [],
      "name": "symbol",
      "outputs": [
        {
          "name": "_symbol",
          "type": "string"
        }
      ],
      "payable": false,
      "stateMutability": "view",
      "type": "function"
    },
    {
      "constant": true,
      "inputs": [],
      "name": "poolBalance",
      "outputs": [
        {
          "name": "",
          "type": "uint256"
        }
      ],
      "payable": false,
      "stateMutability": "view",
      "type": "function"
    },
    {
      "constant": false,
      "inputs": [
        {
          "name": "_to",
          "type": "address"
        },
        {
          "name": "_value",
          "type": "uint256"
        },
        {
          "name": "_data",
          "type": "bytes"
        }
      ],
      "name": "transfer",
      "outputs": [
        {
          "name": "success",
          "type": "bool"
        }
      ],
      "payable": false,
      "stateMutability": "nonpayable",
      "type": "function"
    },
    {
      "constant": false,
      "inputs": [
        {
          "name": "newOwner",
          "type": "address"
        }
      ],
      "name": "transferOwnership",
      "outputs": [],
      "payable": false,
      "stateMutability": "nonpayable",
      "type": "function"
    },
    {
      "inputs": [
        {
          "name": "_tokenName",
          "type": "string"
        },
        {
          "name": "_decimalUnits",
          "type": "uint8"
        },
        {
          "name": "_tokenSymbol",
          "type": "string"
        },
        {
          "name": "_exponent",
          "type": "uint8"
        }
      ],
      "payable": true,
      "stateMutability": "payable",
      "type": "constructor"
    },
    {
      "anonymous": false,
      "inputs": [
        {
          "indexed": false,
          "name": "amount",
          "type": "uint256"
        },
        {
          "indexed": false,
          "name": "totalCost",
          "type": "uint256"
        }
      ],
      "name": "Minted",
      "type": "event"
    },
    {
      "anonymous": false,
      "inputs": [
        {
          "indexed": false,
          "name": "amount",
          "type": "uint256"
        },
        {
          "indexed": false,
          "name": "reward",
          "type": "uint256"
        }
      ],
      "name": "Burned",
      "type": "event"
    },
    {
      "anonymous": false,
      "inputs": [
        {
          "indexed": true,
          "name": "previousOwner",
          "type": "address"
        },
        {
          "indexed": true,
          "name": "newOwner",
          "type": "address"
        }
      ],
      "name": "OwnershipTransferred",
      "type": "event"
    },
    {
      "anonymous": false,
      "inputs": [
        {
          "indexed": true,
          "name": "from",
          "type": "address"
        },
        {
          "indexed": true,
          "name": "to",
          "type": "address"
        },
        {
          "indexed": false,
          "name": "value",
          "type": "uint256"
        },
        {
          "indexed": false,
          "name": "data",
          "type": "bytes"
        }
      ],
      "name": "Transfer",
      "type": "event"
    },
    {
      "constant": false,
      "inputs": [
        {
          "name": "numTokens",
          "type": "uint256"
        }
      ],
      "name": "priceToMint",
      "outputs": [
        {
          "name": "",
          "type": "uint256"
        }
      ],
      "payable": false,
      "stateMutability": "nonpayable",
      "type": "function"
    },
    {
      "constant": false,
      "inputs": [
        {
          "name": "numTokens",
          "type": "uint256"
        }
      ],
      "name": "rewardForBurn",
      "outputs": [
        {
          "name": "",
          "type": "uint256"
        }
      ],
      "payable": false,
      "stateMutability": "nonpayable",
      "type": "function"
    },
    {
      "constant": false,
      "inputs": [
        {
          "name": "numTokens",
          "type": "uint256"
        }
      ],
      "name": "mint",
      "outputs": [],
      "payable": true,
      "stateMutability": "payable",
      "type": "function"
    },
    {
      "constant": false,
      "inputs": [
        {
          "name": "numTokens",
          "type": "uint256"
        }
      ],
      "name": "burn",
      "outputs": [],
      "payable": false,
      "stateMutability": "nonpayable",
      "type": "function"
    }
  ],
  "bytecode": "0x6060604052604051620012cb380380620012cb8339810160405280805182019190602001805190602001909190805182019190602001805190602001909190505033600660006101000a81548173ffffffffffffffffffffffffffffffffffffffff021916908373ffffffffffffffffffffffffffffffffffffffff160217905550836002908051906020019062000099929190620000f3565b5082600460006101000a81548160ff021916908360ff1602179055508160039080519060200190620000cd929190620000f3565b5080600860006101000a81548160ff021916908360ff16021790555050505050620001a2565b828054600181600116156101000203166002900490600052602060002090601f016020900481019282601f106200013657805160ff191683800117855562000167565b8280016001018555821562000167579182015b828111156200016657825182559160200191906001019062000149565b5b5090506200017691906200017a565b5090565b6200019f91905b808211156200019b57600081600090555060010162000181565b5090565b90565b61111980620001b26000396000f3006060604052600436106100d0576000357c0100000000000000000000000000000000000000000000000000000000900463ffffffff16806306fdde03146100d557806318160ddd14610163578063313ce5671461018c57806342966c68146101bb57806352f6ee58146101de57806370a082311461020d5780638da5cb5b1461025a57806395d89b41146102af57806396365d441461033d578063a0712d6814610366578063b9d367431461037e578063be45fd62146103b5578063c544682b14610452578063f2fde38b14610489575b600080fd5b34156100e057600080fd5b6100e86104c2565b6040518080602001828103825283818151815260200191508051906020019080838360005b8381101561012857808201518184015260208101905061010d565b50505050905090810190601f1680156101555780820380516001836020036101000a031916815260200191505b509250505060405180910390f35b341561016e57600080fd5b61017661056a565b6040518082815260200191505060405180910390f35b341561019757600080fd5b61019f610574565b604051808260ff1660ff16815260200191505060405180910390f35b34156101c657600080fd5b6101dc600480803590602001909190505061058b565b005b34156101e957600080fd5b6101f1610734565b604051808260ff1660ff16815260200191505060405180910390f35b341561021857600080fd5b610244600480803573ffffffffffffffffffffffffffffffffffffffff16906020019091905050610747565b6040518082815260200191505060405180910390f35b341561026557600080fd5b61026d610790565b604051808273ffffffffffffffffffffffffffffffffffffffff1673ffffffffffffffffffffffffffffffffffffffff16815260200191505060405180910390f35b34156102ba57600080fd5b6102c26107b6565b6040518080602001828103825283818151815260200191508051906020019080838360005b838110156103025780820151818401526020810190506102e7565b50505050905090810190601f16801561032f5780820380516001836020036101000a031916815260200191505b509250505060405180910390f35b341561034857600080fd5b61035061085e565b6040518082815260200191505060405180910390f35b61037c6004808035906020019091905050610864565b005b341561038957600080fd5b61039f600480803590602001909190505061098e565b6040518082815260200191505060405180910390f35b34156103c057600080fd5b610438600480803573ffffffffffffffffffffffffffffffffffffffff1690602001909190803590602001909190803590602001908201803590602001908080601f016020809104026020016040519081016040528093929190818152602001838380828437820191505050505050919050506109a8565b604051808215151515815260200191505060405180910390f35b341561045d57600080fd5b61047360048080359060200190919050506109df565b6040518082815260200191505060405180910390f35b341561049457600080fd5b6104c0600480803573ffffffffffffffffffffffffffffffffffffffff169060200190919050506109f9565b005b6104ca6110d9565b60028054600181600116156101000203166002900480601f0160208091040260200160405190810160405280929190818152602001828054600181600116156101000203166002900480156105605780601f1061053557610100808354040283529160200191610560565b820191906000526020600020905b81548152906001019060200180831161054357829003601f168201915b5050505050905090565b6000600554905090565b6000600460009054906101000a900460ff16905090565b600081600160003373ffffffffffffffffffffffffffffffffffffffff1673ffffffffffffffffffffffffffffffffffffffff16815260200190815260200160002054101515156105db57600080fd5b6105e4826109df565b90506105fb82600554610b5190919063ffffffff16565b60058190555061065382600160003373ffffffffffffffffffffffffffffffffffffffff1673ffffffffffffffffffffffffffffffffffffffff16815260200190815260200160002054610b5190919063ffffffff16565b600160003373ffffffffffffffffffffffffffffffffffffffff1673ffffffffffffffffffffffffffffffffffffffff168152602001908152602001600020819055506106ab81600754610b5190919063ffffffff16565b6007819055503373ffffffffffffffffffffffffffffffffffffffff166108fc829081150290604051600060405180830381858888f1935050505015156106f157600080fd5b7fcec1bae6e024d929f2929f3478ce70f55f9c636c8ef7b5073a61d7c3a432451b8282604051808381526020018281526020019250505060405180910390a15050565b600860009054906101000a900460ff1681565b6000600160008373ffffffffffffffffffffffffffffffffffffffff1673ffffffffffffffffffffffffffffffffffffffff168152602001908152602001600020549050919050565b600660009054906101000a900473ffffffffffffffffffffffffffffffffffffffff1681565b6107be6110d9565b60038054600181600116156101000203166002900480601f0160208091040260200160405190810160405280929190818152602001828054600181600116156101000203166002900480156108545780601f1061082957610100808354040283529160200191610854565b820191906000526020600020905b81548152906001019060200180831161083757829003601f168201915b5050505050905090565b60075481565b600061086f8261098e565b905080341015151561088057600080fd5b61089582600554610b6a90919063ffffffff16565b6005819055506108ed82600160003373ffffffffffffffffffffffffffffffffffffffff1673ffffffffffffffffffffffffffffffffffffffff16815260200190815260200160002054610b6a90919063ffffffff16565b600160003373ffffffffffffffffffffffffffffffffffffffff1673ffffffffffffffffffffffffffffffffffffffff1681526020019081526020016000208190555061094534600754610b6a90919063ffffffff16565b6007819055507f8a9dcf4e150b1153011b29fec302d5be0c13e84fa8f56ab78587f778a32a90dd8234604051808381526020018281526020019250505060405180910390a15050565b60006007546109a08360055401610b88565b039050919050565b60006109b384610bf4565b156109ca576109c3848484610c07565b90506109d8565b6109d5848484610edb565b90505b9392505050565b60006109ee8260055403610b88565b600754039050919050565b600660009054906101000a900473ffffffffffffffffffffffffffffffffffffffff1673ffffffffffffffffffffffffffffffffffffffff163373ffffffffffffffffffffffffffffffffffffffff16141515610a5557600080fd5b600073ffffffffffffffffffffffffffffffffffffffff168173ffffffffffffffffffffffffffffffffffffffff1614151515610a9157600080fd5b8073ffffffffffffffffffffffffffffffffffffffff16600660009054906101000a900473ffffffffffffffffffffffffffffffffffffffff1673ffffffffffffffffffffffffffffffffffffffff167f8be0079c531659141344cd1fd0a4f28419497f9722a3daafe3b4186f6b6457e060405160405180910390a380600660006101000a81548173ffffffffffffffffffffffffffffffffffffffff021916908373ffffffffffffffffffffffffffffffffffffffff16021790555050565b6000828211151515610b5f57fe5b818303905092915050565b6000808284019050838110151515610b7e57fe5b8091505092915050565b6000806000806402540be40092506001600860009054906101000a900460ff160160ff16915081850a9050610bea83610bdc83610bce868861108b90919063ffffffff16565b6110a690919063ffffffff16565b61108b90919063ffffffff16565b9350505050919050565b600080823b905060008111915050919050565b60008083610c1433610747565b1015610c1f57600080fd5b610c3a84610c2c33610747565b610b5190919063ffffffff16565b600160003373ffffffffffffffffffffffffffffffffffffffff1673ffffffffffffffffffffffffffffffffffffffff16815260200190815260200160002081905550610c9884610c8a87610747565b610b6a90919063ffffffff16565b600160008773ffffffffffffffffffffffffffffffffffffffff1673ffffffffffffffffffffffffffffffffffffffff168152602001908152602001600020819055508490508073ffffffffffffffffffffffffffffffffffffffff1663c0ee0b8a3386866040518463ffffffff167c0100000000000000000000000000000000000000000000000000000000028152600401808473ffffffffffffffffffffffffffffffffffffffff1673ffffffffffffffffffffffffffffffffffffffff16815260200183815260200180602001828103825283818151815260200191508051906020019080838360005b83811015610da0578082015181840152602081019050610d85565b50505050905090810190601f168015610dcd5780820380516001836020036101000a031916815260200191505b50945050505050600060405180830381600087803b1515610ded57600080fd5b5af11515610dfa57600080fd5b5050508473ffffffffffffffffffffffffffffffffffffffff163373ffffffffffffffffffffffffffffffffffffffff167fe19260aff97b920c7df27010903aeb9c8d2be5d310a2c67824cf3f15396e4c1686866040518083815260200180602001828103825283818151815260200191508051906020019080838360005b83811015610e94578082015181840152602081019050610e79565b50505050905090810190601f168015610ec15780820380516001836020036101000a031916815260200191505b50935050505060405180910390a360019150509392505050565b600082610ee733610747565b1015610ef257600080fd5b610f0d83610eff33610747565b610b5190919063ffffffff16565b600160003373ffffffffffffffffffffffffffffffffffffffff1673ffffffffffffffffffffffffffffffffffffffff16815260200190815260200160002081905550610f6b83610f5d86610747565b610b6a90919063ffffffff16565b600160008673ffffffffffffffffffffffffffffffffffffffff1673ffffffffffffffffffffffffffffffffffffffff168152602001908152602001600020819055508373ffffffffffffffffffffffffffffffffffffffff163373ffffffffffffffffffffffffffffffffffffffff167fe19260aff97b920c7df27010903aeb9c8d2be5d310a2c67824cf3f15396e4c1685856040518083815260200180602001828103825283818151815260200191508051906020019080838360005b8381101561104557808201518184015260208101905061102a565b50505050905090810190601f1680156110725780820380516001836020036101000a031916815260200191505b50935050505060405180910390a3600190509392505050565b600080828481151561109957fe5b0490508091505092915050565b600080828402905060008414806110c757508284828115156110c457fe5b04145b15156110cf57fe5b8091505092915050565b6020604051908101604052806000815250905600a165627a7a7230582019c328a5ccc10d70aede21061a59e93e688a368d54729ef7b0d2366088dee9e00029",
  "source": "pragma solidity ^0.4.18;\n\nimport \"zeppelin/contracts/ownership/Ownable.sol\";\nimport \"./ERC223_Token.sol\";\n\n\n/**\n * @title Gluon Token\n */\ncontract GluonToken is ERC223Token, Ownable {\n\n    uint256 public poolBalance;\n\n    uint8 public exponent;\n\n    function GluonToken(\n        string _tokenName,\n        uint8 _decimalUnits,\n        string _tokenSymbol,\n        uint8 _exponent\n    ) public payable {\n        name = _tokenName;                                   // Set the name for display purposes\n        decimals = _decimalUnits;                            // Amount of decimals for display purposes\n        symbol = _tokenSymbol;                               // Set the symbol for display purposes\n        exponent = _exponent;\n    }\n\n    // TODO - this should be located in an external contract so the curve can be switched out\n    function curveIntegral(uint256 t) internal returns (uint256) {\n        uint256 one = 10000000000;\n        uint256 nexp = exponent + 1;\n        uint256 x = t ** nexp;\n        // TODO - check for overflow in power function\n        return one.div(nexp).mul(x).div(one);\n    }\n\n    function priceToMint(uint256 numTokens) public returns(uint256) {\n        return curveIntegral(totalSupply + numTokens) - poolBalance;\n    }\n\n    function rewardForBurn(uint256 numTokens) public returns(uint256) {\n        return poolBalance - curveIntegral(totalSupply - numTokens);\n    }\n\n    function mint(uint256 numTokens) public payable {\n        uint256 priceForTokens = priceToMint(numTokens);\n        require(msg.value >= priceForTokens);\n\n        totalSupply = totalSupply.add(numTokens);\n        balances[msg.sender] = balances[msg.sender].add(numTokens);\n        poolBalance = poolBalance.add(msg.value);\n        // TODO - send back any additional ether\n        emit Minted(numTokens, msg.value);\n    }\n\n    function burn(uint256 numTokens) public {\n        require(balances[msg.sender] >= numTokens);\n        uint256 ethToReturn = rewardForBurn(numTokens);\n        totalSupply = totalSupply.sub(numTokens);\n        balances[msg.sender] = balances[msg.sender].sub(numTokens);\n        poolBalance = poolBalance.sub(ethToReturn);\n        msg.sender.transfer(ethToReturn);\n\n        emit Burned(numTokens, ethToReturn);\n    }\n\n    event Minted(uint256 amount, uint256 totalCost);\n    event Burned(uint256 amount, uint256 reward);\n}\n",
  "sourcePath": "/home/oed/uport/gluon-contracts/contracts/GluonToken.sol",
  "compiler": {
    "name": "solc",
    "version": "0.4.21+commit.dfe3193c.Emscripten.clang"
  },
  "schemaVersion": "2.0.0",
  "updatedAt": "2018-05-25T14:09:00.328Z"
}