{
  "contractName": "GluonToken",
  "abi": [
    {
      "constant": true,
      "inputs": [],
      "name": "name",
      "outputs": [
        {
          "name": "_name",
          "type": "string"
        }
      ],
      "payable": false,
      "stateMutability": "view",
      "type": "function"
    },
    {
      "constant": true,
      "inputs": [],
      "name": "totalSupply",
      "outputs": [
        {
          "name": "_totalSupply",
          "type": "uint256"
        }
      ],
      "payable": false,
      "stateMutability": "view",
      "type": "function"
    },
    {
      "constant": true,
      "inputs": [],
      "name": "decimals",
      "outputs": [
        {
          "name": "_decimals",
          "type": "uint8"
        }
      ],
      "payable": false,
      "stateMutability": "view",
      "type": "function"
    },
    {
      "constant": true,
      "inputs": [],
      "name": "exponent",
      "outputs": [
        {
          "name": "",
          "type": "uint8"
        }
      ],
      "payable": false,
      "stateMutability": "view",
      "type": "function"
    },
    {
      "constant": true,
      "inputs": [
        {
          "name": "_owner",
          "type": "address"
        }
      ],
      "name": "balanceOf",
      "outputs": [
        {
          "name": "balance",
          "type": "uint256"
        }
      ],
      "payable": false,
      "stateMutability": "view",
      "type": "function"
    },
    {
      "constant": true,
      "inputs": [],
      "name": "owner",
      "outputs": [
        {
          "name": "",
          "type": "address"
        }
      ],
      "payable": false,
      "stateMutability": "view",
      "type": "function"
    },
    {
      "constant": true,
      "inputs": [],
      "name": "symbol",
      "outputs": [
        {
          "name": "_symbol",
          "type": "string"
        }
      ],
      "payable": false,
      "stateMutability": "view",
      "type": "function"
    },
    {
      "constant": true,
      "inputs": [],
      "name": "poolBalance",
      "outputs": [
        {
          "name": "",
          "type": "uint256"
        }
      ],
      "payable": false,
      "stateMutability": "view",
      "type": "function"
    },
    {
      "constant": false,
      "inputs": [
        {
          "name": "_to",
          "type": "address"
        },
        {
          "name": "_value",
          "type": "uint256"
        },
        {
          "name": "_data",
          "type": "bytes"
        }
      ],
      "name": "transfer",
      "outputs": [
        {
          "name": "success",
          "type": "bool"
        }
      ],
      "payable": false,
      "stateMutability": "nonpayable",
      "type": "function"
    },
    {
      "constant": false,
      "inputs": [
        {
          "name": "newOwner",
          "type": "address"
        }
      ],
      "name": "transferOwnership",
      "outputs": [],
      "payable": false,
      "stateMutability": "nonpayable",
      "type": "function"
    },
    {
      "inputs": [
        {
          "name": "_tokenName",
          "type": "string"
        },
        {
          "name": "_decimalUnits",
          "type": "uint8"
        },
        {
          "name": "_tokenSymbol",
          "type": "string"
        },
        {
          "name": "_exponent",
          "type": "uint8"
        }
      ],
      "payable": true,
      "stateMutability": "payable",
      "type": "constructor"
    },
    {
      "anonymous": false,
      "inputs": [
        {
          "indexed": false,
          "name": "amount",
          "type": "uint256"
        },
        {
          "indexed": false,
          "name": "totalCost",
          "type": "uint256"
        }
      ],
      "name": "Minted",
      "type": "event"
    },
    {
      "anonymous": false,
      "inputs": [
        {
          "indexed": false,
          "name": "amount",
          "type": "uint256"
        },
        {
          "indexed": false,
          "name": "reward",
          "type": "uint256"
        }
      ],
      "name": "Burned",
      "type": "event"
    },
    {
      "anonymous": false,
      "inputs": [
        {
          "indexed": true,
          "name": "previousOwner",
          "type": "address"
        },
        {
          "indexed": true,
          "name": "newOwner",
          "type": "address"
        }
      ],
      "name": "OwnershipTransferred",
      "type": "event"
    },
    {
      "anonymous": false,
      "inputs": [
        {
          "indexed": true,
          "name": "from",
          "type": "address"
        },
        {
          "indexed": true,
          "name": "to",
          "type": "address"
        },
        {
          "indexed": false,
          "name": "value",
          "type": "uint256"
        },
        {
          "indexed": false,
          "name": "data",
          "type": "bytes"
        }
      ],
      "name": "Transfer",
      "type": "event"
    },
    {
      "constant": false,
      "inputs": [
        {
          "name": "numTokens",
          "type": "uint256"
        }
      ],
      "name": "priceToMint",
      "outputs": [
        {
          "name": "",
          "type": "uint256"
        }
      ],
      "payable": false,
      "stateMutability": "nonpayable",
      "type": "function"
    },
    {
      "constant": false,
      "inputs": [
        {
          "name": "numTokens",
          "type": "uint256"
        }
      ],
      "name": "rewardForBurn",
      "outputs": [
        {
          "name": "",
          "type": "uint256"
        }
      ],
      "payable": false,
      "stateMutability": "nonpayable",
      "type": "function"
    },
    {
      "constant": false,
      "inputs": [
        {
          "name": "numTokens",
          "type": "uint256"
        }
      ],
      "name": "mint",
      "outputs": [],
      "payable": true,
      "stateMutability": "payable",
      "type": "function"
    },
    {
      "constant": false,
      "inputs": [
        {
          "name": "numTokens",
          "type": "uint256"
        }
      ],
      "name": "burn",
      "outputs": [],
      "payable": false,
      "stateMutability": "nonpayable",
      "type": "function"
    }
  ],
  "bytecode": "0x608060405260405162001318380380620013188339810180604052810190808051820192919060200180519060200190929190805182019291906020018051906020019092919050505033600660006101000a81548173ffffffffffffffffffffffffffffffffffffffff021916908373ffffffffffffffffffffffffffffffffffffffff1602179055508360029080519060200190620000a2929190620000fc565b5082600460006101000a81548160ff021916908360ff1602179055508160039080519060200190620000d6929190620000fc565b5080600860006101000a81548160ff021916908360ff16021790555050505050620001ab565b828054600181600116156101000203166002900490600052602060002090601f016020900481019282601f106200013f57805160ff191683800117855562000170565b8280016001018555821562000170579182015b828111156200016f57825182559160200191906001019062000152565b5b5090506200017f919062000183565b5090565b620001a891905b80821115620001a45760008160009055506001016200018a565b5090565b90565b61115d80620001bb6000396000f3006080604052600436106100d0576000357c0100000000000000000000000000000000000000000000000000000000900463ffffffff16806306fdde03146100d557806318160ddd14610165578063313ce5671461019057806342966c68146101c157806352f6ee58146101ee57806370a082311461021f5780638da5cb5b1461027657806395d89b41146102cd57806396365d441461035d578063a0712d6814610388578063b9d36743146103a8578063be45fd62146103e9578063c544682b14610494578063f2fde38b146104d5575b600080fd5b3480156100e157600080fd5b506100ea610518565b6040518080602001828103825283818151815260200191508051906020019080838360005b8381101561012a57808201518184015260208101905061010f565b50505050905090810190601f1680156101575780820380516001836020036101000a031916815260200191505b509250505060405180910390f35b34801561017157600080fd5b5061017a6105ba565b6040518082815260200191505060405180910390f35b34801561019c57600080fd5b506101a56105c4565b604051808260ff1660ff16815260200191505060405180910390f35b3480156101cd57600080fd5b506101ec600480360381019080803590602001909291905050506105db565b005b3480156101fa57600080fd5b5061020361078b565b604051808260ff1660ff16815260200191505060405180910390f35b34801561022b57600080fd5b50610260600480360381019080803573ffffffffffffffffffffffffffffffffffffffff16906020019092919050505061079e565b6040518082815260200191505060405180910390f35b34801561028257600080fd5b5061028b6107e7565b604051808273ffffffffffffffffffffffffffffffffffffffff1673ffffffffffffffffffffffffffffffffffffffff16815260200191505060405180910390f35b3480156102d957600080fd5b506102e261080d565b6040518080602001828103825283818151815260200191508051906020019080838360005b83811015610322578082015181840152602081019050610307565b50505050905090810190601f16801561034f5780820380516001836020036101000a031916815260200191505b509250505060405180910390f35b34801561036957600080fd5b506103726108af565b6040518082815260200191505060405180910390f35b6103a6600480360381019080803590602001909291905050506108b5565b005b3480156103b457600080fd5b506103d3600480360381019080803590602001909291905050506109df565b6040518082815260200191505060405180910390f35b3480156103f557600080fd5b5061047a600480360381019080803573ffffffffffffffffffffffffffffffffffffffff16906020019092919080359060200190929190803590602001908201803590602001908080601f01602080910402602001604051908101604052809392919081815260200183838082843782019150505050505091929192905050506109f9565b604051808215151515815260200191505060405180910390f35b3480156104a057600080fd5b506104bf60048036038101908080359060200190929190505050610a30565b6040518082815260200191505060405180910390f35b3480156104e157600080fd5b50610516600480360381019080803573ffffffffffffffffffffffffffffffffffffffff169060200190929190505050610a4a565b005b606060028054600181600116156101000203166002900480601f0160208091040260200160405190810160405280929190818152602001828054600181600116156101000203166002900480156105b05780601f10610585576101008083540402835291602001916105b0565b820191906000526020600020905b81548152906001019060200180831161059357829003601f168201915b5050505050905090565b6000600554905090565b6000600460009054906101000a900460ff16905090565b600081600160003373ffffffffffffffffffffffffffffffffffffffff1673ffffffffffffffffffffffffffffffffffffffff168152602001908152602001600020541015151561062b57600080fd5b61063482610a30565b905061064b82600554610ba290919063ffffffff16565b6005819055506106a382600160003373ffffffffffffffffffffffffffffffffffffffff1673ffffffffffffffffffffffffffffffffffffffff16815260200190815260200160002054610ba290919063ffffffff16565b600160003373ffffffffffffffffffffffffffffffffffffffff1673ffffffffffffffffffffffffffffffffffffffff168152602001908152602001600020819055506106fb81600754610ba290919063ffffffff16565b6007819055503373ffffffffffffffffffffffffffffffffffffffff166108fc829081150290604051600060405180830381858888f19350505050158015610747573d6000803e3d6000fd5b507fcec1bae6e024d929f2929f3478ce70f55f9c636c8ef7b5073a61d7c3a432451b8282604051808381526020018281526020019250505060405180910390a15050565b600860009054906101000a900460ff1681565b6000600160008373ffffffffffffffffffffffffffffffffffffffff1673ffffffffffffffffffffffffffffffffffffffff168152602001908152602001600020549050919050565b600660009054906101000a900473ffffffffffffffffffffffffffffffffffffffff1681565b606060038054600181600116156101000203166002900480601f0160208091040260200160405190810160405280929190818152602001828054600181600116156101000203166002900480156108a55780601f1061087a576101008083540402835291602001916108a5565b820191906000526020600020905b81548152906001019060200180831161088857829003601f168201915b5050505050905090565b60075481565b60006108c0826109df565b90508034101515156108d157600080fd5b6108e682600554610bbb90919063ffffffff16565b60058190555061093e82600160003373ffffffffffffffffffffffffffffffffffffffff1673ffffffffffffffffffffffffffffffffffffffff16815260200190815260200160002054610bbb90919063ffffffff16565b600160003373ffffffffffffffffffffffffffffffffffffffff1673ffffffffffffffffffffffffffffffffffffffff1681526020019081526020016000208190555061099634600754610bbb90919063ffffffff16565b6007819055507f8a9dcf4e150b1153011b29fec302d5be0c13e84fa8f56ab78587f778a32a90dd8234604051808381526020018281526020019250505060405180910390a15050565b60006007546109f18360055401610bd7565b039050919050565b6000610a0484610c43565b15610a1b57610a14848484610c56565b9050610a29565b610a26848484610f33565b90505b9392505050565b6000610a3f8260055403610bd7565b600754039050919050565b600660009054906101000a900473ffffffffffffffffffffffffffffffffffffffff1673ffffffffffffffffffffffffffffffffffffffff163373ffffffffffffffffffffffffffffffffffffffff16141515610aa657600080fd5b600073ffffffffffffffffffffffffffffffffffffffff168173ffffffffffffffffffffffffffffffffffffffff1614151515610ae257600080fd5b8073ffffffffffffffffffffffffffffffffffffffff16600660009054906101000a900473ffffffffffffffffffffffffffffffffffffffff1673ffffffffffffffffffffffffffffffffffffffff167f8be0079c531659141344cd1fd0a4f28419497f9722a3daafe3b4186f6b6457e060405160405180910390a380600660006101000a81548173ffffffffffffffffffffffffffffffffffffffff021916908373ffffffffffffffffffffffffffffffffffffffff16021790555050565b6000828211151515610bb057fe5b818303905092915050565b60008183019050828110151515610bce57fe5b80905092915050565b6000806000806402540be40092506001600860009054906101000a900460ff160160ff16915081850a9050610c3983610c2b83610c1d86886110e390919063ffffffff16565b6110f990919063ffffffff16565b6110e390919063ffffffff16565b9350505050919050565b600080823b905060008111915050919050565b60008083610c633361079e565b1015610c6e57600080fd5b610c8984610c7b3361079e565b610ba290919063ffffffff16565b600160003373ffffffffffffffffffffffffffffffffffffffff1673ffffffffffffffffffffffffffffffffffffffff16815260200190815260200160002081905550610ce784610cd98761079e565b610bbb90919063ffffffff16565b600160008773ffffffffffffffffffffffffffffffffffffffff1673ffffffffffffffffffffffffffffffffffffffff168152602001908152602001600020819055508490508073ffffffffffffffffffffffffffffffffffffffff1663c0ee0b8a3386866040518463ffffffff167c0100000000000000000000000000000000000000000000000000000000028152600401808473ffffffffffffffffffffffffffffffffffffffff1673ffffffffffffffffffffffffffffffffffffffff16815260200183815260200180602001828103825283818151815260200191508051906020019080838360005b83811015610def578082015181840152602081019050610dd4565b50505050905090810190601f168015610e1c5780820380516001836020036101000a031916815260200191505b50945050505050600060405180830381600087803b158015610e3d57600080fd5b505af1158015610e51573d6000803e3d6000fd5b505050508473ffffffffffffffffffffffffffffffffffffffff163373ffffffffffffffffffffffffffffffffffffffff167fe19260aff97b920c7df27010903aeb9c8d2be5d310a2c67824cf3f15396e4c1686866040518083815260200180602001828103825283818151815260200191508051906020019080838360005b83811015610eec578082015181840152602081019050610ed1565b50505050905090810190601f168015610f195780820380516001836020036101000a031916815260200191505b50935050505060405180910390a360019150509392505050565b600082610f3f3361079e565b1015610f4a57600080fd5b610f6583610f573361079e565b610ba290919063ffffffff16565b600160003373ffffffffffffffffffffffffffffffffffffffff1673ffffffffffffffffffffffffffffffffffffffff16815260200190815260200160002081905550610fc383610fb58661079e565b610bbb90919063ffffffff16565b600160008673ffffffffffffffffffffffffffffffffffffffff1673ffffffffffffffffffffffffffffffffffffffff168152602001908152602001600020819055508373ffffffffffffffffffffffffffffffffffffffff163373ffffffffffffffffffffffffffffffffffffffff167fe19260aff97b920c7df27010903aeb9c8d2be5d310a2c67824cf3f15396e4c1685856040518083815260200180602001828103825283818151815260200191508051906020019080838360005b8381101561109d578082015181840152602081019050611082565b50505050905090810190601f1680156110ca5780820380516001836020036101000a031916815260200191505b50935050505060405180910390a3600190509392505050565b600081838115156110f057fe5b04905092915050565b60008083141561110c576000905061112b565b818302905081838281151561111d57fe5b0414151561112757fe5b8090505b929150505600a165627a7a723058200e506726ded971af2d22c297e4edeb785057db349816561e126f11f51ff797440029",
  "source": "pragma solidity ^0.4.18;\n\nimport \"zeppelin/contracts/ownership/Ownable.sol\";\nimport \"./ERC223_Token.sol\";\n\n\n/**\n * @title Gluon Token\n */\ncontract GluonToken is ERC223Token, Ownable {\n\n    uint256 public poolBalance;\n\n    uint8 public exponent;\n\n    function GluonToken(\n        string _tokenName,\n        uint8 _decimalUnits,\n        string _tokenSymbol,\n        uint8 _exponent\n    ) public payable {\n        name = _tokenName;                                   // Set the name for display purposes\n        decimals = _decimalUnits;                            // Amount of decimals for display purposes\n        symbol = _tokenSymbol;                               // Set the symbol for display purposes\n        exponent = _exponent;\n    }\n\n    // TODO - this should be located in an external contract so the curve can be switched out\n    function curveIntegral(uint256 t) internal returns (uint256) {\n        uint256 one = 10000000000;\n        uint256 nexp = exponent + 1;\n        uint256 x = t ** nexp;\n        // TODO - check for overflow in power function\n        return one.div(nexp).mul(x).div(one);\n    }\n\n    function priceToMint(uint256 numTokens) public returns(uint256) {\n        return curveIntegral(totalSupply + numTokens) - poolBalance;\n    }\n\n    function rewardForBurn(uint256 numTokens) public returns(uint256) {\n        return poolBalance - curveIntegral(totalSupply - numTokens);\n    }\n\n    function mint(uint256 numTokens) public payable {\n        uint256 priceForTokens = priceToMint(numTokens);\n        require(msg.value >= priceForTokens);\n\n        totalSupply = totalSupply.add(numTokens);\n        balances[msg.sender] = balances[msg.sender].add(numTokens);\n        poolBalance = poolBalance.add(msg.value);\n        // TODO - send back any additional ether\n        emit Minted(numTokens, msg.value);\n    }\n\n    function burn(uint256 numTokens) public {\n        require(balances[msg.sender] >= numTokens);\n        uint256 ethToReturn = rewardForBurn(numTokens);\n        totalSupply = totalSupply.sub(numTokens);\n        balances[msg.sender] = balances[msg.sender].sub(numTokens);\n        poolBalance = poolBalance.sub(ethToReturn);\n        msg.sender.transfer(ethToReturn);\n\n        emit Burned(numTokens, ethToReturn);\n    }\n\n    event Minted(uint256 amount, uint256 totalCost);\n    event Burned(uint256 amount, uint256 reward);\n}",
  "sourcePath": "/Users/simonas/dev/gluon-project/gluon-contracts/contracts/GluonToken.sol",
  "compiler": {
    "name": "solc",
    "version": "0.4.24+commit.e67f0147.Emscripten.clang"
  },
  "schemaVersion": "2.0.1",
  "updatedAt": "2018-09-19T10:22:16.405Z"
}