{
  "contractName": "GluonToken",
  "abi": [
    {
      "constant": true,
      "inputs": [],
      "name": "name",
      "outputs": [
        {
          "name": "_name",
          "type": "string"
        }
      ],
      "payable": false,
      "stateMutability": "view",
      "type": "function"
    },
    {
      "constant": true,
      "inputs": [],
      "name": "reserveRatio",
      "outputs": [
        {
          "name": "",
          "type": "uint32"
        }
      ],
      "payable": false,
      "stateMutability": "view",
      "type": "function"
    },
    {
      "constant": true,
      "inputs": [],
      "name": "totalSupply",
      "outputs": [
        {
          "name": "_totalSupply",
          "type": "uint256"
        }
      ],
      "payable": false,
      "stateMutability": "view",
      "type": "function"
    },
    {
      "constant": true,
      "inputs": [
        {
          "name": "_supply",
          "type": "uint256"
        },
        {
          "name": "_connectorBalance",
          "type": "uint256"
        },
        {
          "name": "_connectorWeight",
          "type": "uint32"
        },
        {
          "name": "_depositAmount",
          "type": "uint256"
        }
      ],
      "name": "calculatePurchaseReturn",
      "outputs": [
        {
          "name": "",
          "type": "uint256"
        }
      ],
      "payable": false,
      "stateMutability": "view",
      "type": "function"
    },
    {
      "constant": true,
      "inputs": [],
      "name": "decimals",
      "outputs": [
        {
          "name": "_decimals",
          "type": "uint8"
        }
      ],
      "payable": false,
      "stateMutability": "view",
      "type": "function"
    },
    {
      "constant": true,
      "inputs": [
        {
          "name": "_supply",
          "type": "uint256"
        },
        {
          "name": "_connectorBalance",
          "type": "uint256"
        },
        {
          "name": "_connectorWeight",
          "type": "uint32"
        },
        {
          "name": "_sellAmount",
          "type": "uint256"
        }
      ],
      "name": "calculateSaleReturn",
      "outputs": [
        {
          "name": "",
          "type": "uint256"
        }
      ],
      "payable": false,
      "stateMutability": "view",
      "type": "function"
    },
    {
      "constant": true,
      "inputs": [],
      "name": "version",
      "outputs": [
        {
          "name": "",
          "type": "string"
        }
      ],
      "payable": false,
      "stateMutability": "view",
      "type": "function"
    },
    {
      "constant": true,
      "inputs": [
        {
          "name": "_owner",
          "type": "address"
        }
      ],
      "name": "balanceOf",
      "outputs": [
        {
          "name": "balance",
          "type": "uint256"
        }
      ],
      "payable": false,
      "stateMutability": "view",
      "type": "function"
    },
    {
      "constant": true,
      "inputs": [],
      "name": "owner",
      "outputs": [
        {
          "name": "",
          "type": "address"
        }
      ],
      "payable": false,
      "stateMutability": "view",
      "type": "function"
    },
    {
      "constant": true,
      "inputs": [],
      "name": "symbol",
      "outputs": [
        {
          "name": "_symbol",
          "type": "string"
        }
      ],
      "payable": false,
      "stateMutability": "view",
      "type": "function"
    },
    {
      "constant": true,
      "inputs": [],
      "name": "poolBalance",
      "outputs": [
        {
          "name": "",
          "type": "uint256"
        }
      ],
      "payable": false,
      "stateMutability": "view",
      "type": "function"
    },
    {
      "constant": false,
      "inputs": [
        {
          "name": "_to",
          "type": "address"
        },
        {
          "name": "_value",
          "type": "uint256"
        }
      ],
      "name": "transfer",
      "outputs": [
        {
          "name": "success",
          "type": "bool"
        }
      ],
      "payable": false,
      "stateMutability": "nonpayable",
      "type": "function"
    },
    {
      "constant": false,
      "inputs": [
        {
          "name": "_to",
          "type": "address"
        },
        {
          "name": "_value",
          "type": "uint256"
        },
        {
          "name": "_data",
          "type": "bytes"
        }
      ],
      "name": "transfer",
      "outputs": [
        {
          "name": "success",
          "type": "bool"
        }
      ],
      "payable": false,
      "stateMutability": "nonpayable",
      "type": "function"
    },
    {
      "constant": false,
      "inputs": [
        {
          "name": "newOwner",
          "type": "address"
        }
      ],
      "name": "transferOwnership",
      "outputs": [],
      "payable": false,
      "stateMutability": "nonpayable",
      "type": "function"
    },
    {
      "constant": false,
      "inputs": [
        {
          "name": "_to",
          "type": "address"
        },
        {
          "name": "_value",
          "type": "uint256"
        },
        {
          "name": "_data",
          "type": "bytes"
        },
        {
          "name": "_custom_fallback",
          "type": "string"
        }
      ],
      "name": "transfer",
      "outputs": [
        {
          "name": "success",
          "type": "bool"
        }
      ],
      "payable": false,
      "stateMutability": "nonpayable",
      "type": "function"
    },
    {
      "constant": true,
      "inputs": [],
      "name": "gasPrice",
      "outputs": [
        {
          "name": "",
          "type": "uint256"
        }
      ],
      "payable": false,
      "stateMutability": "view",
      "type": "function"
    },
    {
      "payable": true,
      "stateMutability": "payable",
      "type": "fallback"
    },
    {
      "anonymous": false,
      "inputs": [
        {
          "indexed": false,
          "name": "amountMinted",
          "type": "uint256"
        },
        {
          "indexed": false,
          "name": "totalCost",
          "type": "uint256"
        }
      ],
      "name": "LogMint",
      "type": "event"
    },
    {
      "anonymous": false,
      "inputs": [
        {
          "indexed": false,
          "name": "amountWithdrawn",
          "type": "uint256"
        },
        {
          "indexed": false,
          "name": "reward",
          "type": "uint256"
        }
      ],
      "name": "LogWithdraw",
      "type": "event"
    },
    {
      "anonymous": false,
      "inputs": [
        {
          "indexed": false,
          "name": "logString",
          "type": "string"
        },
        {
          "indexed": false,
          "name": "value",
          "type": "uint256"
        }
      ],
      "name": "LogBondingCurve",
      "type": "event"
    },
    {
      "anonymous": false,
      "inputs": [
        {
          "indexed": true,
          "name": "previousOwner",
          "type": "address"
        },
        {
          "indexed": true,
          "name": "newOwner",
          "type": "address"
        }
      ],
      "name": "OwnershipTransferred",
      "type": "event"
    },
    {
      "anonymous": false,
      "inputs": [
        {
          "indexed": true,
          "name": "from",
          "type": "address"
        },
        {
          "indexed": true,
          "name": "to",
          "type": "address"
        },
        {
          "indexed": false,
          "name": "value",
          "type": "uint256"
        },
        {
          "indexed": false,
          "name": "data",
          "type": "bytes"
        }
      ],
      "name": "Transfer",
      "type": "event"
    },
    {
      "constant": false,
      "inputs": [
        {
          "name": "_reserveRatio",
          "type": "uint32"
        },
        {
          "name": "_gasPrice",
          "type": "uint256"
        },
        {
          "name": "_tokenName",
          "type": "string"
        },
        {
          "name": "_decimalUnits",
          "type": "uint8"
        },
        {
          "name": "_tokenSymbol",
          "type": "string"
        }
      ],
      "name": "BondingCurve",
      "outputs": [],
      "payable": false,
      "stateMutability": "nonpayable",
      "type": "function"
    },
    {
      "constant": false,
      "inputs": [],
      "name": "buy",
      "outputs": [
        {
          "name": "",
          "type": "bool"
        }
      ],
      "payable": true,
      "stateMutability": "payable",
      "type": "function"
    },
    {
      "constant": false,
      "inputs": [
        {
          "name": "sellAmount",
          "type": "uint256"
        }
      ],
      "name": "sell",
      "outputs": [
        {
          "name": "",
          "type": "bool"
        }
      ],
      "payable": false,
      "stateMutability": "nonpayable",
      "type": "function"
    },
    {
      "constant": false,
      "inputs": [
        {
          "name": "_gasPrice",
          "type": "uint256"
        }
      ],
      "name": "setGasPrice",
      "outputs": [],
      "payable": false,
      "stateMutability": "nonpayable",
      "type": "function"
    }
  ],
  "bytecode": "0x60606040526040805190810160405280600381526020017f302e330000000000000000000000000000000000000000000000000000000000815250600690805190602001906200005192919062000fe1565b506040805190810160405280600381526020017f302e330000000000000000000000000000000000000000000000000000000000815250608790805190602001906200009f92919062000fe1565b5060006089556000608b55701c35fedd14ffffffffffffffffffffffff60076020608081101515620000cd57fe5b0181905550701b0ce43b323fffffffffffffffffffffff60076021608081101515620000f557fe5b01819055507019f0028ec1ffffffffffffffffffffffff600760226080811015156200011d57fe5b01819055507018ded91f0e7fffffffffffffffffffffff600760236080811015156200014557fe5b01819055507017d8ec7f0417ffffffffffffffffffffff600760246080811015156200016d57fe5b01819055507016ddc6556cdbffffffffffffffffffffff600760256080811015156200019557fe5b01819055507015ecf52776a1ffffffffffffffffffffff60076026608081101515620001bd57fe5b01819055507015060c256cb2ffffffffffffffffffffff60076027608081101515620001e557fe5b0181905550701428a2f98d72ffffffffffffffffffffff600760286080811015156200020d57fe5b01819055507013545598e5c23fffffffffffffffffffff600760296080811015156200023557fe5b0181905550701288c4161ce1dfffffffffffffffffffff6007602a6080811015156200025d57fe5b01819055507011c592761c666fffffffffffffffffffff6007602b6080811015156200028557fe5b018190555070110a688680a757ffffffffffffffffffff6007602c608081101515620002ad57fe5b0181905550701056f1b5bedf77ffffffffffffffffffff6007602d608081101515620002d557fe5b0181905550700faadceceeff8bffffffffffffffffffff6007602e608081101515620002fd57fe5b0181905550700f05dc6b27edadffffffffffffffffffff6007602f6080811015156200032557fe5b0181905550700e67a5a25da4107fffffffffffffffffff600760306080811015156200034d57fe5b0181905550700dcff115b14eedffffffffffffffffffff600760316080811015156200037557fe5b0181905550700d3e7a392431239fffffffffffffffffff600760326080811015156200039d57fe5b0181905550700cb2ff529eb71e4fffffffffffffffffff60076033608081101515620003c557fe5b0181905550700c2d415c3db974afffffffffffffffffff60076034608081101515620003ed57fe5b0181905550700bad03e7d883f69bffffffffffffffffff600760356080811015156200041557fe5b0181905550700b320d03b2c343d5ffffffffffffffffff600760366080811015156200043d57fe5b0181905550700abc25204e02828dffffffffffffffffff600760376080811015156200046557fe5b0181905550700a4b16f74ee4bb207fffffffffffffffff600760386080811015156200048d57fe5b01819055507009deaf736ac1f569ffffffffffffffffff60076039608081101515620004b557fe5b0181905550700976bd9952c7aa957fffffffffffffffff6007603a608081101515620004dd57fe5b01819055507009131271922eaa606fffffffffffffffff6007603b6080811015156200050557fe5b01819055507008b380f3558668c46fffffffffffffffff6007603c6080811015156200052d57fe5b0181905550700857ddf0117efa215bffffffffffffffff6007603d6080811015156200055557fe5b01819055507007ffffffffffffffffffffffffffffffff6007603e6080811015156200057d57fe5b01819055507007abbf6f6abb9d087fffffffffffffffff6007603f608081101515620005a557fe5b018190555070075af62cbac95f7dfa7fffffffffffffff60076040608081101515620005cd57fe5b018190555070070d7fb7452e187ac13fffffffffffffff60076041608081101515620005f557fe5b01819055507006c3390ecc8af379295fffffffffffffff600760426080811015156200061d57fe5b018190555070067c00a3b07ffc01fd6fffffffffffffff600760436080811015156200064557fe5b0181905550700637b647c39cbb9d3d27ffffffffffffff600760446080811015156200066d57fe5b01819055507005f63b1fc104dbd39587ffffffffffffff600760456080811015156200069557fe5b01819055507005b771955b36e12f7235ffffffffffffff60076046608081101515620006bd57fe5b018190555070057b3d49dda84556d6f6ffffffffffffff60076047608081101515620006e557fe5b018190555070054183095b2c8ececf30ffffffffffffff600760486080811015156200070d57fe5b018190555070050a28be635ca2b888f77fffffffffffff600760496080811015156200073557fe5b01819055507004d5156639708c9db33c3fffffffffffff6007604a6080811015156200075d57fe5b01819055507004a23105873875bd52dfdfffffffffffff6007604b6080811015156200078557fe5b0181905550700471649d87199aa990756fffffffffffff6007604c608081101515620007ad57fe5b01819055507004429a21a029d4c1457cfbffffffffffff6007604d608081101515620007d557fe5b0181905550700415bc6d6fb7dd71af2cb3ffffffffffff6007604e608081101515620007fd57fe5b01819055507003eab73b3bbfe282243ce1ffffffffffff6007604f6080811015156200082557fe5b01819055507003c1771ac9fb6b4c18e229ffffffffffff600760506080811015156200084d57fe5b0181905550700399e96897690418f785257fffffffffff600760516080811015156200087557fe5b0181905550700373fc456c53bb779bf0ea9fffffffffff600760526080811015156200089d57fe5b018190555070034f9e8e490c48e67e6ab8bfffffffffff60076053608081101515620008c557fe5b018190555070032cbfd4a7adc790560b3337ffffffffff60076054608081101515620008ed57fe5b018190555070030b50570f6e5d2acca94613ffffffffff600760556080811015156200091557fe5b01819055507002eb40f9f620fda6b56c2861ffffffffff600760566080811015156200093d57fe5b01819055507002cc8340ecb0d0f520a6af58ffffffffff600760576080811015156200096557fe5b01819055507002af09481380a0a35cf1ba02ffffffffff600760586080811015156200098d57fe5b0181905550700292c5bdd3b92ec810287b1b3fffffffff60076059608081101515620009b557fe5b0181905550700277abdcdab07d5a77ac6d6b9fffffffff6007605a608081101515620009dd57fe5b018190555070025daf6654b1eaa55fd64df5efffffffff6007605b60808110151562000a0557fe5b0181905550700244c49c648baa98192dce88b7ffffffff6007605c60808110151562000a2d57fe5b018190555070022ce03cd5619a311b2471268bffffffff6007605d60808110151562000a5557fe5b0181905550700215f77c045fbe885654a44a0fffffffff6007605e60808110151562000a7d57fe5b01819055507001ffffffffffffffffffffffffffffffff6007605f60808110151562000aa557fe5b01819055507001eaefdbdaaee7421fc4d3ede5ffffffff6007606060808110151562000acd57fe5b01819055507001d6bd8b2eb257df7e8ca57b09bfffffff6007606160808110151562000af557fe5b01819055507001c35fedd14b861eb0443f7f133fffffff6007606260808110151562000b1d57fe5b01819055507001b0ce43b322bcde4a56e8ada5afffffff6007606360808110151562000b4557fe5b018190555070019f0028ec1fff007f5a195a39dfffffff6007606460808110151562000b6d57fe5b018190555070018ded91f0e72ee74f49b15ba527ffffff6007606560808110151562000b9557fe5b018190555070017d8ec7f04136f4e5615fd41a63ffffff6007606660808110151562000bbd57fe5b018190555070016ddc6556cdb84bdc8d12d22e6fffffff6007606760808110151562000be557fe5b018190555070015ecf52776a1155b5bd8395814f7fffff6007606860808110151562000c0d57fe5b018190555070015060c256cb23b3b3cc3754cf40ffffff6007606960808110151562000c3557fe5b01819055507001428a2f98d728ae223ddab715be3fffff6007606a60808110151562000c5d57fe5b018190555070013545598e5c23276ccf0ede68034fffff6007606b60808110151562000c8557fe5b01819055507001288c4161ce1d6f54b7f61081194fffff6007606c60808110151562000cad57fe5b018190555070011c592761c666aa641d5a01a40f17ffff6007606d60808110151562000cd557fe5b0181905550700110a688680a7530515f3e6e6cfdcdffff6007606e60808110151562000cfd57fe5b01819055507001056f1b5bedf75c6bcb2ce8aed428ffff6007606f60808110151562000d2557fe5b01819055506ffaadceceeff8a0890f3875f008277fff6007607060808110151562000d4c57fe5b01819055506ff05dc6b27edad306388a600f6ba0bfff6007607160808110151562000d7357fe5b01819055506fe67a5a25da41063de1495d5b18cdbfff6007607260808110151562000d9a57fe5b01819055506fdcff115b14eedde6fc3aa5353f2e4fff6007607360808110151562000dc157fe5b01819055506fd3e7a3924312399f9aae2e0f868f8fff6007607460808110151562000de857fe5b01819055506fcb2ff529eb71e41582cccd5a1ee26fff6007607560808110151562000e0f57fe5b01819055506fc2d415c3db974ab32a51840c0b67edff6007607660808110151562000e3657fe5b01819055506fbad03e7d883f69ad5b0a186184e06bff6007607760808110151562000e5d57fe5b01819055506fb320d03b2c343d4829abd6075f0cc5ff6007607860808110151562000e8457fe5b01819055506fabc25204e02828d73c6e80bcdb1a95bf6007607960808110151562000eab57fe5b01819055506fa4b16f74ee4bb2040a1ec6c15fbbf2df6007607a60808110151562000ed257fe5b01819055506f9deaf736ac1f569deb1b5ae3f36c130f6007607b60808110151562000ef957fe5b01819055506f976bd9952c7aa957f5937d790ef650376007607c60808110151562000f2057fe5b01819055506f9131271922eaa6064b73a22d0bd4f2bf6007607d60808110151562000f4757fe5b01819055506f8b380f3558668c46c91c49a2f8e967b96007607e60808110151562000f6e57fe5b01819055506f857ddf0117efa215952912839f6473e66007607f60808110151562000f9557fe5b018190555033608860006101000a81548173ffffffffffffffffffffffffffffffffffffffff021916908373ffffffffffffffffffffffffffffffffffffffff16021790555062001090565b828054600181600116156101000203166002900490600052602060002090601f016020900481019282601f106200102457805160ff191683800117855562001055565b8280016001018555821562001055579182015b828111156200105457825182559160200191906001019062001037565b5b50905062001064919062001068565b5090565b6200108d91905b80821115620010895760008160009055506001016200106f565b5090565b90565b6123b380620010a06000396000f300606060405260043610610112576000357c0100000000000000000000000000000000000000000000000000000000900463ffffffff16806306fdde031461011d5780630c7d5cd8146101ab57806318160ddd146101e05780631bfccd781461020957806329a00e7c146102cd578063313ce5671461032557806349f9b0f71461035457806354fd4d50146103ac57806370a082311461043a5780638da5cb5b1461048757806395d89b41146104dc57806396365d441461056a578063a6f2ae3a14610593578063a9059cbb146105b5578063be45fd621461060f578063bf1fe420146106ac578063e4849b32146106cf578063f2fde38b1461070a578063f6368f8a14610743578063fe173b9714610823575b61011a61084c565b50005b341561012857600080fd5b6101306109a2565b6040518080602001828103825283818151815260200191508051906020019080838360005b83811015610170578082015181840152602081019050610155565b50505050905090810190601f16801561019d5780820380516001836020036101000a031916815260200191505b509250505060405180910390f35b34156101b657600080fd5b6101be610a4a565b604051808263ffffffff1663ffffffff16815260200191505060405180910390f35b34156101eb57600080fd5b6101f3610a60565b6040518082815260200191505060405180910390f35b341561021457600080fd5b6102cb600480803563ffffffff1690602001909190803590602001909190803590602001908201803590602001908080601f0160208091040260200160405190810160405280939291908181526020018383808284378201915050505050509190803560ff1690602001909190803590602001908201803590602001908080601f01602080910402602001604051908101604052809392919081815260200183838082843782019150505050505091905050610a6a565b005b34156102d857600080fd5b61030f600480803590602001909190803590602001909190803563ffffffff16906020019091908035906020019091905050610ae2565b6040518082815260200191505060405180910390f35b341561033057600080fd5b610338610be3565b604051808260ff1660ff16815260200191505060405180910390f35b341561035f57600080fd5b610396600480803590602001909190803590602001909190803563ffffffff16906020019091908035906020019091905050610bfa565b6040518082815260200191505060405180910390f35b34156103b757600080fd5b6103bf610d2e565b6040518080602001828103825283818151815260200191508051906020019080838360005b838110156103ff5780820151818401526020810190506103e4565b50505050905090810190601f16801561042c5780820380516001836020036101000a031916815260200191505b509250505060405180910390f35b341561044557600080fd5b610471600480803573ffffffffffffffffffffffffffffffffffffffff16906020019091905050610dcc565b6040518082815260200191505060405180910390f35b341561049257600080fd5b61049a610e15565b604051808273ffffffffffffffffffffffffffffffffffffffff1673ffffffffffffffffffffffffffffffffffffffff16815260200191505060405180910390f35b34156104e757600080fd5b6104ef610e3b565b6040518080602001828103825283818151815260200191508051906020019080838360005b8381101561052f578082015181840152602081019050610514565b50505050905090810190601f16801561055c5780820380516001836020036101000a031916815260200191505b509250505060405180910390f35b341561057557600080fd5b61057d610ee3565b6040518082815260200191505060405180910390f35b61059b61084c565b604051808215151515815260200191505060405180910390f35b34156105c057600080fd5b6105f5600480803573ffffffffffffffffffffffffffffffffffffffff16906020019091908035906020019091905050610ee9565b604051808215151515815260200191505060405180910390f35b341561061a57600080fd5b610692600480803573ffffffffffffffffffffffffffffffffffffffff1690602001909190803590602001909190803590602001908201803590602001908080601f01602080910402602001604051908101604052809392919081815260200183838082843782019150505050505091905050610f28565b604051808215151515815260200191505060405180910390f35b34156106b757600080fd5b6106cd6004808035906020019091905050610f5f565b005b34156106da57600080fd5b6106f06004808035906020019091905050610fd4565b604051808215151515815260200191505060405180910390f35b341561071557600080fd5b610741600480803573ffffffffffffffffffffffffffffffffffffffff169060200190919050506111b7565b005b341561074e57600080fd5b610809600480803573ffffffffffffffffffffffffffffffffffffffff1690602001909190803590602001909190803590602001908201803590602001908080601f0160208091040260200160405190810160405280939291908181526020018383808284378201915050505050509190803590602001908201803590602001908080601f0160208091040260200160405190810160405280939291908181526020018383808284378201915050505050509190505061130f565b604051808215151515815260200191505060405180910390f35b341561082e57600080fd5b61083661165e565b6040518082815260200191505060405180910390f35b600080608b543a1115151561085d57fe5b60003411151561086c57600080fd5b61088e600554608954608a60009054906101000a900463ffffffff1634610ae2565b90506108a58160055461166490919063ffffffff16565b6005819055506108fd81600160003373ffffffffffffffffffffffffffffffffffffffff1673ffffffffffffffffffffffffffffffffffffffff1681526020019081526020016000205461166490919063ffffffff16565b600160003373ffffffffffffffffffffffffffffffffffffffff1673ffffffffffffffffffffffffffffffffffffffff168152602001908152602001600020819055506109553460895461166490919063ffffffff16565b6089819055507fe7360c0fa1984a85874443100f5b25dd4f84192659660eb199f6c96e11defbcb8134604051808381526020018281526020019250505060405180910390a1600191505090565b6109aa6122ba565b60028054600181600116156101000203166002900480601f016020809104026020016040519081016040528092919081815260200182805460018160011615610100020316600290048015610a405780601f10610a1557610100808354040283529160200191610a40565b820191906000526020600020905b815481529060010190602001808311610a2357829003601f168201915b5050505050905090565b608a60009054906101000a900463ffffffff1681565b6000600554905090565b84608a60006101000a81548163ffffffff021916908363ffffffff16021790555083608b819055508260029080519060200190610aa89291906122ce565b5081600460006101000a81548160ff021916908360ff1602179055508060039080519060200190610ada9291906122ce565b505050505050565b60008060008060008089118015610af95750600088115b8015610b0b575060008763ffffffff16115b8015610b265750620f424063ffffffff168763ffffffff1611155b1515610b3157600080fd5b6000861415610b435760009450610bd7565b620f424063ffffffff168763ffffffff161415610b8657610b7f88610b71888c61168290919063ffffffff16565b6116b590919063ffffffff16565b9450610bd7565b610b99888761166490919063ffffffff16565b9150610baa828989620f42406116d0565b80945081955050508260ff16610bc9858b61168290919063ffffffff16565b9060020a9004905088810394505b50505050949350505050565b6000600460009054906101000a900460ff16905090565b60008060008060008060008a118015610c135750600089115b8015610c25575060008863ffffffff16115b8015610c405750620f424063ffffffff168863ffffffff1611155b8015610c4c5750898711155b1515610c5757600080fd5b6000871415610c695760009550610d21565b89871415610c7957889550610d21565b620f424063ffffffff168863ffffffff161415610cbc57610cb58a610ca7898c61168290919063ffffffff16565b6116b590919063ffffffff16565b9550610d21565b868a039250610cd08a84620f42408b6116d0565b8095508196505050610ceb858a61168290919063ffffffff16565b91508360ff16899060020a029050610d1e85610d10838561172d90919063ffffffff16565b6116b590919063ffffffff16565b95505b5050505050949350505050565b60878054600181600116156101000203166002900480601f016020809104026020016040519081016040528092919081815260200182805460018160011615610100020316600290048015610dc45780601f10610d9957610100808354040283529160200191610dc4565b820191906000526020600020905b815481529060010190602001808311610da757829003601f168201915b505050505081565b6000600160008373ffffffffffffffffffffffffffffffffffffffff1673ffffffffffffffffffffffffffffffffffffffff168152602001908152602001600020549050919050565b608860009054906101000a900473ffffffffffffffffffffffffffffffffffffffff1681565b610e436122ba565b60038054600181600116156101000203166002900480601f016020809104026020016040519081016040528092919081815260200182805460018160011615610100020316600290048015610ed95780601f10610eae57610100808354040283529160200191610ed9565b820191906000526020600020905b815481529060010190602001808311610ebc57829003601f168201915b5050505050905090565b60895481565b6000610ef361234e565b610efc84611746565b15610f1357610f0c848483611759565b9150610f21565b610f1e848483611a2d565b91505b5092915050565b6000610f3384611746565b15610f4a57610f43848484611759565b9050610f58565b610f55848484611a2d565b90505b9392505050565b608860009054906101000a900473ffffffffffffffffffffffffffffffffffffffff1673ffffffffffffffffffffffffffffffffffffffff163373ffffffffffffffffffffffffffffffffffffffff16141515610fbb57600080fd5b600081111515610fca57600080fd5b80608b8190555050565b600080608b543a11151515610fe557fe5b600083118015611034575082600160003373ffffffffffffffffffffffffffffffffffffffff1673ffffffffffffffffffffffffffffffffffffffff1681526020019081526020016000205410155b151561103f57600080fd5b611061600554608954608a60009054906101000a900463ffffffff1686610bfa565b90503373ffffffffffffffffffffffffffffffffffffffff166108fc829081150290604051600060405180830381858888f1935050505015156110a357600080fd5b6110b88160895461172d90919063ffffffff16565b60898190555061111083600160003373ffffffffffffffffffffffffffffffffffffffff1673ffffffffffffffffffffffffffffffffffffffff1681526020019081526020016000205461172d90919063ffffffff16565b600160003373ffffffffffffffffffffffffffffffffffffffff1673ffffffffffffffffffffffffffffffffffffffff168152602001908152602001600020819055506111688360055461172d90919063ffffffff16565b6005819055507f210405eb88ac7589aa9de0a6e36b9c9d3cd6e4061b74363d250a77afe3c6efb78382604051808381526020018281526020019250505060405180910390a16001915050919050565b608860009054906101000a900473ffffffffffffffffffffffffffffffffffffffff1673ffffffffffffffffffffffffffffffffffffffff163373ffffffffffffffffffffffffffffffffffffffff1614151561121357600080fd5b600073ffffffffffffffffffffffffffffffffffffffff168173ffffffffffffffffffffffffffffffffffffffff161415151561124f57600080fd5b8073ffffffffffffffffffffffffffffffffffffffff16608860009054906101000a900473ffffffffffffffffffffffffffffffffffffffff1673ffffffffffffffffffffffffffffffffffffffff167f8be0079c531659141344cd1fd0a4f28419497f9722a3daafe3b4186f6b6457e060405160405180910390a380608860006101000a81548173ffffffffffffffffffffffffffffffffffffffff021916908373ffffffffffffffffffffffffffffffffffffffff16021790555050565b600061131a85611746565b15611648578361132933610dcc565b101561133457600080fd5b61134f8461134133610dcc565b61172d90919063ffffffff16565b600160003373ffffffffffffffffffffffffffffffffffffffff1673ffffffffffffffffffffffffffffffffffffffff168152602001908152602001600020819055506113ad8461139f87610dcc565b61166490919063ffffffff16565b600160008773ffffffffffffffffffffffffffffffffffffffff1673ffffffffffffffffffffffffffffffffffffffff168152602001908152602001600020819055508473ffffffffffffffffffffffffffffffffffffffff166000836040518082805190602001908083835b60208310151561143f578051825260208201915060208101905060208303925061141a565b6001836020036101000a03801982511681845116808217855250505050505090500191505060405180910390207c01000000000000000000000000000000000000000000000000000000009004903387876040518563ffffffff167c0100000000000000000000000000000000000000000000000000000000028152600401808473ffffffffffffffffffffffffffffffffffffffff1673ffffffffffffffffffffffffffffffffffffffff168152602001838152602001828051906020019080838360005b83811015611520578082015181840152602081019050611505565b50505050905090810190601f16801561154d5780820380516001836020036101000a031916815260200191505b50935050505060006040518083038185885af19350505050151561156d57fe5b8473ffffffffffffffffffffffffffffffffffffffff163373ffffffffffffffffffffffffffffffffffffffff167fe19260aff97b920c7df27010903aeb9c8d2be5d310a2c67824cf3f15396e4c1686866040518083815260200180602001828103825283818151815260200191508051906020019080838360005b838110156116045780820151818401526020810190506115e9565b50505050905090810190601f1680156116315780820380516001836020036101000a031916815260200191505b50935050505060405180910390a360019050611656565b611653858585611a2d565b90505b949350505050565b608b5481565b600080828401905083811015151561167857fe5b8091505092915050565b600080828402905060008414806116a357508284828115156116a057fe5b04145b15156116ab57fe5b8091505092915050565b60008082848115156116c357fe5b0490508091505092915050565b6000806000808463ffffffff168663ffffffff166116ee8a8a611bdd565b028115156116f857fe5b04915061170482611d44565b905061171d81607f0360ff16839060020a900482611e04565b8193509350505094509492505050565b600082821115151561173b57fe5b818303905092915050565b600080823b905060008111915050919050565b6000808361176633610dcc565b101561177157600080fd5b61178c8461177e33610dcc565b61172d90919063ffffffff16565b600160003373ffffffffffffffffffffffffffffffffffffffff1673ffffffffffffffffffffffffffffffffffffffff168152602001908152602001600020819055506117ea846117dc87610dcc565b61166490919063ffffffff16565b600160008773ffffffffffffffffffffffffffffffffffffffff1673ffffffffffffffffffffffffffffffffffffffff168152602001908152602001600020819055508490508073ffffffffffffffffffffffffffffffffffffffff1663c0ee0b8a3386866040518463ffffffff167c0100000000000000000000000000000000000000000000000000000000028152600401808473ffffffffffffffffffffffffffffffffffffffff1673ffffffffffffffffffffffffffffffffffffffff16815260200183815260200180602001828103825283818151815260200191508051906020019080838360005b838110156118f25780820151818401526020810190506118d7565b50505050905090810190601f16801561191f5780820380516001836020036101000a031916815260200191505b50945050505050600060405180830381600087803b151561193f57600080fd5b5af1151561194c57600080fd5b5050508473ffffffffffffffffffffffffffffffffffffffff163373ffffffffffffffffffffffffffffffffffffffff167fe19260aff97b920c7df27010903aeb9c8d2be5d310a2c67824cf3f15396e4c1686866040518083815260200180602001828103825283818151815260200191508051906020019080838360005b838110156119e65780820151818401526020810190506119cb565b50505050905090810190601f168015611a135780820380516001836020036101000a031916815260200191505b50935050505060405180910390a360019150509392505050565b600082611a3933610dcc565b1015611a4457600080fd5b611a5f83611a5133610dcc565b61172d90919063ffffffff16565b600160003373ffffffffffffffffffffffffffffffffffffffff1673ffffffffffffffffffffffffffffffffffffffff16815260200190815260200160002081905550611abd83611aaf86610dcc565b61166490919063ffffffff16565b600160008673ffffffffffffffffffffffffffffffffffffffff1673ffffffffffffffffffffffffffffffffffffffff168152602001908152602001600020819055508373ffffffffffffffffffffffffffffffffffffffff163373ffffffffffffffffffffffffffffffffffffffff167fe19260aff97b920c7df27010903aeb9c8d2be5d310a2c67824cf3f15396e4c1685856040518083815260200180602001828103825283818151815260200191508051906020019080838360005b83811015611b97578082015181840152602081019050611b7c565b50505050905090810190601f168015611bc45780820380516001836020036101000a031916815260200191505b50935050505060405180910390a3600190509392505050565b60008060008060007001ffffffffffffffffffffffffffffffff8711151515611c0257fe5b60009350856f800000000000000000000000000000008802811515611c2357fe5b04925070010000000000000000000000000000000083101515611c8c57611c646f8000000000000000000000000000000084811515611c5e57fe5b04612228565b91508160ff16839060020a900492506f800000000000000000000000000000008260ff160293505b6f80000000000000000000000000000000831115611d1a57607f90505b60008160ff161115611d19576f80000000000000000000000000000000838402811515611cd257fe5b04925070010000000000000000000000000000000083101515611d0d576001839060020a900492506001810360ff1660019060020a02840193505b80600190039050611ca9565b5b607a60ff166f02c5c85fdf473de6af278ece600fcbda85029060020a900494505050505092915050565b60008060008060209250607f91505b8160ff166001840160ff161015611da557600282840160ff16811515611d7557fe5b0490508460078260ff16608081101515611d8b57fe5b0154101515611d9c57809250611da0565b8091505b611d53565b8460078360ff16608081101515611db857fe5b0154101515611dc957819350611dfc565b8460078460ff16608081101515611ddc57fe5b0154101515611ded57829350611dfc565b60001515611df757fe5b600093505b505050919050565b6000806000849150600090508360ff168583029060020a900491506f03442c4e6074a82f1797f72ac00000008202810190508360ff168583029060020a900491506f0116b96f757c380fb287fd0e400000008202810190508360ff168583029060020a900491506e45ae5bdd5f0e03eca1ff43900000008202810190508360ff168583029060020a900491506e0defabf91302cd95b9ffda500000008202810190508360ff168583029060020a900491506e02529ca9832b22439efff9b80000008202810190508360ff168583029060020a900491506d54f1cf12bd04e516b6da880000008202810190508360ff168583029060020a900491506d0a9e39e257a09ca2d6db510000008202810190508360ff168583029060020a900491506d012e066e7b839fa050c3090000008202810190508360ff168583029060020a900491506c1e33d7d926c329a1ad1a8000008202810190508360ff168583029060020a900491506c02bee513bdb4a6b19b5f8000008202810190508360ff168583029060020a900491506b3a9316fa79b88eccf2a000008202810190508360ff168583029060020a900491506b048177ebe1fa8123752000008202810190508360ff168583029060020a900491506a5263fe90242dcbacf000008202810190508360ff168583029060020a900491506a057e22099c030d941000008202810190508360ff168583029060020a900491506957e22099c030d94100008202810190508360ff168583029060020a9004915069052b6b545699763100008202810190508360ff168583029060020a90049150684985f67696bf7480008202810190508360ff168583029060020a900491506803dea12ea99e4980008202810190508360ff168583029060020a900491506731880f2214b6e0008202810190508360ff168583029060020a9004915067025bcff56eb360008202810190508360ff168583029060020a90049150661b722e10ab10008202810190508360ff168583029060020a900491506601317c700770008202810190508360ff168583029060020a90049150650cba84aafa008202810190508360ff168583029060020a900491506482573a0a008202810190508360ff168583029060020a900491506405035ad9008202810190508360ff168583029060020a90049150632f881b008202810190508360ff168583029060020a900491506301b293408202810190508360ff168583029060020a90049150620efc408202810190508360ff168583029060020a90049150617fe08202810190508360ff168583029060020a900491506104208202810190508360ff168583029060020a9004915060218202810190508360ff168583029060020a9004915060018202810190508360ff1660019060020a02856f0688589cc0e9505e2f2fee55800000008381151561221b57fe5b0401019250505092915050565b60008060008060009250849150610100821015612264575b600182111561225f576001829060020a90049150600183019250612240565b6122af565b608090505b60008160ff1611156122ae578060ff1660019060020a028210151561229b578060ff16829060020a9004915080831792505b60018160ff169060020a90049050612269565b5b829350505050919050565b602060405190810160405280600081525090565b828054600181600116156101000203166002900490600052602060002090601f016020900481019282601f1061230f57805160ff191683800117855561233d565b8280016001018555821561233d579182015b8281111561233c578251825591602001919060010190612321565b5b50905061234a9190612362565b5090565b602060405190810160405280600081525090565b61238491905b80821115612380576000816000905550600101612368565b5090565b905600a165627a7a72305820138cb17ac481d34ffaabbee2cc9590906352ac79fec7b3edb2bd50caa1eb830b0029",
  "source": "pragma solidity ^0.4.18;\n\nimport \"zeppelin/contracts/ownership/Ownable.sol\";\nimport \"./ERC223_Token.sol\";\nimport \"./Receiver_Interface.sol\";\nimport \"./BancorFormula.sol\";\n\n\n/**\n * @title Gluon Token\n * @dev Bonding curve contract based on Bacor formula\n * inspired by bancor protocol and simondlr\n * https://github.com/bancorprotocol/contracts\n * https://github.com/ConsenSys/curationmarkets/blob/master/CurationMarkets.sol\n */\ncontract GluonToken is ERC223Token, BancorFormula, Ownable {\n    /**\n     * @dev Available balance of reserve token in contract\n     */\n    uint256 public poolBalance = 0;\n\n    /*\n     * @dev reserve ratio, represented in ppm, 1-1000000\n     * 1/3 corresponds to y= multiple * x^2\n     * 1/2 corresponds to y= multiple * x\n     * 2/3 corresponds to y= multiple * x^1/2\n     * multiple will depends on contract initialization,\n     * specificallytotalAmount and poolBalance parameters\n     * we might want to add an 'initialize' function that will allow\n     * the owner to send ether to the contract and mint a given amount of tokens\n     */\n    uint32 public reserveRatio;\n\n    /*\n     * - Front-running attacks are currently mitigated by the following mechanisms:\n     * TODO - minimum return argument for each conversion provides a way to define a minimum/maximum price for the transaction\n     * - gas price limit prevents users from having control over the order of execution\n     */\n    uint256 public gasPrice = 0 wei; // maximum gas price for bancor transactions\n\n    function BondingCurve(\n        uint32 _reserveRatio,\n        uint256 _gasPrice,\n        string _tokenName,\n        uint8 _decimalUnits,\n        string _tokenSymbol\n    ) public {\n        reserveRatio = _reserveRatio;\n        gasPrice = _gasPrice;\n\n        name = _tokenName;                                   // Set the name for display purposes\n        decimals = _decimalUnits;                            // Amount of decimals for display purposes\n        symbol = _tokenSymbol;                               // Set the symbol for display purposes\n    }\n\n    /**\n     * @dev default function\n     * gas ~ 91645\n     */\n    function() public payable {\n        buy();\n    }\n\n    /**\n     * @dev Buy tokens\n     * gas ~ 77825\n     * TODO implement maxAmount that helps prevent miner front-running\n     */\n    function buy() validGasPrice public payable returns(bool) {\n        require(msg.value > 0);\n        uint256 tokensToMint = calculatePurchaseReturn(totalSupply, poolBalance, reserveRatio, msg.value);\n        totalSupply = totalSupply.add(tokensToMint);\n        balances[msg.sender] = balances[msg.sender].add(tokensToMint);\n        poolBalance = poolBalance.add(msg.value);\n        emit LogMint(tokensToMint, msg.value);\n        return true;\n    }\n\n    /**\n     * @dev Sell tokens\n     * gas ~ 86936\n     * @param sellAmount Amount of tokens to withdraw\n     * TODO implement maxAmount that helps prevent miner front-running\n     */\n    function sell(uint256 sellAmount) validGasPrice public returns(bool) {\n        require(sellAmount > 0 && balances[msg.sender] >= sellAmount);\n        uint256 ethAmount = calculateSaleReturn(totalSupply, poolBalance, reserveRatio, sellAmount);\n        msg.sender.transfer(ethAmount);\n        poolBalance = poolBalance.sub(ethAmount);\n        balances[msg.sender] = balances[msg.sender].sub(sellAmount);\n        totalSupply = totalSupply.sub(sellAmount);\n        emit LogWithdraw(sellAmount, ethAmount);\n        return true;\n    }\n\n    // verifies that the gas price is lower than the universal limit\n    modifier validGasPrice() {\n        assert(tx.gasprice <= gasPrice);\n        _;\n    }\n\n    /**\n     * @dev Allows the owner to update the gas price limit\n     * @param _gasPrice The new gas price limit\n     */\n    function setGasPrice(uint256 _gasPrice) onlyOwner public {\n        require(_gasPrice > 0);\n        gasPrice = _gasPrice;\n    }\n\n    event LogMint(uint256 amountMinted, uint256 totalCost);\n    event LogWithdraw(uint256 amountWithdrawn, uint256 reward);\n    event LogBondingCurve(string logString, uint256 value);\n}\n\n",
  "sourcePath": "/home/oed/uport/gluon-contracts/contracts/GluonToken.sol",
  "compiler": {
    "name": "solc",
    "version": "0.4.21+commit.dfe3193c.Emscripten.clang"
  },
  "schemaVersion": "2.0.0",
  "updatedAt": "2018-04-20T14:13:41.551Z"
}