{
  "contractName": "SafeMath",
  "abi": [
    {
      "constant": true,
      "inputs": [],
      "name": "MAX_UINT256",
      "outputs": [
        {
          "name": "",
          "type": "uint256"
        }
      ],
      "payable": false,
      "stateMutability": "view",
      "type": "function"
    }
  ],
  "bytecode": "0x60606040523415600e57600080fd5b60ba8061001c6000396000f300606060405260043610603f576000357c0100000000000000000000000000000000000000000000000000000000900463ffffffff16806333a581d2146044575b600080fd5b3415604e57600080fd5b6054606a565b6040518082815260200191505060405180910390f35b7fffffffffffffffffffffffffffffffffffffffffffffffffffffffffffffffff815600a165627a7a7230582046b6d2a47178fceba8a9f33bfaacf1732ea6c51ff04f9e03b284df08262597030029",
  "source": "pragma solidity ^0.4.9;\r\n\r\nimport \"./Receiver_Interface.sol\";\r\nimport \"./ERC223_Interface.sol\";\r\n\r\n /**\r\n * ERC23 token by Dexaran\r\n *\r\n * https://github.com/Dexaran/ERC23-tokens\r\n */\r\n \r\n \r\n /* https://github.com/LykkeCity/EthereumApiDotNetCore/blob/master/src/ContractBuilder/contracts/token/SafeMath.sol */\r\ncontract SafeMath {\r\n    uint256 constant public MAX_UINT256 =\r\n    0xFFFFFFFFFFFFFFFFFFFFFFFFFFFFFFFFFFFFFFFFFFFFFFFFFFFFFFFFFFFFFFFF;\r\n\r\n    function safeAdd(uint256 x, uint256 y) pure internal returns (uint256 z) {\r\n        if (x > MAX_UINT256 - y) revert();\r\n        return x + y;\r\n    }\r\n\r\n    function safeSub(uint256 x, uint256 y) pure internal returns (uint256 z) {\r\n        if (x < y) revert();\r\n        return x - y;\r\n    }\r\n\r\n    function safeMul(uint256 x, uint256 y) pure internal returns (uint256 z) {\r\n        if (y == 0) return 0;\r\n        if (x > MAX_UINT256 / y) revert();\r\n        return x * y;\r\n    }\r\n}\r\n \r\ncontract ERC223Token is ERC223, SafeMath {\r\n\r\n\r\n\r\n  mapping(address => uint) balances;\r\n  \r\n  string public name;\r\n  string public symbol;\r\n  uint8 public decimals;\r\n  uint256 public totalSupply;\r\n  \r\n  function ERC223Token(\r\n    uint256 _initialAmount,\r\n    string _tokenName,\r\n    uint8 _decimalUnits,\r\n    string _tokenSymbol\r\n    ) {\r\n    balances[msg.sender] = _initialAmount;               // Give the creator all initial tokens\r\n    totalSupply = _initialAmount;                        // Update total supply\r\n    name = _tokenName;                                   // Set the name for display purposes\r\n    decimals = _decimalUnits;                            // Amount of decimals for display purposes\r\n    symbol = _tokenSymbol;                               // Set the symbol for display purposes\r\n}\r\n  \r\n  // Function to access name of token .\r\n  function name() public view returns (string _name) {\r\n      return name;\r\n  }\r\n  // Function to access symbol of token .\r\n  function symbol() public view returns (string _symbol) {\r\n      return symbol;\r\n  }\r\n  // Function to access decimals of token .\r\n  function decimals() public view returns (uint8 _decimals) {\r\n      return decimals;\r\n  }\r\n  // Function to access total supply of tokens .\r\n  function totalSupply() public view returns (uint256 _totalSupply) {\r\n      return totalSupply;\r\n  }\r\n  \r\n  \r\n  // Function that is called when a user or another contract wants to transfer funds .\r\n  function transfer(address _to, uint _value, bytes _data, string _custom_fallback) public returns (bool success) {\r\n      \r\n    if(isContract(_to)) {\r\n        if (balanceOf(msg.sender) < _value) revert();\r\n        balances[msg.sender] = safeSub(balanceOf(msg.sender), _value);\r\n        balances[_to] = safeAdd(balanceOf(_to), _value);\r\n        assert(_to.call.value(0)(bytes4(keccak256(_custom_fallback)), msg.sender, _value, _data));\r\n        Transfer(msg.sender, _to, _value, _data);\r\n        return true;\r\n    }\r\n    else {\r\n        return transferToAddress(_to, _value, _data);\r\n    }\r\n}\r\n  \r\n\r\n  // Function that is called when a user or another contract wants to transfer funds .\r\n  function transfer(address _to, uint _value, bytes _data) public returns (bool success) {\r\n      \r\n    if(isContract(_to)) {\r\n        return transferToContract(_to, _value, _data);\r\n    }\r\n    else {\r\n        return transferToAddress(_to, _value, _data);\r\n    }\r\n}\r\n  \r\n  // Standard function transfer similar to ERC20 transfer with no _data .\r\n  // Added due to backwards compatibility reasons .\r\n  function transfer(address _to, uint _value) public returns (bool success) {\r\n      \r\n    //standard function transfer similar to ERC20 transfer with no _data\r\n    //added due to backwards compatibility reasons\r\n    bytes memory empty;\r\n    if(isContract(_to)) {\r\n        return transferToContract(_to, _value, empty);\r\n    }\r\n    else {\r\n        return transferToAddress(_to, _value, empty);\r\n    }\r\n}\r\n\r\n//assemble the given address bytecode. If bytecode exists then the _addr is a contract.\r\n  function isContract(address _addr) private view returns (bool is_contract) {\r\n      uint length;\r\n      assembly {\r\n            //retrieve the size of the code on target address, this needs assembly\r\n            length := extcodesize(_addr)\r\n      }\r\n      return (length>0);\r\n    }\r\n\r\n  //function that is called when transaction target is an address\r\n  function transferToAddress(address _to, uint _value, bytes _data) private returns (bool success) {\r\n    if (balanceOf(msg.sender) < _value) revert();\r\n    balances[msg.sender] = safeSub(balanceOf(msg.sender), _value);\r\n    balances[_to] = safeAdd(balanceOf(_to), _value);\r\n    Transfer(msg.sender, _to, _value, _data);\r\n    return true;\r\n  }\r\n  \r\n  //function that is called when transaction target is a contract\r\n  function transferToContract(address _to, uint _value, bytes _data) private returns (bool success) {\r\n    if (balanceOf(msg.sender) < _value) revert();\r\n    balances[msg.sender] = safeSub(balanceOf(msg.sender), _value);\r\n    balances[_to] = safeAdd(balanceOf(_to), _value);\r\n    ContractReceiver receiver = ContractReceiver(_to);\r\n    receiver.tokenFallback(msg.sender, _value, _data);\r\n    Transfer(msg.sender, _to, _value, _data);\r\n    return true;\r\n}\r\n\r\n\r\n  function balanceOf(address _owner) public view returns (uint balance) {\r\n    return balances[_owner];\r\n  }\r\n}",
  "sourcePath": "/Users/simonas/dev/web3/gluon-erc233-contracts/contracts/ERC223_Token.sol",
  "compiler": {
    "name": "solc",
    "version": "0.4.18+commit.9cf6e910.Emscripten.clang"
  },
  "schemaVersion": "1.0.1",
  "updatedAt": "2018-01-23T10:02:07.017Z"
}